{
  "_format": "hh-sol-artifact-1",
  "contractName": "Election",
  "sourceName": "contracts/Election.sol",
  "abi": [
    {
      "inputs": [],
      "stateMutability": "nonpayable",
      "type": "constructor"
    },
    {
      "inputs": [],
      "name": "Election_NotAdmin",
      "type": "error"
    },
    {
      "inputs": [],
      "name": "Election_VoterNotVerified",
      "type": "error"
    },
    {
      "anonymous": false,
      "inputs": [
        {
          "indexed": false,
          "internalType": "string",
          "name": "",
          "type": "string"
        },
        {
          "indexed": false,
          "internalType": "address",
          "name": "",
          "type": "address"
        },
        {
          "indexed": false,
          "internalType": "string",
          "name": "",
          "type": "string"
        },
        {
          "indexed": false,
          "internalType": "string",
          "name": "",
          "type": "string"
        }
      ],
      "name": "CandidateAdded",
      "type": "event"
    },
    {
      "anonymous": false,
      "inputs": [
        {
          "indexed": false,
          "internalType": "address",
          "name": "voter",
          "type": "address"
        },
        {
          "indexed": false,
          "internalType": "string",
          "name": "data",
          "type": "string"
        },
        {
          "indexed": false,
          "internalType": "string",
          "name": "phoneNo",
          "type": "string"
        }
      ],
      "name": "VoterRegistered",
      "type": "event"
    },
    {
      "inputs": [
        {
          "internalType": "uint256",
          "name": "_candidateId",
          "type": "uint256"
        }
      ],
      "name": "Vote",
      "outputs": [],
      "stateMutability": "nonpayable",
      "type": "function"
    },
    {
      "inputs": [
        {
          "internalType": "string",
          "name": "_name",
          "type": "string"
        },
        {
          "internalType": "address",
          "name": "_candidate",
          "type": "address"
        },
        {
          "internalType": "string",
          "name": "_partyName",
          "type": "string"
        },
        {
          "internalType": "string",
          "name": "_slogan",
          "type": "string"
        }
      ],
      "name": "addCandidate",
      "outputs": [],
      "stateMutability": "nonpayable",
      "type": "function"
    },
    {
      "inputs": [],
      "name": "getAdminDetails",
      "outputs": [
        {
          "internalType": "address",
          "name": "",
          "type": "address"
        }
      ],
      "stateMutability": "view",
      "type": "function"
    },
    {
      "inputs": [
        {
          "internalType": "string",
          "name": "_aadhar",
          "type": "string"
        },
        {
          "internalType": "string",
          "name": "_phoneNo",
          "type": "string"
        }
      ],
      "name": "registerVoter",
      "outputs": [],
      "stateMutability": "nonpayable",
      "type": "function"
    },
    {
      "inputs": [
        {
          "internalType": "address",
          "name": "_voter",
          "type": "address"
        }
      ],
      "name": "verifyVoter",
      "outputs": [],
      "stateMutability": "nonpayable",
      "type": "function"
    }
  ],
  "bytecode": "0x60a060405234801561001057600080fd5b503373ffffffffffffffffffffffffffffffffffffffff1660808173ffffffffffffffffffffffffffffffffffffffff1681525050600160008190555060805161131c6100756000396000818160ec015281816102310152610408015261131c6000f3fe608060405234801561001057600080fd5b50600436106100575760003560e01c806309bd09501461005c57806317e6f02e146100785780638a4c884714610096578063d908095d146100b2578063dcd6a5cd146100ce575b600080fd5b6100766004803603810190610071919061095a565b6100ea565b005b61008061022d565b60405161008d9190610996565b60405180910390f35b6100b060048036038101906100ab9190610af7565b610255565b005b6100cc60048036038101906100c79190610bcf565b610406565b005b6100e860048036038101906100e39190610cce565b6106b2565b005b7f000000000000000000000000000000000000000000000000000000000000000073ffffffffffffffffffffffffffffffffffffffff163373ffffffffffffffffffffffffffffffffffffffff161461016f576040517f921ba71100000000000000000000000000000000000000000000000000000000815260040160405180910390fd5b60011515600360008373ffffffffffffffffffffffffffffffffffffffff1673ffffffffffffffffffffffffffffffffffffffff16815260200190815260200160002060020160019054906101000a900460ff161515036101cf57600080fd5b6001600360008373ffffffffffffffffffffffffffffffffffffffff1673ffffffffffffffffffffffffffffffffffffffff16815260200190815260200160002060020160016101000a81548160ff02191690831515021790555050565b60007f0000000000000000000000000000000000000000000000000000000000000000905090565b600082823360405160200161026c93929190610db4565b6040516020818303038152906040528051906020012090506040518060a001604052803373ffffffffffffffffffffffffffffffffffffffff16815260200182815260200160011515815260200160001515815260200160001515815250600360003373ffffffffffffffffffffffffffffffffffffffff1673ffffffffffffffffffffffffffffffffffffffff16815260200190815260200160002060008201518160000160006101000a81548173ffffffffffffffffffffffffffffffffffffffff021916908373ffffffffffffffffffffffffffffffffffffffff1602179055506020820151816001015560408201518160020160006101000a81548160ff02191690831515021790555060608201518160020160016101000a81548160ff02191690831515021790555060808201518160020160026101000a81548160ff0219169083151502179055509050506103c68161082e565b7f96ac7a421360a2bd773d747b2f64b40a916821c4906dbfdebf787c292e741f7d3384846040516103f993929190610e33565b60405180910390a1505050565b7f000000000000000000000000000000000000000000000000000000000000000073ffffffffffffffffffffffffffffffffffffffff163373ffffffffffffffffffffffffffffffffffffffff161461048b576040517f921ba71100000000000000000000000000000000000000000000000000000000815260040160405180910390fd5b6040518060a0016040528088888080601f016020809104026020016040519081016040528093929190818152602001838380828437600081840152601f19601f8201169050808301925050505050505081526020018673ffffffffffffffffffffffffffffffffffffffff16815260200185858080601f016020809104026020016040519081016040528093929190818152602001838380828437600081840152601f19601f82011690508083019250505050505050815260200183838080601f016020809104026020016040519081016040528093929190818152602001838380828437600081840152601f19601f82011690508083019250505050505050815260200160008152506002600054815481106105ab576105aa610e78565b5b906000526020600020906005020160008201518160000190816105ce91906110b3565b5060208201518160010160006101000a81548173ffffffffffffffffffffffffffffffffffffffff021916908373ffffffffffffffffffffffffffffffffffffffff160217905550604082015181600201908161062b91906110b3565b50606082015181600301908161064191906110b3565b5060808201518160040155905050600080815480929190610661906111b4565b91905055507f3e803cd24ee89cdeb21fdeb1abae02f3645470ee6d9dbde6d6a32e8d9a3d9bbf878787878787876040516106a19796959493929190611229565b60405180910390a150505050505050565b600360003373ffffffffffffffffffffffffffffffffffffffff1673ffffffffffffffffffffffffffffffffffffffff16815260200190815260200160002060020160019054906101000a900460ff16610738576040517f9cf5120e00000000000000000000000000000000000000000000000000000000815260040160405180910390fd5b600360003373ffffffffffffffffffffffffffffffffffffffff1673ffffffffffffffffffffffffffffffffffffffff16815260200190815260200160002060020160029054906101000a900460ff16156107ff576000600560003373ffffffffffffffffffffffffffffffffffffffff1673ffffffffffffffffffffffffffffffffffffffff1681526020019081526020016000205490506004600082815260200190815260200160002060040160008154809291906107f890611289565b9190505550505b600460008281526020019081526020016000206004016000815480929190610826906111b4565b919050555050565b6108c48160405160240161084291906112cb565b6040516020818303038152906040527f27b7cf85000000000000000000000000000000000000000000000000000000007bffffffffffffffffffffffffffffffffffffffffffffffffffffffff19166020820180517bffffffffffffffffffffffffffffffffffffffffffffffffffffffff83818316178352505050506108c7565b50565b60006a636f6e736f6c652e6c6f679050600080835160208501845afa505050565b6000604051905090565b600080fd5b600080fd5b600073ffffffffffffffffffffffffffffffffffffffff82169050919050565b6000610927826108fc565b9050919050565b6109378161091c565b811461094257600080fd5b50565b6000813590506109548161092e565b92915050565b6000602082840312156109705761096f6108f2565b5b600061097e84828501610945565b91505092915050565b6109908161091c565b82525050565b60006020820190506109ab6000830184610987565b92915050565b600080fd5b600080fd5b6000601f19601f8301169050919050565b7f4e487b7100000000000000000000000000000000000000000000000000000000600052604160045260246000fd5b610a04826109bb565b810181811067ffffffffffffffff82111715610a2357610a226109cc565b5b80604052505050565b6000610a366108e8565b9050610a4282826109fb565b919050565b600067ffffffffffffffff821115610a6257610a616109cc565b5b610a6b826109bb565b9050602081019050919050565b82818337600083830152505050565b6000610a9a610a9584610a47565b610a2c565b905082815260208101848484011115610ab657610ab56109b6565b5b610ac1848285610a78565b509392505050565b600082601f830112610ade57610add6109b1565b5b8135610aee848260208601610a87565b91505092915050565b60008060408385031215610b0e57610b0d6108f2565b5b600083013567ffffffffffffffff811115610b2c57610b2b6108f7565b5b610b3885828601610ac9565b925050602083013567ffffffffffffffff811115610b5957610b586108f7565b5b610b6585828601610ac9565b9150509250929050565b600080fd5b600080fd5b60008083601f840112610b8f57610b8e6109b1565b5b8235905067ffffffffffffffff811115610bac57610bab610b6f565b5b602083019150836001820283011115610bc857610bc7610b74565b5b9250929050565b60008060008060008060006080888a031215610bee57610bed6108f2565b5b600088013567ffffffffffffffff811115610c0c57610c0b6108f7565b5b610c188a828b01610b79565b97509750506020610c2b8a828b01610945565b955050604088013567ffffffffffffffff811115610c4c57610c4b6108f7565b5b610c588a828b01610b79565b9450945050606088013567ffffffffffffffff811115610c7b57610c7a6108f7565b5b610c878a828b01610b79565b925092505092959891949750929550565b6000819050919050565b610cab81610c98565b8114610cb657600080fd5b50565b600081359050610cc881610ca2565b92915050565b600060208284031215610ce457610ce36108f2565b5b6000610cf284828501610cb9565b91505092915050565b600081519050919050565b600081905092915050565b60005b83811015610d2f578082015181840152602081019050610d14565b60008484015250505050565b6000610d4682610cfb565b610d508185610d06565b9350610d60818560208601610d11565b80840191505092915050565b60008160601b9050919050565b6000610d8482610d6c565b9050919050565b6000610d9682610d79565b9050919050565b610dae610da98261091c565b610d8b565b82525050565b6000610dc08286610d3b565b9150610dcc8285610d3b565b9150610dd88284610d9d565b601482019150819050949350505050565b600082825260208201905092915050565b6000610e0582610cfb565b610e0f8185610de9565b9350610e1f818560208601610d11565b610e28816109bb565b840191505092915050565b6000606082019050610e486000830186610987565b8181036020830152610e5a8185610dfa565b90508181036040830152610e6e8184610dfa565b9050949350505050565b7f4e487b7100000000000000000000000000000000000000000000000000000000600052603260045260246000fd5b7f4e487b7100000000000000000000000000000000000000000000000000000000600052602260045260246000fd5b60006002820490506001821680610eee57607f821691505b602082108103610f0157610f00610ea7565b5b50919050565b60008190508160005260206000209050919050565b60006020601f8301049050919050565b600082821b905092915050565b600060088302610f697fffffffffffffffffffffffffffffffffffffffffffffffffffffffffffffffff82610f2c565b610f738683610f2c565b95508019841693508086168417925050509392505050565b6000819050919050565b6000610fb0610fab610fa684610c98565b610f8b565b610c98565b9050919050565b6000819050919050565b610fca83610f95565b610fde610fd682610fb7565b848454610f39565b825550505050565b600090565b610ff3610fe6565b610ffe818484610fc1565b505050565b5b8181101561102257611017600082610feb565b600181019050611004565b5050565b601f8211156110675761103881610f07565b61104184610f1c565b81016020851015611050578190505b61106461105c85610f1c565b830182611003565b50505b505050565b600082821c905092915050565b600061108a6000198460080261106c565b1980831691505092915050565b60006110a38383611079565b9150826002028217905092915050565b6110bc82610cfb565b67ffffffffffffffff8111156110d5576110d46109cc565b5b6110df8254610ed6565b6110ea828285611026565b600060209050601f83116001811461111d576000841561110b578287015190505b6111158582611097565b86555061117d565b601f19841661112b86610f07565b60005b828110156111535784890151825560018201915060208501945060208101905061112e565b86831015611170578489015161116c601f891682611079565b8355505b6001600288020188555050505b505050505050565b7f4e487b7100000000000000000000000000000000000000000000000000000000600052601160045260246000fd5b60006111bf82610c98565b91507fffffffffffffffffffffffffffffffffffffffffffffffffffffffffffffffff82036111f1576111f0611185565b5b600182019050919050565b60006112088385610de9565b9350611215838584610a78565b61121e836109bb565b840190509392505050565b6000608082019050818103600083015261124481898b6111fc565b90506112536020830188610987565b81810360408301526112668186886111fc565b9050818103606083015261127b8184866111fc565b905098975050505050505050565b600061129482610c98565b9150600082036112a7576112a6611185565b5b600182039050919050565b6000819050919050565b6112c5816112b2565b82525050565b60006020820190506112e060008301846112bc565b9291505056fea26469706673582212201043c655fd15ef4502d7219d55e5576be36fb2c9001417f6761de4fe5b33cfdb64736f6c63430008120033",
  "linkReferences": {},
  "deployedLinkReferences": {}
}