{
  "_format": "hh-sol-artifact-1",
  "contractName": "Election",
  "sourceName": "contracts/Election.sol",
  "abi": [
    {
      "inputs": [],
      "stateMutability": "nonpayable",
      "type": "constructor"
    },
    {
      "inputs": [],
      "name": "Election_NotAdmin",
      "type": "error"
    },
    {
      "inputs": [],
      "name": "Election_VoterNotVerified",
      "type": "error"
    },
    {
      "anonymous": false,
      "inputs": [
        {
          "indexed": true,
          "internalType": "string",
          "name": "name",
          "type": "string"
        },
        {
          "indexed": false,
          "internalType": "string",
          "name": "partyName",
          "type": "string"
        },
        {
          "indexed": false,
          "internalType": "string",
          "name": "slogan",
          "type": "string"
        }
      ],
      "name": "CandidateAdded",
      "type": "event"
    },
    {
      "anonymous": false,
      "inputs": [
        {
          "indexed": true,
          "internalType": "address",
          "name": "voter",
          "type": "address"
        },
        {
          "indexed": false,
          "internalType": "string",
          "name": "data",
          "type": "string"
        },
        {
          "indexed": false,
          "internalType": "string",
          "name": "phoneNo",
          "type": "string"
        }
      ],
      "name": "VoterRegistered",
      "type": "event"
    },
    {
      "anonymous": false,
      "inputs": [
        {
          "indexed": true,
          "internalType": "string",
          "name": "adminName",
          "type": "string"
        },
        {
          "indexed": true,
          "internalType": "string",
          "name": "electionTitle",
          "type": "string"
        },
        {
          "indexed": false,
          "internalType": "string",
          "name": "adminPosition",
          "type": "string"
        },
        {
          "indexed": false,
          "internalType": "string",
          "name": "organizationTitle",
          "type": "string"
        }
      ],
      "name": "electionAdded",
      "type": "event"
    },
    {
      "inputs": [
        {
          "internalType": "uint256",
          "name": "_candidateId",
          "type": "uint256"
        }
      ],
      "name": "Vote",
      "outputs": [],
      "stateMutability": "nonpayable",
      "type": "function"
    },
    {
      "inputs": [
        {
          "internalType": "string",
          "name": "_name",
          "type": "string"
        },
        {
          "internalType": "string",
          "name": "_partyName",
          "type": "string"
        },
        {
          "internalType": "string",
          "name": "_slogan",
          "type": "string"
        }
      ],
      "name": "addCandidate",
      "outputs": [],
      "stateMutability": "nonpayable",
      "type": "function"
    },
    {
      "inputs": [],
      "name": "getAdmin",
      "outputs": [
        {
          "internalType": "address",
          "name": "",
          "type": "address"
        }
      ],
      "stateMutability": "view",
      "type": "function"
    },
    {
      "inputs": [],
      "name": "getCandidate",
      "outputs": [
        {
          "components": [
            {
              "internalType": "string",
              "name": "name",
              "type": "string"
            },
            {
              "internalType": "string",
              "name": "partyName",
              "type": "string"
            },
            {
              "internalType": "string",
              "name": "slogan",
              "type": "string"
            },
            {
              "internalType": "uint256",
              "name": "votes",
              "type": "uint256"
            }
          ],
          "internalType": "struct Election.Candidate[]",
          "name": "",
          "type": "tuple[]"
        }
      ],
      "stateMutability": "view",
      "type": "function"
    },
    {
      "inputs": [],
      "name": "getCandidateCount",
      "outputs": [
        {
          "internalType": "uint256",
          "name": "",
          "type": "uint256"
        }
      ],
      "stateMutability": "view",
      "type": "function"
    },
    {
      "inputs": [],
      "name": "getElectionDetails",
      "outputs": [
        {
          "components": [
            {
              "internalType": "string",
              "name": "adminName",
              "type": "string"
            },
            {
              "internalType": "string",
              "name": "adminPosition",
              "type": "string"
            },
            {
              "internalType": "string",
              "name": "electionTitle",
              "type": "string"
            },
            {
              "internalType": "string",
              "name": "organizationTitle",
              "type": "string"
            }
          ],
          "internalType": "struct Election.ElectionDetails",
          "name": "",
          "type": "tuple"
        }
      ],
      "stateMutability": "view",
      "type": "function"
    },
    {
      "inputs": [],
      "name": "getEndTime",
      "outputs": [
        {
          "internalType": "uint256",
          "name": "",
          "type": "uint256"
        }
      ],
      "stateMutability": "view",
      "type": "function"
    },
    {
      "inputs": [],
      "name": "getStartTime",
      "outputs": [
        {
          "internalType": "uint256",
          "name": "",
          "type": "uint256"
        }
      ],
      "stateMutability": "view",
      "type": "function"
    },
    {
      "inputs": [],
      "name": "getVoterDetails",
      "outputs": [
        {
          "components": [
            {
              "internalType": "address",
              "name": "voter",
              "type": "address"
            },
            {
              "internalType": "bytes32",
              "name": "dataHash",
              "type": "bytes32"
            },
            {
              "internalType": "bool",
              "name": "isRegistered",
              "type": "bool"
            },
            {
              "internalType": "bool",
              "name": "isVerified",
              "type": "bool"
            },
            {
              "internalType": "bool",
              "name": "hasVoted",
              "type": "bool"
            }
          ],
          "internalType": "struct Election.Voter",
          "name": "",
          "type": "tuple"
        }
      ],
      "stateMutability": "view",
      "type": "function"
    },
    {
      "inputs": [
        {
          "internalType": "uint256",
          "name": "_endTime",
          "type": "uint256"
        }
      ],
      "name": "initiateElection",
      "outputs": [],
      "stateMutability": "nonpayable",
      "type": "function"
    },
    {
      "inputs": [
        {
          "internalType": "string",
          "name": "_aadhar",
          "type": "string"
        },
        {
          "internalType": "string",
          "name": "_phoneNo",
          "type": "string"
        }
      ],
      "name": "registerVoter",
      "outputs": [],
      "stateMutability": "nonpayable",
      "type": "function"
    },
    {
      "inputs": [
        {
          "internalType": "string",
          "name": "_adminName",
          "type": "string"
        },
        {
          "internalType": "string",
          "name": "_adminPosition",
          "type": "string"
        },
        {
          "internalType": "string",
          "name": "_electionTitle",
          "type": "string"
        },
        {
          "internalType": "string",
          "name": "_organizationTitle",
          "type": "string"
        }
      ],
      "name": "setElectionDetails",
      "outputs": [],
      "stateMutability": "nonpayable",
      "type": "function"
    },
    {
      "inputs": [
        {
          "internalType": "address",
          "name": "_voter",
          "type": "address"
        },
        {
          "internalType": "bool",
          "name": "_hasVerified",
          "type": "bool"
        }
      ],
      "name": "verifyVoter",
      "outputs": [],
      "stateMutability": "nonpayable",
      "type": "function"
    }
  ],
  "bytecode": "0x60a060405234801561001057600080fd5b503373ffffffffffffffffffffffffffffffffffffffff1660808173ffffffffffffffffffffffffffffffffffffffff1681525050600160008190555060805161211b61008460003960008181610250015281816103a8015281816107be015281816108540152610ade015261211b6000f3fe608060405234801561001057600080fd5b50600436106100cf5760003560e01c80638a4c88471161008c578063ad71f8dc11610066578063ad71f8dc146101da578063c828371e146101f6578063dcd6a5cd14610214578063ed836bc314610230576100cf565b80638a4c8847146101865780639c302f35146101a2578063a8e546f2146101be576100cf565b806302c9846d146100d457806330a56347146100f0578063439f5ac21461010e5780636e9960c31461012c57806370218b851461014a5780637d24c21014610168575b600080fd5b6100ee60048036038101906100e99190611374565b61024e565b005b6100f8610391565b60405161010591906113cd565b60405180910390f35b61011661039a565b60405161012391906113cd565b60405180910390f35b6101346103a4565b60405161014191906113f7565b60405180910390f35b6101526103cc565b60405161015f91906115e4565b60405180910390f35b6101706105eb565b60405161017d91906116a5565b60405180910390f35b6101a0600480360381019061019b91906117f5565b6105f6565b005b6101bc60048036038101906101b79190611899565b6107bc565b005b6101d860048036038101906101d39190611926565b610852565b005b6101f460048036038101906101ef9190611a0f565b610adc565b005b6101fe610d3c565b60405161020b91906113cd565b60405180910390f35b61022e60048036038101906102299190611899565b610d46565b005b610238610f38565b6040516102459190611b3b565b60405180910390f35b7f000000000000000000000000000000000000000000000000000000000000000073ffffffffffffffffffffffffffffffffffffffff163373ffffffffffffffffffffffffffffffffffffffff16146102d3576040517f921ba71100000000000000000000000000000000000000000000000000000000815260040160405180910390fd5b60011515600960008473ffffffffffffffffffffffffffffffffffffffff1673ffffffffffffffffffffffffffffffffffffffff16815260200190815260200160002060020160019054906101000a900460ff1615150361033357600080fd5b80600960008473ffffffffffffffffffffffffffffffffffffffff1673ffffffffffffffffffffffffffffffffffffffff16815260200190815260200160002060020160016101000a81548160ff0219169083151502179055505050565b60008054905090565b6000600254905090565b60007f0000000000000000000000000000000000000000000000000000000000000000905090565b60606008805480602002602001604051908101604052809291908181526020016000905b828210156105e2578382906000526020600020906004020160405180608001604052908160008201805461042390611b8c565b80601f016020809104026020016040519081016040528092919081815260200182805461044f90611b8c565b801561049c5780601f106104715761010080835404028352916020019161049c565b820191906000526020600020905b81548152906001019060200180831161047f57829003601f168201915b505050505081526020016001820180546104b590611b8c565b80601f01602080910402602001604051908101604052809291908181526020018280546104e190611b8c565b801561052e5780601f106105035761010080835404028352916020019161052e565b820191906000526020600020905b81548152906001019060200180831161051157829003601f168201915b5050505050815260200160028201805461054790611b8c565b80601f016020809104026020016040519081016040528092919081815260200182805461057390611b8c565b80156105c05780601f10610595576101008083540402835291602001916105c0565b820191906000526020600020905b8154815290600101906020018083116105a357829003601f168201915b50505050508152602001600382015481525050815260200190600101906103f0565b50505050905090565b6105f3611254565b90565b600082823360405160200161060d93929190611c41565b6040516020818303038152906040528051906020012090506040518060a001604052803373ffffffffffffffffffffffffffffffffffffffff16815260200182815260200160011515815260200160001515815260200160001515815250600960003373ffffffffffffffffffffffffffffffffffffffff1673ffffffffffffffffffffffffffffffffffffffff16815260200190815260200160002060008201518160000160006101000a81548173ffffffffffffffffffffffffffffffffffffffff021916908373ffffffffffffffffffffffffffffffffffffffff1602179055506020820151816001015560408201518160020160006101000a81548160ff02191690831515021790555060608201518160020160016101000a81548160ff02191690831515021790555060808201518160020160026101000a81548160ff0219169083151502179055509050506107678161119a565b3373ffffffffffffffffffffffffffffffffffffffff167f96ac7a421360a2bd773d747b2f64b40a916821c4906dbfdebf787c292e741f7d84846040516107af929190611cc0565b60405180910390a2505050565b7f000000000000000000000000000000000000000000000000000000000000000073ffffffffffffffffffffffffffffffffffffffff163373ffffffffffffffffffffffffffffffffffffffff1614610841576040517f921ba71100000000000000000000000000000000000000000000000000000000815260040160405180910390fd5b426001819055508060028190555050565b7f000000000000000000000000000000000000000000000000000000000000000073ffffffffffffffffffffffffffffffffffffffff163373ffffffffffffffffffffffffffffffffffffffff16146108d7576040517f921ba71100000000000000000000000000000000000000000000000000000000815260040160405180910390fd5b604051806080016040528089898080601f016020809104026020016040519081016040528093929190818152602001838380828437600081840152601f19601f82011690508083019250505050505050815260200187878080601f016020809104026020016040519081016040528093929190818152602001838380828437600081840152601f19601f82011690508083019250505050505050815260200185858080601f016020809104026020016040519081016040528093929190818152602001838380828437600081840152601f19601f82011690508083019250505050505050815260200183838080601f016020809104026020016040519081016040528093929190818152602001838380828437600081840152601f19601f8201169050808301925050505050505081525060036000820151816000019081610a1f9190611ea3565b506020820151816001019081610a359190611ea3565b506040820151816002019081610a4b9190611ea3565b506060820151816003019081610a619190611ea3565b509050508585604051610a75929190611f9a565b60405180910390208888604051610a8d929190611f9a565b60405180910390207f7c935ef8ac1ff13d70515c002e0f97e28f0e6bf078fc5a48ef58c6f71033b99586868686604051610aca9493929190611fe0565b60405180910390a35050505050505050565b7f000000000000000000000000000000000000000000000000000000000000000073ffffffffffffffffffffffffffffffffffffffff163373ffffffffffffffffffffffffffffffffffffffff1614610b61576040517f921ba71100000000000000000000000000000000000000000000000000000000815260040160405180910390fd5b6008604051806080016040528088888080601f016020809104026020016040519081016040528093929190818152602001838380828437600081840152601f19601f82011690508083019250505050505050815260200186868080601f016020809104026020016040519081016040528093929190818152602001838380828437600081840152601f19601f82011690508083019250505050505050815260200184848080601f016020809104026020016040519081016040528093929190818152602001838380828437600081840152601f19601f820116905080830192505050505050508152602001600081525090806001815401808255809150506001900390600052602060002090600402016000909190919091506000820151816000019081610c8f9190611ea3565b506020820151816001019081610ca59190611ea3565b506040820151816002019081610cbb9190611ea3565b50606082015181600301555050600080815480929190610cda9061204a565b91905055508585604051610cef929190611f9a565b60405180910390207fa620e116e8168f7281127a47ac04518b6fbd8b07cd150397e6e3e56127ce48cf85858585604051610d2c9493929190611fe0565b60405180910390a2505050505050565b6000600154905090565b600960003373ffffffffffffffffffffffffffffffffffffffff1673ffffffffffffffffffffffffffffffffffffffff16815260200190815260200160002060020160019054906101000a900460ff16610dcc576040517f9cf5120e00000000000000000000000000000000000000000000000000000000815260040160405180910390fd5b600960003373ffffffffffffffffffffffffffffffffffffffff1673ffffffffffffffffffffffffffffffffffffffff16815260200190815260200160002060020160029054906101000a900460ff1615610e93576000600b60003373ffffffffffffffffffffffffffffffffffffffff1673ffffffffffffffffffffffffffffffffffffffff168152602001908152602001600020549050600a60008281526020019081526020016000206003016000815480929190610e8c90612092565b9190505550505b60015442118015610ea5575060025442105b610eae57600080fd5b600a60008281526020019081526020016000206003016000815480929190610ed59061204a565b91905055506001600960003373ffffffffffffffffffffffffffffffffffffffff1673ffffffffffffffffffffffffffffffffffffffff16815260200190815260200160002060020160026101000a81548160ff02191690831515021790555050565b610f406112a2565b6003604051806080016040529081600082018054610f5d90611b8c565b80601f0160208091040260200160405190810160405280929190818152602001828054610f8990611b8c565b8015610fd65780601f10610fab57610100808354040283529160200191610fd6565b820191906000526020600020905b815481529060010190602001808311610fb957829003601f168201915b50505050508152602001600182018054610fef90611b8c565b80601f016020809104026020016040519081016040528092919081815260200182805461101b90611b8c565b80156110685780601f1061103d57610100808354040283529160200191611068565b820191906000526020600020905b81548152906001019060200180831161104b57829003601f168201915b5050505050815260200160028201805461108190611b8c565b80601f01602080910402602001604051908101604052809291908181526020018280546110ad90611b8c565b80156110fa5780601f106110cf576101008083540402835291602001916110fa565b820191906000526020600020905b8154815290600101906020018083116110dd57829003601f168201915b5050505050815260200160038201805461111390611b8c565b80601f016020809104026020016040519081016040528092919081815260200182805461113f90611b8c565b801561118c5780601f106111615761010080835404028352916020019161118c565b820191906000526020600020905b81548152906001019060200180831161116f57829003601f168201915b505050505081525050905090565b611230816040516024016111ae91906120ca565b6040516020818303038152906040527f27b7cf85000000000000000000000000000000000000000000000000000000007bffffffffffffffffffffffffffffffffffffffffffffffffffffffff19166020820180517bffffffffffffffffffffffffffffffffffffffffffffffffffffffff8381831617835250505050611233565b50565b60006a636f6e736f6c652e6c6f679050600080835160208501845afa505050565b6040518060a00160405280600073ffffffffffffffffffffffffffffffffffffffff168152602001600080191681526020016000151581526020016000151581526020016000151581525090565b6040518060800160405280606081526020016060815260200160608152602001606081525090565b6000604051905090565b600080fd5b600080fd5b600073ffffffffffffffffffffffffffffffffffffffff82169050919050565b6000611309826112de565b9050919050565b611319816112fe565b811461132457600080fd5b50565b60008135905061133681611310565b92915050565b60008115159050919050565b6113518161133c565b811461135c57600080fd5b50565b60008135905061136e81611348565b92915050565b6000806040838503121561138b5761138a6112d4565b5b600061139985828601611327565b92505060206113aa8582860161135f565b9150509250929050565b6000819050919050565b6113c7816113b4565b82525050565b60006020820190506113e260008301846113be565b92915050565b6113f1816112fe565b82525050565b600060208201905061140c60008301846113e8565b92915050565b600081519050919050565b600082825260208201905092915050565b6000819050602082019050919050565b600081519050919050565b600082825260208201905092915050565b60005b8381101561147857808201518184015260208101905061145d565b60008484015250505050565b6000601f19601f8301169050919050565b60006114a08261143e565b6114aa8185611449565b93506114ba81856020860161145a565b6114c381611484565b840191505092915050565b6114d7816113b4565b82525050565b600060808301600083015184820360008601526114fa8282611495565b915050602083015184820360208601526115148282611495565b9150506040830151848203604086015261152e8282611495565b915050606083015161154360608601826114ce565b508091505092915050565b600061155a83836114dd565b905092915050565b6000602082019050919050565b600061157a82611412565b611584818561141d565b9350836020820285016115968561142e565b8060005b858110156115d257848403895281516115b3858261154e565b94506115be83611562565b925060208a0199505060018101905061159a565b50829750879550505050505092915050565b600060208201905081810360008301526115fe818461156f565b905092915050565b61160f816112fe565b82525050565b6000819050919050565b61162881611615565b82525050565b6116378161133c565b82525050565b60a0820160008201516116536000850182611606565b506020820151611666602085018261161f565b506040820151611679604085018261162e565b50606082015161168c606085018261162e565b50608082015161169f608085018261162e565b50505050565b600060a0820190506116ba600083018461163d565b92915050565b600080fd5b600080fd5b7f4e487b7100000000000000000000000000000000000000000000000000000000600052604160045260246000fd5b61170282611484565b810181811067ffffffffffffffff82111715611721576117206116ca565b5b80604052505050565b60006117346112ca565b905061174082826116f9565b919050565b600067ffffffffffffffff8211156117605761175f6116ca565b5b61176982611484565b9050602081019050919050565b82818337600083830152505050565b600061179861179384611745565b61172a565b9050828152602081018484840111156117b4576117b36116c5565b5b6117bf848285611776565b509392505050565b600082601f8301126117dc576117db6116c0565b5b81356117ec848260208601611785565b91505092915050565b6000806040838503121561180c5761180b6112d4565b5b600083013567ffffffffffffffff81111561182a576118296112d9565b5b611836858286016117c7565b925050602083013567ffffffffffffffff811115611857576118566112d9565b5b611863858286016117c7565b9150509250929050565b611876816113b4565b811461188157600080fd5b50565b6000813590506118938161186d565b92915050565b6000602082840312156118af576118ae6112d4565b5b60006118bd84828501611884565b91505092915050565b600080fd5b600080fd5b60008083601f8401126118e6576118e56116c0565b5b8235905067ffffffffffffffff811115611903576119026118c6565b5b60208301915083600182028301111561191f5761191e6118cb565b5b9250929050565b6000806000806000806000806080898b031215611946576119456112d4565b5b600089013567ffffffffffffffff811115611964576119636112d9565b5b6119708b828c016118d0565b9850985050602089013567ffffffffffffffff811115611993576119926112d9565b5b61199f8b828c016118d0565b9650965050604089013567ffffffffffffffff8111156119c2576119c16112d9565b5b6119ce8b828c016118d0565b9450945050606089013567ffffffffffffffff8111156119f1576119f06112d9565b5b6119fd8b828c016118d0565b92509250509295985092959890939650565b60008060008060008060608789031215611a2c57611a2b6112d4565b5b600087013567ffffffffffffffff811115611a4a57611a496112d9565b5b611a5689828a016118d0565b9650965050602087013567ffffffffffffffff811115611a7957611a786112d9565b5b611a8589828a016118d0565b9450945050604087013567ffffffffffffffff811115611aa857611aa76112d9565b5b611ab489828a016118d0565b92509250509295509295509295565b60006080830160008301518482036000860152611ae08282611495565b91505060208301518482036020860152611afa8282611495565b91505060408301518482036040860152611b148282611495565b91505060608301518482036060860152611b2e8282611495565b9150508091505092915050565b60006020820190508181036000830152611b558184611ac3565b905092915050565b7f4e487b7100000000000000000000000000000000000000000000000000000000600052602260045260246000fd5b60006002820490506001821680611ba457607f821691505b602082108103611bb757611bb6611b5d565b5b50919050565b600081905092915050565b6000611bd38261143e565b611bdd8185611bbd565b9350611bed81856020860161145a565b80840191505092915050565b60008160601b9050919050565b6000611c1182611bf9565b9050919050565b6000611c2382611c06565b9050919050565b611c3b611c36826112fe565b611c18565b82525050565b6000611c4d8286611bc8565b9150611c598285611bc8565b9150611c658284611c2a565b601482019150819050949350505050565b600082825260208201905092915050565b6000611c928261143e565b611c9c8185611c76565b9350611cac81856020860161145a565b611cb581611484565b840191505092915050565b60006040820190508181036000830152611cda8185611c87565b90508181036020830152611cee8184611c87565b90509392505050565b60008190508160005260206000209050919050565b60006020601f8301049050919050565b600082821b905092915050565b600060088302611d597fffffffffffffffffffffffffffffffffffffffffffffffffffffffffffffffff82611d1c565b611d638683611d1c565b95508019841693508086168417925050509392505050565b6000819050919050565b6000611da0611d9b611d96846113b4565b611d7b565b6113b4565b9050919050565b6000819050919050565b611dba83611d85565b611dce611dc682611da7565b848454611d29565b825550505050565b600090565b611de3611dd6565b611dee818484611db1565b505050565b5b81811015611e1257611e07600082611ddb565b600181019050611df4565b5050565b601f821115611e5757611e2881611cf7565b611e3184611d0c565b81016020851015611e40578190505b611e54611e4c85611d0c565b830182611df3565b50505b505050565b600082821c905092915050565b6000611e7a60001984600802611e5c565b1980831691505092915050565b6000611e938383611e69565b9150826002028217905092915050565b611eac8261143e565b67ffffffffffffffff811115611ec557611ec46116ca565b5b611ecf8254611b8c565b611eda828285611e16565b600060209050601f831160018114611f0d5760008415611efb578287015190505b611f058582611e87565b865550611f6d565b601f198416611f1b86611cf7565b60005b82811015611f4357848901518255600182019150602085019450602081019050611f1e565b86831015611f605784890151611f5c601f891682611e69565b8355505b6001600288020188555050505b505050505050565b6000611f818385611bbd565b9350611f8e838584611776565b82840190509392505050565b6000611fa7828486611f75565b91508190509392505050565b6000611fbf8385611c76565b9350611fcc838584611776565b611fd583611484565b840190509392505050565b60006040820190508181036000830152611ffb818688611fb3565b90508181036020830152612010818486611fb3565b905095945050505050565b7f4e487b7100000000000000000000000000000000000000000000000000000000600052601160045260246000fd5b6000612055826113b4565b91507fffffffffffffffffffffffffffffffffffffffffffffffffffffffffffffffff82036120875761208661201b565b5b600182019050919050565b600061209d826113b4565b9150600082036120b0576120af61201b565b5b600182039050919050565b6120c481611615565b82525050565b60006020820190506120df60008301846120bb565b9291505056fea2646970667358221220adf1145035d4319140d9ccad4884aa20bb996742c07b61ebaa216794fc4765d964736f6c63430008120033",
  "linkReferences": {},
  "deployedLinkReferences": {}
}