{
  "_format": "hh-sol-artifact-1",
  "contractName": "Election",
  "sourceName": "contracts/Election.sol",
  "abi": [
    {
      "inputs": [],
      "stateMutability": "nonpayable",
      "type": "constructor"
    },
    {
      "inputs": [],
      "name": "Election_NotAdmin",
      "type": "error"
    },
    {
      "inputs": [],
      "name": "Election_VoterNotVerified",
      "type": "error"
    },
    {
      "anonymous": false,
      "inputs": [
        {
          "indexed": true,
          "internalType": "string",
          "name": "name",
          "type": "string"
        },
        {
          "indexed": false,
          "internalType": "string",
          "name": "partyName",
          "type": "string"
        },
        {
          "indexed": false,
          "internalType": "string",
          "name": "slogan",
          "type": "string"
        }
      ],
      "name": "CandidateAdded",
      "type": "event"
    },
    {
      "anonymous": false,
      "inputs": [
        {
          "indexed": true,
          "internalType": "address",
          "name": "voter",
          "type": "address"
        },
        {
          "indexed": false,
          "internalType": "string",
          "name": "data",
          "type": "string"
        },
        {
          "indexed": false,
          "internalType": "string",
          "name": "phoneNo",
          "type": "string"
        }
      ],
      "name": "VoterRegistered",
      "type": "event"
    },
    {
      "anonymous": false,
      "inputs": [
        {
          "indexed": true,
          "internalType": "string",
          "name": "adminName",
          "type": "string"
        },
        {
          "indexed": true,
          "internalType": "string",
          "name": "electionTitle",
          "type": "string"
        },
        {
          "indexed": false,
          "internalType": "string",
          "name": "adminPosition",
          "type": "string"
        },
        {
          "indexed": false,
          "internalType": "string",
          "name": "organizationTitle",
          "type": "string"
        }
      ],
      "name": "electionAdded",
      "type": "event"
    },
    {
      "inputs": [
        {
          "internalType": "uint256",
          "name": "_candidateId",
          "type": "uint256"
        }
      ],
      "name": "Vote",
      "outputs": [],
      "stateMutability": "nonpayable",
      "type": "function"
    },
    {
      "inputs": [
        {
          "internalType": "string",
          "name": "_name",
          "type": "string"
        },
        {
          "internalType": "string",
          "name": "_partyName",
          "type": "string"
        },
        {
          "internalType": "string",
          "name": "_slogan",
          "type": "string"
        }
      ],
      "name": "addCandidate",
      "outputs": [],
      "stateMutability": "nonpayable",
      "type": "function"
    },
    {
      "inputs": [],
      "name": "getAdmin",
      "outputs": [
        {
          "internalType": "address",
          "name": "",
          "type": "address"
        }
      ],
      "stateMutability": "view",
      "type": "function"
    },
    {
      "inputs": [],
      "name": "getCandidate",
      "outputs": [
        {
          "components": [
            {
              "internalType": "string",
              "name": "name",
              "type": "string"
            },
            {
              "internalType": "string",
              "name": "partyName",
              "type": "string"
            },
            {
              "internalType": "string",
              "name": "slogan",
              "type": "string"
            },
            {
              "internalType": "uint256",
              "name": "votes",
              "type": "uint256"
            }
          ],
          "internalType": "struct Election.Candidate[]",
          "name": "",
          "type": "tuple[]"
        }
      ],
      "stateMutability": "view",
      "type": "function"
    },
    {
      "inputs": [],
      "name": "getCandidateCount",
      "outputs": [
        {
          "internalType": "uint256",
          "name": "",
          "type": "uint256"
        }
      ],
      "stateMutability": "view",
      "type": "function"
    },
    {
      "inputs": [
        {
          "internalType": "uint256",
          "name": "_candidateID",
          "type": "uint256"
        }
      ],
      "name": "getCandidateDetails",
      "outputs": [
        {
          "components": [
            {
              "internalType": "string",
              "name": "name",
              "type": "string"
            },
            {
              "internalType": "string",
              "name": "partyName",
              "type": "string"
            },
            {
              "internalType": "string",
              "name": "slogan",
              "type": "string"
            },
            {
              "internalType": "uint256",
              "name": "votes",
              "type": "uint256"
            }
          ],
          "internalType": "struct Election.Candidate",
          "name": "",
          "type": "tuple"
        }
      ],
      "stateMutability": "view",
      "type": "function"
    },
    {
      "inputs": [],
      "name": "getElectionDetails",
      "outputs": [
        {
          "components": [
            {
              "internalType": "string",
              "name": "adminName",
              "type": "string"
            },
            {
              "internalType": "string",
              "name": "adminPosition",
              "type": "string"
            },
            {
              "internalType": "string",
              "name": "electionTitle",
              "type": "string"
            },
            {
              "internalType": "string",
              "name": "organizationTitle",
              "type": "string"
            }
          ],
          "internalType": "struct Election.ElectionDetails",
          "name": "",
          "type": "tuple"
        }
      ],
      "stateMutability": "view",
      "type": "function"
    },
    {
      "inputs": [],
      "name": "getEndTime",
      "outputs": [
        {
          "internalType": "uint256",
          "name": "",
          "type": "uint256"
        }
      ],
      "stateMutability": "view",
      "type": "function"
    },
    {
      "inputs": [],
      "name": "getStartTime",
      "outputs": [
        {
          "internalType": "uint256",
          "name": "",
          "type": "uint256"
        }
      ],
      "stateMutability": "view",
      "type": "function"
    },
    {
      "inputs": [
        {
          "internalType": "address",
          "name": "_voter",
          "type": "address"
        }
      ],
      "name": "getVoterDetails",
      "outputs": [
        {
          "components": [
            {
              "internalType": "address",
              "name": "voter",
              "type": "address"
            },
            {
              "internalType": "bytes32",
              "name": "dataHash",
              "type": "bytes32"
            },
            {
              "internalType": "bool",
              "name": "isRegistered",
              "type": "bool"
            },
            {
              "internalType": "bool",
              "name": "isVerified",
              "type": "bool"
            },
            {
              "internalType": "bool",
              "name": "hasVoted",
              "type": "bool"
            }
          ],
          "internalType": "struct Election.Voter",
          "name": "",
          "type": "tuple"
        }
      ],
      "stateMutability": "view",
      "type": "function"
    },
    {
      "inputs": [],
      "name": "initiateElection",
      "outputs": [],
      "stateMutability": "nonpayable",
      "type": "function"
    },
    {
      "inputs": [
        {
          "internalType": "string",
          "name": "_aadhar",
          "type": "string"
        },
        {
          "internalType": "string",
          "name": "_phoneNo",
          "type": "string"
        }
      ],
      "name": "registerVoter",
      "outputs": [],
      "stateMutability": "nonpayable",
      "type": "function"
    },
    {
      "inputs": [
        {
          "internalType": "string",
          "name": "_adminName",
          "type": "string"
        },
        {
          "internalType": "string",
          "name": "_adminPosition",
          "type": "string"
        },
        {
          "internalType": "string",
          "name": "_electionTitle",
          "type": "string"
        },
        {
          "internalType": "string",
          "name": "_organizationTitle",
          "type": "string"
        }
      ],
      "name": "setElectionDetails",
      "outputs": [],
      "stateMutability": "nonpayable",
      "type": "function"
    },
    {
      "inputs": [
        {
          "internalType": "address",
          "name": "_voter",
          "type": "address"
        },
        {
          "internalType": "bool",
          "name": "_hasVerified",
          "type": "bool"
        }
      ],
      "name": "verifyVoter",
      "outputs": [],
      "stateMutability": "nonpayable",
      "type": "function"
    }
  ],
  "bytecode": "0x60a06040523480156200001157600080fd5b506200002e67e159ba302efd1b2160c01b620000a860201b60201c565b6200004a679e0beed7afa616da60c01b620000a860201b60201c565b3373ffffffffffffffffffffffffffffffffffffffff1660808173ffffffffffffffffffffffffffffffffffffffff16815250506200009a67b6706e418233b6e860c01b620000a860201b60201c565b6001600081905550620000ab565b50565b608051612b8d620000e3600039600081816102eb0152818161055a0152818161099d01528181610ead015261123b0152612b8d6000f3fe608060405234801561001057600080fd5b50600436106100ea5760003560e01c80638a4c88471161008c578063ba71bef011610066578063ba71bef014610211578063c828371e14610241578063dcd6a5cd1461025f578063ed836bc31461027b576100ea565b80638a4c8847146101bd578063a8e546f2146101d9578063ad71f8dc146101f5576100ea565b806330a56347116100c857806330a5634714610145578063439f5ac2146101635780636e9960c31461018157806370218b851461019f576100ea565b806302c9846d146100ef5780630ff9e2591461010b57806327f9fd5014610115575b600080fd5b61010960048036038101906101049190611e73565b610299565b005b610113610508565b005b61012f600480360381019061012a9190611ee9565b610699565b60405161013c9190612026565b60405180910390f35b61014d6108d1565b60405161015a9190612057565b60405180910390f35b61016b610917565b6040516101789190612057565b60405180910390f35b61018961095d565b6040516101969190612081565b60405180910390f35b6101a76109c1565b6040516101b491906121cf565b60405180910390f35b6101d760048036038101906101d29190612256565b610c1c565b005b6101f360048036038101906101ee91906122d7565b610e5b565b005b61020f600480360381019061020a91906123c0565b6111e9565b005b61022b60048036038101906102269190612474565b611575565b6040516102389190612540565b60405180910390f35b6102496116bb565b6040516102569190612057565b60405180910390f35b61027960048036038101906102749190611ee9565b611701565b005b610283611a94565b60405161029091906125d3565b60405180910390f35b6102ad672087812b55da48e260c01b611d32565b6102c167a2a5ab69d11e201960c01b611d32565b6102d56774d3ef02d07bfd8960c01b611d32565b6102e967e606edcadb29a7b160c01b611d32565b7f000000000000000000000000000000000000000000000000000000000000000073ffffffffffffffffffffffffffffffffffffffff163373ffffffffffffffffffffffffffffffffffffffff1614610396576103506740bb2daf1abcb2cc60c01b611d32565b610364674d23bbb271410a4160c01b611d32565b6040517f921ba71100000000000000000000000000000000000000000000000000000000815260040160405180910390fd5b6103aa6715562c79e3e45a4b60c01b611d32565b6103be67e1a0bad1bf961d8e60c01b611d32565b6103d2671e32a80e365f7dca60c01b611d32565b6103e6679ecaa547f7311a3e60c01b611d32565b6103fa672e688045904185be60c01b611d32565b61040e676b7b27a7839b5ea260c01b611d32565b610422674cae6a2e400376df60c01b611d32565b60011515600960008473ffffffffffffffffffffffffffffffffffffffff1673ffffffffffffffffffffffffffffffffffffffff16815260200190815260200160002060020160019054906101000a900460ff1615150361048257600080fd5b6104966760ab78c1341ad0a560c01b611d32565b6104aa67956c1221b3e98cf460c01b611d32565b80600960008473ffffffffffffffffffffffffffffffffffffffff1673ffffffffffffffffffffffffffffffffffffffff16815260200190815260200160002060020160016101000a81548160ff0219169083151502179055505050565b61051c67fe0591aa3374d47a60c01b611d32565b61053067a2a5ab69d11e201960c01b611d32565b6105446774d3ef02d07bfd8960c01b611d32565b61055867e606edcadb29a7b160c01b611d32565b7f000000000000000000000000000000000000000000000000000000000000000073ffffffffffffffffffffffffffffffffffffffff163373ffffffffffffffffffffffffffffffffffffffff1614610605576105bf6740bb2daf1abcb2cc60c01b611d32565b6105d3674d23bbb271410a4160c01b611d32565b6040517f921ba71100000000000000000000000000000000000000000000000000000000815260040160405180910390fd5b6106196715562c79e3e45a4b60c01b611d32565b61062d67e1a0bad1bf961d8e60c01b611d32565b61064167f3f78c07b43b672d60c01b611d32565b61065567df0a680c3b38d4fe60c01b611d32565b6106696729a12030bccf807060c01b611d32565b42600181905550610684671dc980d32c32af9760c01b611d32565b603c426106919190612624565b600281905550565b6106a1611d35565b6106b567808f037f292c970d60c01b611d32565b6106c96752487fc6670d2b7c60c01b611d32565b6106dd67463cc227c85f8e5760c01b611d32565b600882815481106106f1576106f0612658565b5b906000526020600020906004020160405180608001604052908160008201805461071a906126b6565b80601f0160208091040260200160405190810160405280929190818152602001828054610746906126b6565b80156107935780601f1061076857610100808354040283529160200191610793565b820191906000526020600020905b81548152906001019060200180831161077657829003601f168201915b505050505081526020016001820180546107ac906126b6565b80601f01602080910402602001604051908101604052809291908181526020018280546107d8906126b6565b80156108255780601f106107fa57610100808354040283529160200191610825565b820191906000526020600020905b81548152906001019060200180831161080857829003601f168201915b5050505050815260200160028201805461083e906126b6565b80601f016020809104026020016040519081016040528092919081815260200182805461086a906126b6565b80156108b75780601f1061088c576101008083540402835291602001916108b7565b820191906000526020600020905b81548152906001019060200180831161089a57829003601f168201915b505050505081526020016003820154815250509050919050565b60006108e767e80f143fd4e508b160c01b611d32565b6108fb6798ac73b7b8d7dc8f60c01b611d32565b61090f6766e3c395d884c1c160c01b611d32565b600054905090565b600061092d6732cc0b75c756d0ab60c01b611d32565b610941677ad8f8615ab0071760c01b611d32565b6109556798f410ec4fd34f0460c01b611d32565b600254905090565b6000610973676e5afcf60ebe55e560c01b611d32565b610987677fa0c3a810ced16260c01b611d32565b61099b67470c099ffcb8038460c01b611d32565b7f0000000000000000000000000000000000000000000000000000000000000000905090565b60606109d767aa5a83e5aa8db4e260c01b611d32565b6109eb67dc6eeb837dd498a660c01b611d32565b6109ff677a2a1b5667981f0660c01b611d32565b6008805480602002602001604051908101604052809291908181526020016000905b82821015610c135783829060005260206000209060040201604051806080016040529081600082018054610a54906126b6565b80601f0160208091040260200160405190810160405280929190818152602001828054610a80906126b6565b8015610acd5780601f10610aa257610100808354040283529160200191610acd565b820191906000526020600020905b815481529060010190602001808311610ab057829003601f168201915b50505050508152602001600182018054610ae6906126b6565b80601f0160208091040260200160405190810160405280929190818152602001828054610b12906126b6565b8015610b5f5780601f10610b3457610100808354040283529160200191610b5f565b820191906000526020600020905b815481529060010190602001808311610b4257829003601f168201915b50505050508152602001600282018054610b78906126b6565b80601f0160208091040260200160405190810160405280929190818152602001828054610ba4906126b6565b8015610bf15780601f10610bc657610100808354040283529160200191610bf1565b820191906000526020600020905b815481529060010190602001808311610bd457829003601f168201915b5050505050815260200160038201548152505081526020019060010190610a21565b50505050905090565b610c3067203c5d841fb12c5360c01b611d32565b610c4467cf4c1a4506dd4b5560c01b611d32565b610c586742208222e9498c0360c01b611d32565b60008484848433604051602001610c7395949392919061276e565b604051602081830303815290604052805190602001209050610c9f67b37c849bb620b8eb60c01b611d32565b6040518060a001604052803373ffffffffffffffffffffffffffffffffffffffff16815260200182815260200160011515815260200160001515815260200160001515815250600960003373ffffffffffffffffffffffffffffffffffffffff1673ffffffffffffffffffffffffffffffffffffffff16815260200190815260200160002060008201518160000160006101000a81548173ffffffffffffffffffffffffffffffffffffffff021916908373ffffffffffffffffffffffffffffffffffffffff1602179055506020820151816001015560408201518160020160006101000a81548160ff02191690831515021790555060608201518160020160016101000a81548160ff02191690831515021790555060808201518160020160026101000a81548160ff021916908315150217905550905050610dec67fd5819c03b11e48360c01b611d32565b610e0067b176cd226ec8233860c01b611d32565b3373ffffffffffffffffffffffffffffffffffffffff167f96ac7a421360a2bd773d747b2f64b40a916821c4906dbfdebf787c292e741f7d86868686604051610e4c94939291906127e5565b60405180910390a25050505050565b610e6f679d5800ea01edabbc60c01b611d32565b610e8367a2a5ab69d11e201960c01b611d32565b610e976774d3ef02d07bfd8960c01b611d32565b610eab67e606edcadb29a7b160c01b611d32565b7f000000000000000000000000000000000000000000000000000000000000000073ffffffffffffffffffffffffffffffffffffffff163373ffffffffffffffffffffffffffffffffffffffff1614610f5857610f126740bb2daf1abcb2cc60c01b611d32565b610f26674d23bbb271410a4160c01b611d32565b6040517f921ba71100000000000000000000000000000000000000000000000000000000815260040160405180910390fd5b610f6c6715562c79e3e45a4b60c01b611d32565b610f8067e1a0bad1bf961d8e60c01b611d32565b610f9467ba3cab7b16e1fced60c01b611d32565b610fa86744f589d1594ed72f60c01b611d32565b610fbc67b69f536784e87b4860c01b611d32565b604051806080016040528089898080601f016020809104026020016040519081016040528093929190818152602001838380828437600081840152601f19601f82011690508083019250505050505050815260200187878080601f016020809104026020016040519081016040528093929190818152602001838380828437600081840152601f19601f82011690508083019250505050505050815260200185858080601f016020809104026020016040519081016040528093929190818152602001838380828437600081840152601f19601f82011690508083019250505050505050815260200183838080601f016020809104026020016040519081016040528093929190818152602001838380828437600081840152601f19601f820116905080830192505050505050508152506003600082015181600001908161110491906129fb565b50602082015181600101908161111a91906129fb565b50604082015181600201908161113091906129fb565b50606082015181600301908161114691906129fb565b5090505061115e67e912bdac51f1949860c01b611d32565b611172671a020a4676be366960c01b611d32565b8585604051611182929190612acd565b6040518091039020888860405161119a929190612acd565b60405180910390207f7c935ef8ac1ff13d70515c002e0f97e28f0e6bf078fc5a48ef58c6f71033b995868686866040516111d794939291906127e5565b60405180910390a35050505050505050565b6111fd672d50dfb2d1eea1c760c01b611d32565b61121167a2a5ab69d11e201960c01b611d32565b6112256774d3ef02d07bfd8960c01b611d32565b61123967e606edcadb29a7b160c01b611d32565b7f000000000000000000000000000000000000000000000000000000000000000073ffffffffffffffffffffffffffffffffffffffff163373ffffffffffffffffffffffffffffffffffffffff16146112e6576112a06740bb2daf1abcb2cc60c01b611d32565b6112b4674d23bbb271410a4160c01b611d32565b6040517f921ba71100000000000000000000000000000000000000000000000000000000815260040160405180910390fd5b6112fa6715562c79e3e45a4b60c01b611d32565b61130e67e1a0bad1bf961d8e60c01b611d32565b6113226730f85941fb5e487260c01b611d32565b61133667bb21b2bbde59cf6a60c01b611d32565b61134a67f161773016f1157660c01b611d32565b61135e67ffcd01439abbc38360c01b611d32565b6008604051806080016040528088888080601f016020809104026020016040519081016040528093929190818152602001838380828437600081840152601f19601f82011690508083019250505050505050815260200186868080601f016020809104026020016040519081016040528093929190818152602001838380828437600081840152601f19601f82011690508083019250505050505050815260200184848080601f016020809104026020016040519081016040528093929190818152602001838380828437600081840152601f19601f82011690508083019250505050505050815260200160008152509080600181540180825580915050600190039060005260206000209060040201600090919091909150600082015181600001908161148c91906129fb565b5060208201518160010190816114a291906129fb565b5060408201518160020190816114b891906129fb565b506060820151816003015550506114d967e7819b6775d4b9e060c01b611d32565b6000808154809291906114eb90612ae6565b919050555061150467c978731677cbc23560c01b611d32565b611518673b2e0d547c63d37f60c01b611d32565b8585604051611528929190612acd565b60405180910390207fa620e116e8168f7281127a47ac04518b6fbd8b07cd150397e6e3e56127ce48cf8585858560405161156594939291906127e5565b60405180910390a2505050505050565b61157d611d5d565b61159167458941de53471f2460c01b611d32565b6115a56774a2d2b1e0be815f60c01b611d32565b6115b967927558d7ab0f2d8660c01b611d32565b600960008373ffffffffffffffffffffffffffffffffffffffff1673ffffffffffffffffffffffffffffffffffffffff1681526020019081526020016000206040518060a00160405290816000820160009054906101000a900473ffffffffffffffffffffffffffffffffffffffff1673ffffffffffffffffffffffffffffffffffffffff1673ffffffffffffffffffffffffffffffffffffffff168152602001600182015481526020016002820160009054906101000a900460ff161515151581526020016002820160019054906101000a900460ff161515151581526020016002820160029054906101000a900460ff1615151515815250509050919050565b60006116d1676be99df318a098d760c01b611d32565b6116e567ea6717a27cb72f2a60c01b611d32565b6116f9672df913a30d3330e960c01b611d32565b600154905090565b61171567e493c3ed4de0b56a60c01b611d32565b6117296743442d309677be5160c01b611d32565b61173d67de06dc7f4fb0369460c01b611d32565b600960003373ffffffffffffffffffffffffffffffffffffffff1673ffffffffffffffffffffffffffffffffffffffff16815260200190815260200160002060020160019054906101000a900460ff166117eb576117a567a78d4dc79ef4f12760c01b611d32565b6117b9670189f333ba624f5860c01b611d32565b6040517f9cf5120e00000000000000000000000000000000000000000000000000000000815260040160405180910390fd5b6117ff67efc82164f71efb7860c01b611d32565b61181367fb4d12ac3247b8ee60c01b611d32565b61182767a7612d5a9eb3e06860c01b611d32565b600960003373ffffffffffffffffffffffffffffffffffffffff1673ffffffffffffffffffffffffffffffffffffffff16815260200190815260200160002060020160029054906101000a900460ff16156119515761189067495ec6727ab2a90460c01b611d32565b6118a467a42d23fa22a6a4de60c01b611d32565b6118b8678ccd4d7339d6d8f160c01b611d32565b6000600b60003373ffffffffffffffffffffffffffffffffffffffff1673ffffffffffffffffffffffffffffffffffffffff1681526020019081526020016000205490506119106758eafeb788fa2c6560c01b611d32565b6008818154811061192457611923612658565b5b9060005260206000209060040201600301600081548092919061194690612b2e565b919050555050611966565b61196567fc6b4360c4a4096a60c01b611d32565b5b61197a676102725ce8e9b11560c01b611d32565b61198e67e7200450f9a3f90460c01b611d32565b6119a2677225829d1ea5733760c01b611d32565b60015442101580156119b657506002544211155b6119bf57600080fd5b6119d367cabbeb7285d59f0160c01b611d32565b6119e767b9f99b03deed53fd60c01b611d32565b600881815481106119fb576119fa612658565b5b90600052602060002090600402016003016000815480929190611a1d90612ae6565b9190505550611a3667cdd3a1e1dc7a313a60c01b611d32565b6001600960003373ffffffffffffffffffffffffffffffffffffffff1673ffffffffffffffffffffffffffffffffffffffff16815260200190815260200160002060020160026101000a81548160ff02191690831515021790555050565b611a9c611dab565b611ab067495309ced49570bc60c01b611d32565b611ac46716c7006093e559e960c01b611d32565b611ad86761880fc4d23dc5cc60c01b611d32565b6003604051806080016040529081600082018054611af5906126b6565b80601f0160208091040260200160405190810160405280929190818152602001828054611b21906126b6565b8015611b6e5780601f10611b4357610100808354040283529160200191611b6e565b820191906000526020600020905b815481529060010190602001808311611b5157829003601f168201915b50505050508152602001600182018054611b87906126b6565b80601f0160208091040260200160405190810160405280929190818152602001828054611bb3906126b6565b8015611c005780601f10611bd557610100808354040283529160200191611c00565b820191906000526020600020905b815481529060010190602001808311611be357829003601f168201915b50505050508152602001600282018054611c19906126b6565b80601f0160208091040260200160405190810160405280929190818152602001828054611c45906126b6565b8015611c925780601f10611c6757610100808354040283529160200191611c92565b820191906000526020600020905b815481529060010190602001808311611c7557829003601f168201915b50505050508152602001600382018054611cab906126b6565b80601f0160208091040260200160405190810160405280929190818152602001828054611cd7906126b6565b8015611d245780601f10611cf957610100808354040283529160200191611d24565b820191906000526020600020905b815481529060010190602001808311611d0757829003601f168201915b505050505081525050905090565b50565b6040518060800160405280606081526020016060815260200160608152602001600081525090565b6040518060a00160405280600073ffffffffffffffffffffffffffffffffffffffff168152602001600080191681526020016000151581526020016000151581526020016000151581525090565b6040518060800160405280606081526020016060815260200160608152602001606081525090565b600080fd5b600080fd5b600073ffffffffffffffffffffffffffffffffffffffff82169050919050565b6000611e0882611ddd565b9050919050565b611e1881611dfd565b8114611e2357600080fd5b50565b600081359050611e3581611e0f565b92915050565b60008115159050919050565b611e5081611e3b565b8114611e5b57600080fd5b50565b600081359050611e6d81611e47565b92915050565b60008060408385031215611e8a57611e89611dd3565b5b6000611e9885828601611e26565b9250506020611ea985828601611e5e565b9150509250929050565b6000819050919050565b611ec681611eb3565b8114611ed157600080fd5b50565b600081359050611ee381611ebd565b92915050565b600060208284031215611eff57611efe611dd3565b5b6000611f0d84828501611ed4565b91505092915050565b600081519050919050565b600082825260208201905092915050565b60005b83811015611f50578082015181840152602081019050611f35565b60008484015250505050565b6000601f19601f8301169050919050565b6000611f7882611f16565b611f828185611f21565b9350611f92818560208601611f32565b611f9b81611f5c565b840191505092915050565b611faf81611eb3565b82525050565b60006080830160008301518482036000860152611fd28282611f6d565b91505060208301518482036020860152611fec8282611f6d565b915050604083015184820360408601526120068282611f6d565b915050606083015161201b6060860182611fa6565b508091505092915050565b600060208201905081810360008301526120408184611fb5565b905092915050565b61205181611eb3565b82525050565b600060208201905061206c6000830184612048565b92915050565b61207b81611dfd565b82525050565b60006020820190506120966000830184612072565b92915050565b600081519050919050565b600082825260208201905092915050565b6000819050602082019050919050565b600060808301600083015184820360008601526120e58282611f6d565b915050602083015184820360208601526120ff8282611f6d565b915050604083015184820360408601526121198282611f6d565b915050606083015161212e6060860182611fa6565b508091505092915050565b600061214583836120c8565b905092915050565b6000602082019050919050565b60006121658261209c565b61216f81856120a7565b935083602082028501612181856120b8565b8060005b858110156121bd578484038952815161219e8582612139565b94506121a98361214d565b925060208a01995050600181019050612185565b50829750879550505050505092915050565b600060208201905081810360008301526121e9818461215a565b905092915050565b600080fd5b600080fd5b600080fd5b60008083601f840112612216576122156121f1565b5b8235905067ffffffffffffffff811115612233576122326121f6565b5b60208301915083600182028301111561224f5761224e6121fb565b5b9250929050565b600080600080604085870312156122705761226f611dd3565b5b600085013567ffffffffffffffff81111561228e5761228d611dd8565b5b61229a87828801612200565b9450945050602085013567ffffffffffffffff8111156122bd576122bc611dd8565b5b6122c987828801612200565b925092505092959194509250565b6000806000806000806000806080898b0312156122f7576122f6611dd3565b5b600089013567ffffffffffffffff81111561231557612314611dd8565b5b6123218b828c01612200565b9850985050602089013567ffffffffffffffff81111561234457612343611dd8565b5b6123508b828c01612200565b9650965050604089013567ffffffffffffffff81111561237357612372611dd8565b5b61237f8b828c01612200565b9450945050606089013567ffffffffffffffff8111156123a2576123a1611dd8565b5b6123ae8b828c01612200565b92509250509295985092959890939650565b600080600080600080606087890312156123dd576123dc611dd3565b5b600087013567ffffffffffffffff8111156123fb576123fa611dd8565b5b61240789828a01612200565b9650965050602087013567ffffffffffffffff81111561242a57612429611dd8565b5b61243689828a01612200565b9450945050604087013567ffffffffffffffff81111561245957612458611dd8565b5b61246589828a01612200565b92509250509295509295509295565b60006020828403121561248a57612489611dd3565b5b600061249884828501611e26565b91505092915050565b6124aa81611dfd565b82525050565b6000819050919050565b6124c3816124b0565b82525050565b6124d281611e3b565b82525050565b60a0820160008201516124ee60008501826124a1565b50602082015161250160208501826124ba565b50604082015161251460408501826124c9565b50606082015161252760608501826124c9565b50608082015161253a60808501826124c9565b50505050565b600060a08201905061255560008301846124d8565b92915050565b600060808301600083015184820360008601526125788282611f6d565b915050602083015184820360208601526125928282611f6d565b915050604083015184820360408601526125ac8282611f6d565b915050606083015184820360608601526125c68282611f6d565b9150508091505092915050565b600060208201905081810360008301526125ed818461255b565b905092915050565b7f4e487b7100000000000000000000000000000000000000000000000000000000600052601160045260246000fd5b600061262f82611eb3565b915061263a83611eb3565b9250828201905080821115612652576126516125f5565b5b92915050565b7f4e487b7100000000000000000000000000000000000000000000000000000000600052603260045260246000fd5b7f4e487b7100000000000000000000000000000000000000000000000000000000600052602260045260246000fd5b600060028204905060018216806126ce57607f821691505b6020821081036126e1576126e0612687565b5b50919050565b600081905092915050565b82818337600083830152505050565b600061270d83856126e7565b935061271a8385846126f2565b82840190509392505050565b60008160601b9050919050565b600061273e82612726565b9050919050565b600061275082612733565b9050919050565b61276861276382611dfd565b612745565b82525050565b600061277b828789612701565b9150612788828587612701565b91506127948284612757565b6014820191508190509695505050505050565b600082825260208201905092915050565b60006127c483856127a7565b93506127d18385846126f2565b6127da83611f5c565b840190509392505050565b600060408201905081810360008301526128008186886127b8565b905081810360208301526128158184866127b8565b905095945050505050565b7f4e487b7100000000000000000000000000000000000000000000000000000000600052604160045260246000fd5b60008190508160005260206000209050919050565b60006020601f8301049050919050565b600082821b905092915050565b6000600883026128b17fffffffffffffffffffffffffffffffffffffffffffffffffffffffffffffffff82612874565b6128bb8683612874565b95508019841693508086168417925050509392505050565b6000819050919050565b60006128f86128f36128ee84611eb3565b6128d3565b611eb3565b9050919050565b6000819050919050565b612912836128dd565b61292661291e826128ff565b848454612881565b825550505050565b600090565b61293b61292e565b612946818484612909565b505050565b5b8181101561296a5761295f600082612933565b60018101905061294c565b5050565b601f8211156129af576129808161284f565b61298984612864565b81016020851015612998578190505b6129ac6129a485612864565b83018261294b565b50505b505050565b600082821c905092915050565b60006129d2600019846008026129b4565b1980831691505092915050565b60006129eb83836129c1565b9150826002028217905092915050565b612a0482611f16565b67ffffffffffffffff811115612a1d57612a1c612820565b5b612a2782546126b6565b612a3282828561296e565b600060209050601f831160018114612a655760008415612a53578287015190505b612a5d85826129df565b865550612ac5565b601f198416612a738661284f565b60005b82811015612a9b57848901518255600182019150602085019450602081019050612a76565b86831015612ab85784890151612ab4601f8916826129c1565b8355505b6001600288020188555050505b505050505050565b6000612ada828486612701565b91508190509392505050565b6000612af182611eb3565b91507fffffffffffffffffffffffffffffffffffffffffffffffffffffffffffffffff8203612b2357612b226125f5565b5b600182019050919050565b6000612b3982611eb3565b915060008203612b4c57612b4b6125f5565b5b60018203905091905056fea2646970667358221220d3e6097119a85b66262296569ad50776c644e8677a0354ebd7f0fdae6796691564736f6c63430008120033",
  "linkReferences": {},
  "deployedLinkReferences": {}
}