{
  "_format": "hh-sol-artifact-1",
  "contractName": "Election",
  "sourceName": "contracts/Election.sol",
  "abi": [
    {
      "inputs": [
        {
          "internalType": "string",
          "name": "_adminName",
          "type": "string"
        },
        {
          "internalType": "string",
          "name": "_adminPosition",
          "type": "string"
        },
        {
          "internalType": "string",
          "name": "_aadhar",
          "type": "string"
        },
        {
          "internalType": "string",
          "name": "_phoneNo",
          "type": "string"
        },
        {
          "internalType": "string",
          "name": "_electionTitle",
          "type": "string"
        },
        {
          "internalType": "string",
          "name": "_organizationTitle",
          "type": "string"
        }
      ],
      "stateMutability": "nonpayable",
      "type": "constructor"
    },
    {
      "inputs": [],
      "name": "Election_NotAdmin",
      "type": "error"
    },
    {
      "inputs": [],
      "name": "Election_VoterNotVerified",
      "type": "error"
    },
    {
      "anonymous": false,
      "inputs": [
        {
          "indexed": true,
          "internalType": "string",
          "name": "name",
          "type": "string"
        },
        {
          "indexed": false,
          "internalType": "string",
          "name": "partyName",
          "type": "string"
        },
        {
          "indexed": false,
          "internalType": "string",
          "name": "slogan",
          "type": "string"
        }
      ],
      "name": "CandidateAdded",
      "type": "event"
    },
    {
      "anonymous": false,
      "inputs": [
        {
          "indexed": true,
          "internalType": "address",
          "name": "voter",
          "type": "address"
        },
        {
          "indexed": false,
          "internalType": "string",
          "name": "data",
          "type": "string"
        },
        {
          "indexed": false,
          "internalType": "string",
          "name": "phoneNo",
          "type": "string"
        }
      ],
      "name": "VoterRegistered",
      "type": "event"
    },
    {
      "anonymous": false,
      "inputs": [
        {
          "indexed": true,
          "internalType": "string",
          "name": "adminName",
          "type": "string"
        },
        {
          "indexed": true,
          "internalType": "string",
          "name": "electionTitle",
          "type": "string"
        },
        {
          "indexed": false,
          "internalType": "string",
          "name": "adminPosition",
          "type": "string"
        },
        {
          "indexed": false,
          "internalType": "string",
          "name": "organizationTitle",
          "type": "string"
        }
      ],
      "name": "electionCreated",
      "type": "event"
    },
    {
      "inputs": [
        {
          "internalType": "uint256",
          "name": "_candidateId",
          "type": "uint256"
        }
      ],
      "name": "Vote",
      "outputs": [],
      "stateMutability": "nonpayable",
      "type": "function"
    },
    {
      "inputs": [
        {
          "internalType": "string",
          "name": "_name",
          "type": "string"
        },
        {
          "internalType": "string",
          "name": "_partyName",
          "type": "string"
        },
        {
          "internalType": "string",
          "name": "_slogan",
          "type": "string"
        }
      ],
      "name": "addCandidate",
      "outputs": [],
      "stateMutability": "nonpayable",
      "type": "function"
    },
    {
      "inputs": [],
      "name": "getAdmin",
      "outputs": [
        {
          "internalType": "address",
          "name": "",
          "type": "address"
        }
      ],
      "stateMutability": "view",
      "type": "function"
    },
    {
      "inputs": [],
      "name": "getCandidate",
      "outputs": [
        {
          "components": [
            {
              "internalType": "string",
              "name": "name",
              "type": "string"
            },
            {
              "internalType": "string",
              "name": "partyName",
              "type": "string"
            },
            {
              "internalType": "string",
              "name": "slogan",
              "type": "string"
            },
            {
              "internalType": "uint256",
              "name": "votes",
              "type": "uint256"
            }
          ],
          "internalType": "struct Election.Candidate[]",
          "name": "",
          "type": "tuple[]"
        }
      ],
      "stateMutability": "view",
      "type": "function"
    },
    {
      "inputs": [],
      "name": "getCandidateCount",
      "outputs": [
        {
          "internalType": "uint256",
          "name": "",
          "type": "uint256"
        }
      ],
      "stateMutability": "view",
      "type": "function"
    },
    {
      "inputs": [
        {
          "internalType": "uint256",
          "name": "_candidateID",
          "type": "uint256"
        }
      ],
      "name": "getCandidateDetails",
      "outputs": [
        {
          "components": [
            {
              "internalType": "string",
              "name": "name",
              "type": "string"
            },
            {
              "internalType": "string",
              "name": "partyName",
              "type": "string"
            },
            {
              "internalType": "string",
              "name": "slogan",
              "type": "string"
            },
            {
              "internalType": "uint256",
              "name": "votes",
              "type": "uint256"
            }
          ],
          "internalType": "struct Election.Candidate",
          "name": "",
          "type": "tuple"
        }
      ],
      "stateMutability": "view",
      "type": "function"
    },
    {
      "inputs": [],
      "name": "getElectionDetails",
      "outputs": [
        {
          "components": [
            {
              "internalType": "string",
              "name": "adminName",
              "type": "string"
            },
            {
              "internalType": "string",
              "name": "adminPosition",
              "type": "string"
            },
            {
              "internalType": "string",
              "name": "electionTitle",
              "type": "string"
            },
            {
              "internalType": "string",
              "name": "organizationTitle",
              "type": "string"
            }
          ],
          "internalType": "struct Election.ElectionDetails",
          "name": "",
          "type": "tuple"
        }
      ],
      "stateMutability": "view",
      "type": "function"
    },
    {
      "inputs": [],
      "name": "getEndTime",
      "outputs": [
        {
          "internalType": "uint256",
          "name": "",
          "type": "uint256"
        }
      ],
      "stateMutability": "view",
      "type": "function"
    },
    {
      "inputs": [],
      "name": "getStartTime",
      "outputs": [
        {
          "internalType": "uint256",
          "name": "",
          "type": "uint256"
        }
      ],
      "stateMutability": "view",
      "type": "function"
    },
    {
      "inputs": [
        {
          "internalType": "address",
          "name": "_voter",
          "type": "address"
        }
      ],
      "name": "getVoterDetails",
      "outputs": [
        {
          "components": [
            {
              "internalType": "address",
              "name": "voter",
              "type": "address"
            },
            {
              "internalType": "bytes32",
              "name": "dataHash",
              "type": "bytes32"
            },
            {
              "internalType": "bool",
              "name": "isRegistered",
              "type": "bool"
            },
            {
              "internalType": "bool",
              "name": "isVerified",
              "type": "bool"
            },
            {
              "internalType": "bool",
              "name": "hasVoted",
              "type": "bool"
            }
          ],
          "internalType": "struct Election.Voter",
          "name": "",
          "type": "tuple"
        }
      ],
      "stateMutability": "view",
      "type": "function"
    },
    {
      "inputs": [],
      "name": "initiateElection",
      "outputs": [],
      "stateMutability": "nonpayable",
      "type": "function"
    },
    {
      "inputs": [
        {
          "internalType": "string",
          "name": "_aadhar",
          "type": "string"
        },
        {
          "internalType": "string",
          "name": "_phoneNo",
          "type": "string"
        }
      ],
      "name": "registerVoter",
      "outputs": [],
      "stateMutability": "nonpayable",
      "type": "function"
    },
    {
      "inputs": [
        {
          "internalType": "address",
          "name": "_voter",
          "type": "address"
        },
        {
          "internalType": "bool",
          "name": "_hasVerified",
          "type": "bool"
        }
      ],
      "name": "verifyVoter",
      "outputs": [],
      "stateMutability": "nonpayable",
      "type": "function"
    }
  ],
  "bytecode": "0x60a06040523480156200001157600080fd5b5060405162002a8838038062002a8883398181016040528101906200003791906200046e565b6000848433604051602001620000509392919062000695565b6040516020818303038152906040528051906020012090503373ffffffffffffffffffffffffffffffffffffffff1660808173ffffffffffffffffffffffffffffffffffffffff168152505060016000819055506040518060a001604052803373ffffffffffffffffffffffffffffffffffffffff16815260200182815260200160011515815260200160011515815260200160001515815250600860003373ffffffffffffffffffffffffffffffffffffffff1673ffffffffffffffffffffffffffffffffffffffff16815260200190815260200160002060008201518160000160006101000a81548173ffffffffffffffffffffffffffffffffffffffff021916908373ffffffffffffffffffffffffffffffffffffffff1602179055506020820151816001015560408201518160020160006101000a81548160ff02191690831515021790555060608201518160020160016101000a81548160ff02191690831515021790555060808201518160020160026101000a81548160ff0219169083151502179055509050506040518060800160405280888152602001878152602001848152602001838152506003600082015181600001908162000217919062000910565b5060208201518160010190816200022f919062000910565b50604082015181600201908162000247919062000910565b5060608201518160030190816200025f919062000910565b5090505085604051620002739190620009f7565b6040518091039020876040516200028b9190620009f7565b60405180910390207fb37f29b9bae57b58fbae5b973ed4b44b06904b8be0a813e1f2881b299911182b8585604051620002c692919062000a62565b60405180910390a35050505050505062000a9d565b6000604051905090565b600080fd5b600080fd5b600080fd5b600080fd5b6000601f19601f8301169050919050565b7f4e487b7100000000000000000000000000000000000000000000000000000000600052604160045260246000fd5b6200034482620002f9565b810181811067ffffffffffffffff821117156200036657620003656200030a565b5b80604052505050565b60006200037b620002db565b905062000389828262000339565b919050565b600067ffffffffffffffff821115620003ac57620003ab6200030a565b5b620003b782620002f9565b9050602081019050919050565b60005b83811015620003e4578082015181840152602081019050620003c7565b60008484015250505050565b60006200040762000401846200038e565b6200036f565b905082815260208101848484011115620004265762000425620002f4565b5b62000433848285620003c4565b509392505050565b600082601f830112620004535762000452620002ef565b5b815162000465848260208601620003f0565b91505092915050565b60008060008060008060c087890312156200048e576200048d620002e5565b5b600087015167ffffffffffffffff811115620004af57620004ae620002ea565b5b620004bd89828a016200043b565b965050602087015167ffffffffffffffff811115620004e157620004e0620002ea565b5b620004ef89828a016200043b565b955050604087015167ffffffffffffffff811115620005135762000512620002ea565b5b6200052189828a016200043b565b945050606087015167ffffffffffffffff811115620005455762000544620002ea565b5b6200055389828a016200043b565b935050608087015167ffffffffffffffff811115620005775762000576620002ea565b5b6200058589828a016200043b565b92505060a087015167ffffffffffffffff811115620005a957620005a8620002ea565b5b620005b789828a016200043b565b9150509295509295509295565b600081519050919050565b600081905092915050565b6000620005e782620005c4565b620005f38185620005cf565b935062000605818560208601620003c4565b80840191505092915050565b600073ffffffffffffffffffffffffffffffffffffffff82169050919050565b60006200063e8262000611565b9050919050565b60008160601b9050919050565b60006200065f8262000645565b9050919050565b6000620006738262000652565b9050919050565b6200068f620006898262000631565b62000666565b82525050565b6000620006a38286620005da565b9150620006b18285620005da565b9150620006bf82846200067a565b601482019150819050949350505050565b7f4e487b7100000000000000000000000000000000000000000000000000000000600052602260045260246000fd5b600060028204905060018216806200071857607f821691505b6020821081036200072e576200072d620006d0565b5b50919050565b60008190508160005260206000209050919050565b60006020601f8301049050919050565b600082821b905092915050565b600060088302620007987fffffffffffffffffffffffffffffffffffffffffffffffffffffffffffffffff8262000759565b620007a4868362000759565b95508019841693508086168417925050509392505050565b6000819050919050565b6000819050919050565b6000620007f1620007eb620007e584620007bc565b620007c6565b620007bc565b9050919050565b6000819050919050565b6200080d83620007d0565b620008256200081c82620007f8565b84845462000766565b825550505050565b600090565b6200083c6200082d565b6200084981848462000802565b505050565b5b8181101562000871576200086560008262000832565b6001810190506200084f565b5050565b601f821115620008c0576200088a8162000734565b620008958462000749565b81016020851015620008a5578190505b620008bd620008b48562000749565b8301826200084e565b50505b505050565b600082821c905092915050565b6000620008e560001984600802620008c5565b1980831691505092915050565b6000620009008383620008d2565b9150826002028217905092915050565b6200091b82620005c4565b67ffffffffffffffff8111156200093757620009366200030a565b5b620009438254620006ff565b6200095082828562000875565b600060209050601f83116001811462000988576000841562000973578287015190505b6200097f8582620008f2565b865550620009ef565b601f198416620009988662000734565b60005b82811015620009c2578489015182556001820191506020850194506020810190506200099b565b86831015620009e25784890151620009de601f891682620008d2565b8355505b6001600288020188555050505b505050505050565b600062000a058284620005da565b915081905092915050565b600082825260208201905092915050565b600062000a2e82620005c4565b62000a3a818562000a10565b935062000a4c818560208601620003c4565b62000a5781620002f9565b840191505092915050565b6000604082019050818103600083015262000a7e818562000a21565b9050818103602083015262000a94818462000a21565b90509392505050565b608051611fba62000ace60003960008181610264015281816103a7015281816106590152610a650152611fba6000f3fe608060405234801561001057600080fd5b50600436106100cf5760003560e01c806370218b851161008c578063ba71bef011610066578063ba71bef0146101da578063c828371e1461020a578063dcd6a5cd14610228578063ed836bc314610244576100cf565b806370218b85146101845780638a4c8847146101a2578063ad71f8dc146101be576100cf565b806302c9846d146100d45780630ff9e259146100f057806327f9fd50146100fa57806330a563471461012a578063439f5ac2146101485780636e9960c314610166575b600080fd5b6100ee60048036038101906100e99190611389565b610262565b005b6100f86103a5565b005b610114600480360381019061010f91906113ff565b610446565b604051610121919061153c565b60405180910390f35b610132610642565b60405161013f919061156d565b60405180910390f35b61015061064b565b60405161015d919061156d565b60405180910390f35b61016e610655565b60405161017b9190611597565b60405180910390f35b61018c61067d565b60405161019991906116e5565b60405180910390f35b6101bc60048036038101906101b7919061176c565b61089c565b005b6101d860048036038101906101d391906117ed565b610a63565b005b6101f460048036038101906101ef91906118a1565b610cc3565b604051610201919061196d565b60405180910390f35b610212610dcd565b60405161021f919061156d565b60405180910390f35b610242600480360381019061023d91906113ff565b610dd7565b005b61024c610fe9565b6040516102599190611a00565b60405180910390f35b7f000000000000000000000000000000000000000000000000000000000000000073ffffffffffffffffffffffffffffffffffffffff163373ffffffffffffffffffffffffffffffffffffffff16146102e7576040517f921ba71100000000000000000000000000000000000000000000000000000000815260040160405180910390fd5b60011515600860008473ffffffffffffffffffffffffffffffffffffffff1673ffffffffffffffffffffffffffffffffffffffff16815260200190815260200160002060020160019054906101000a900460ff1615150361034757600080fd5b80600860008473ffffffffffffffffffffffffffffffffffffffff1673ffffffffffffffffffffffffffffffffffffffff16815260200190815260200160002060020160016101000a81548160ff0219169083151502179055505050565b7f000000000000000000000000000000000000000000000000000000000000000073ffffffffffffffffffffffffffffffffffffffff163373ffffffffffffffffffffffffffffffffffffffff161461042a576040517f921ba71100000000000000000000000000000000000000000000000000000000815260040160405180910390fd5b42600181905550603c4261043e9190611a51565b600281905550565b61044e61124b565b6007828154811061046257610461611a85565b5b906000526020600020906004020160405180608001604052908160008201805461048b90611ae3565b80601f01602080910402602001604051908101604052809291908181526020018280546104b790611ae3565b80156105045780601f106104d957610100808354040283529160200191610504565b820191906000526020600020905b8154815290600101906020018083116104e757829003601f168201915b5050505050815260200160018201805461051d90611ae3565b80601f016020809104026020016040519081016040528092919081815260200182805461054990611ae3565b80156105965780601f1061056b57610100808354040283529160200191610596565b820191906000526020600020905b81548152906001019060200180831161057957829003601f168201915b505050505081526020016002820180546105af90611ae3565b80601f01602080910402602001604051908101604052809291908181526020018280546105db90611ae3565b80156106285780601f106105fd57610100808354040283529160200191610628565b820191906000526020600020905b81548152906001019060200180831161060b57829003601f168201915b505050505081526020016003820154815250509050919050565b60008054905090565b6000600254905090565b60007f0000000000000000000000000000000000000000000000000000000000000000905090565b60606007805480602002602001604051908101604052809291908181526020016000905b8282101561089357838290600052602060002090600402016040518060800160405290816000820180546106d490611ae3565b80601f016020809104026020016040519081016040528092919081815260200182805461070090611ae3565b801561074d5780601f106107225761010080835404028352916020019161074d565b820191906000526020600020905b81548152906001019060200180831161073057829003601f168201915b5050505050815260200160018201805461076690611ae3565b80601f016020809104026020016040519081016040528092919081815260200182805461079290611ae3565b80156107df5780601f106107b4576101008083540402835291602001916107df565b820191906000526020600020905b8154815290600101906020018083116107c257829003601f168201915b505050505081526020016002820180546107f890611ae3565b80601f016020809104026020016040519081016040528092919081815260200182805461082490611ae3565b80156108715780601f1061084657610100808354040283529160200191610871565b820191906000526020600020905b81548152906001019060200180831161085457829003601f168201915b50505050508152602001600382015481525050815260200190600101906106a1565b50505050905090565b600084848484336040516020016108b7959493929190611b9b565b6040516020818303038152906040528051906020012090506040518060a001604052803373ffffffffffffffffffffffffffffffffffffffff16815260200182815260200160011515815260200160001515815260200160001515815250600860003373ffffffffffffffffffffffffffffffffffffffff1673ffffffffffffffffffffffffffffffffffffffff16815260200190815260200160002060008201518160000160006101000a81548173ffffffffffffffffffffffffffffffffffffffff021916908373ffffffffffffffffffffffffffffffffffffffff1602179055506020820151816001015560408201518160020160006101000a81548160ff02191690831515021790555060608201518160020160016101000a81548160ff02191690831515021790555060808201518160020160026101000a81548160ff0219169083151502179055509050503373ffffffffffffffffffffffffffffffffffffffff167f96ac7a421360a2bd773d747b2f64b40a916821c4906dbfdebf787c292e741f7d86868686604051610a549493929190611c12565b60405180910390a25050505050565b7f000000000000000000000000000000000000000000000000000000000000000073ffffffffffffffffffffffffffffffffffffffff163373ffffffffffffffffffffffffffffffffffffffff1614610ae8576040517f921ba71100000000000000000000000000000000000000000000000000000000815260040160405180910390fd5b6007604051806080016040528088888080601f016020809104026020016040519081016040528093929190818152602001838380828437600081840152601f19601f82011690508083019250505050505050815260200186868080601f016020809104026020016040519081016040528093929190818152602001838380828437600081840152601f19601f82011690508083019250505050505050815260200184848080601f016020809104026020016040519081016040528093929190818152602001838380828437600081840152601f19601f820116905080830192505050505050508152602001600081525090806001815401808255809150506001900390600052602060002090600402016000909190919091506000820151816000019081610c169190611e28565b506020820151816001019081610c2c9190611e28565b506040820151816002019081610c429190611e28565b50606082015181600301555050600080815480929190610c6190611efa565b91905055508585604051610c76929190611f42565b60405180910390207fa620e116e8168f7281127a47ac04518b6fbd8b07cd150397e6e3e56127ce48cf85858585604051610cb39493929190611c12565b60405180910390a2505050505050565b610ccb611273565b600860008373ffffffffffffffffffffffffffffffffffffffff1673ffffffffffffffffffffffffffffffffffffffff1681526020019081526020016000206040518060a00160405290816000820160009054906101000a900473ffffffffffffffffffffffffffffffffffffffff1673ffffffffffffffffffffffffffffffffffffffff1673ffffffffffffffffffffffffffffffffffffffff168152602001600182015481526020016002820160009054906101000a900460ff161515151581526020016002820160019054906101000a900460ff161515151581526020016002820160029054906101000a900460ff1615151515815250509050919050565b6000600154905090565b600860003373ffffffffffffffffffffffffffffffffffffffff1673ffffffffffffffffffffffffffffffffffffffff16815260200190815260200160002060020160019054906101000a900460ff16610e5d576040517f9cf5120e00000000000000000000000000000000000000000000000000000000815260040160405180910390fd5b600860003373ffffffffffffffffffffffffffffffffffffffff1673ffffffffffffffffffffffffffffffffffffffff16815260200190815260200160002060020160029054906101000a900460ff1615610f33576000600a60003373ffffffffffffffffffffffffffffffffffffffff1673ffffffffffffffffffffffffffffffffffffffff16815260200190815260200160002054905060078181548110610f0a57610f09611a85565b5b90600052602060002090600402016003016000815480929190610f2c90611f5b565b9190505550505b6001544210158015610f4757506002544211155b610f5057600080fd5b60078181548110610f6457610f63611a85565b5b90600052602060002090600402016003016000815480929190610f8690611efa565b91905055506001600860003373ffffffffffffffffffffffffffffffffffffffff1673ffffffffffffffffffffffffffffffffffffffff16815260200190815260200160002060020160026101000a81548160ff02191690831515021790555050565b610ff16112c1565b600360405180608001604052908160008201805461100e90611ae3565b80601f016020809104026020016040519081016040528092919081815260200182805461103a90611ae3565b80156110875780601f1061105c57610100808354040283529160200191611087565b820191906000526020600020905b81548152906001019060200180831161106a57829003601f168201915b505050505081526020016001820180546110a090611ae3565b80601f01602080910402602001604051908101604052809291908181526020018280546110cc90611ae3565b80156111195780601f106110ee57610100808354040283529160200191611119565b820191906000526020600020905b8154815290600101906020018083116110fc57829003601f168201915b5050505050815260200160028201805461113290611ae3565b80601f016020809104026020016040519081016040528092919081815260200182805461115e90611ae3565b80156111ab5780601f10611180576101008083540402835291602001916111ab565b820191906000526020600020905b81548152906001019060200180831161118e57829003601f168201915b505050505081526020016003820180546111c490611ae3565b80601f01602080910402602001604051908101604052809291908181526020018280546111f090611ae3565b801561123d5780601f106112125761010080835404028352916020019161123d565b820191906000526020600020905b81548152906001019060200180831161122057829003601f168201915b505050505081525050905090565b6040518060800160405280606081526020016060815260200160608152602001600081525090565b6040518060a00160405280600073ffffffffffffffffffffffffffffffffffffffff168152602001600080191681526020016000151581526020016000151581526020016000151581525090565b6040518060800160405280606081526020016060815260200160608152602001606081525090565b600080fd5b600080fd5b600073ffffffffffffffffffffffffffffffffffffffff82169050919050565b600061131e826112f3565b9050919050565b61132e81611313565b811461133957600080fd5b50565b60008135905061134b81611325565b92915050565b60008115159050919050565b61136681611351565b811461137157600080fd5b50565b6000813590506113838161135d565b92915050565b600080604083850312156113a05761139f6112e9565b5b60006113ae8582860161133c565b92505060206113bf85828601611374565b9150509250929050565b6000819050919050565b6113dc816113c9565b81146113e757600080fd5b50565b6000813590506113f9816113d3565b92915050565b600060208284031215611415576114146112e9565b5b6000611423848285016113ea565b91505092915050565b600081519050919050565b600082825260208201905092915050565b60005b8381101561146657808201518184015260208101905061144b565b60008484015250505050565b6000601f19601f8301169050919050565b600061148e8261142c565b6114988185611437565b93506114a8818560208601611448565b6114b181611472565b840191505092915050565b6114c5816113c9565b82525050565b600060808301600083015184820360008601526114e88282611483565b915050602083015184820360208601526115028282611483565b9150506040830151848203604086015261151c8282611483565b915050606083015161153160608601826114bc565b508091505092915050565b6000602082019050818103600083015261155681846114cb565b905092915050565b611567816113c9565b82525050565b6000602082019050611582600083018461155e565b92915050565b61159181611313565b82525050565b60006020820190506115ac6000830184611588565b92915050565b600081519050919050565b600082825260208201905092915050565b6000819050602082019050919050565b600060808301600083015184820360008601526115fb8282611483565b915050602083015184820360208601526116158282611483565b9150506040830151848203604086015261162f8282611483565b915050606083015161164460608601826114bc565b508091505092915050565b600061165b83836115de565b905092915050565b6000602082019050919050565b600061167b826115b2565b61168581856115bd565b935083602082028501611697856115ce565b8060005b858110156116d357848403895281516116b4858261164f565b94506116bf83611663565b925060208a0199505060018101905061169b565b50829750879550505050505092915050565b600060208201905081810360008301526116ff8184611670565b905092915050565b600080fd5b600080fd5b600080fd5b60008083601f84011261172c5761172b611707565b5b8235905067ffffffffffffffff8111156117495761174861170c565b5b60208301915083600182028301111561176557611764611711565b5b9250929050565b60008060008060408587031215611786576117856112e9565b5b600085013567ffffffffffffffff8111156117a4576117a36112ee565b5b6117b087828801611716565b9450945050602085013567ffffffffffffffff8111156117d3576117d26112ee565b5b6117df87828801611716565b925092505092959194509250565b6000806000806000806060878903121561180a576118096112e9565b5b600087013567ffffffffffffffff811115611828576118276112ee565b5b61183489828a01611716565b9650965050602087013567ffffffffffffffff811115611857576118566112ee565b5b61186389828a01611716565b9450945050604087013567ffffffffffffffff811115611886576118856112ee565b5b61189289828a01611716565b92509250509295509295509295565b6000602082840312156118b7576118b66112e9565b5b60006118c58482850161133c565b91505092915050565b6118d781611313565b82525050565b6000819050919050565b6118f0816118dd565b82525050565b6118ff81611351565b82525050565b60a08201600082015161191b60008501826118ce565b50602082015161192e60208501826118e7565b50604082015161194160408501826118f6565b50606082015161195460608501826118f6565b50608082015161196760808501826118f6565b50505050565b600060a0820190506119826000830184611905565b92915050565b600060808301600083015184820360008601526119a58282611483565b915050602083015184820360208601526119bf8282611483565b915050604083015184820360408601526119d98282611483565b915050606083015184820360608601526119f38282611483565b9150508091505092915050565b60006020820190508181036000830152611a1a8184611988565b905092915050565b7f4e487b7100000000000000000000000000000000000000000000000000000000600052601160045260246000fd5b6000611a5c826113c9565b9150611a67836113c9565b9250828201905080821115611a7f57611a7e611a22565b5b92915050565b7f4e487b7100000000000000000000000000000000000000000000000000000000600052603260045260246000fd5b7f4e487b7100000000000000000000000000000000000000000000000000000000600052602260045260246000fd5b60006002820490506001821680611afb57607f821691505b602082108103611b0e57611b0d611ab4565b5b50919050565b600081905092915050565b82818337600083830152505050565b6000611b3a8385611b14565b9350611b47838584611b1f565b82840190509392505050565b60008160601b9050919050565b6000611b6b82611b53565b9050919050565b6000611b7d82611b60565b9050919050565b611b95611b9082611313565b611b72565b82525050565b6000611ba8828789611b2e565b9150611bb5828587611b2e565b9150611bc18284611b84565b6014820191508190509695505050505050565b600082825260208201905092915050565b6000611bf18385611bd4565b9350611bfe838584611b1f565b611c0783611472565b840190509392505050565b60006040820190508181036000830152611c2d818688611be5565b90508181036020830152611c42818486611be5565b905095945050505050565b7f4e487b7100000000000000000000000000000000000000000000000000000000600052604160045260246000fd5b60008190508160005260206000209050919050565b60006020601f8301049050919050565b600082821b905092915050565b600060088302611cde7fffffffffffffffffffffffffffffffffffffffffffffffffffffffffffffffff82611ca1565b611ce88683611ca1565b95508019841693508086168417925050509392505050565b6000819050919050565b6000611d25611d20611d1b846113c9565b611d00565b6113c9565b9050919050565b6000819050919050565b611d3f83611d0a565b611d53611d4b82611d2c565b848454611cae565b825550505050565b600090565b611d68611d5b565b611d73818484611d36565b505050565b5b81811015611d9757611d8c600082611d60565b600181019050611d79565b5050565b601f821115611ddc57611dad81611c7c565b611db684611c91565b81016020851015611dc5578190505b611dd9611dd185611c91565b830182611d78565b50505b505050565b600082821c905092915050565b6000611dff60001984600802611de1565b1980831691505092915050565b6000611e188383611dee565b9150826002028217905092915050565b611e318261142c565b67ffffffffffffffff811115611e4a57611e49611c4d565b5b611e548254611ae3565b611e5f828285611d9b565b600060209050601f831160018114611e925760008415611e80578287015190505b611e8a8582611e0c565b865550611ef2565b601f198416611ea086611c7c565b60005b82811015611ec857848901518255600182019150602085019450602081019050611ea3565b86831015611ee55784890151611ee1601f891682611dee565b8355505b6001600288020188555050505b505050505050565b6000611f05826113c9565b91507fffffffffffffffffffffffffffffffffffffffffffffffffffffffffffffffff8203611f3757611f36611a22565b5b600182019050919050565b6000611f4f828486611b2e565b91508190509392505050565b6000611f66826113c9565b915060008203611f7957611f78611a22565b5b60018203905091905056fea26469706673582212208d3f82b50ca3c778b13f75e3e77d667c12ea64240adc2b2e44d37f187552ecfa64736f6c63430008120033",
  "linkReferences": {},
  "deployedLinkReferences": {}
}