{
  "_format": "hh-sol-artifact-1",
  "contractName": "Election",
  "sourceName": "contracts/Election.sol",
  "abi": [
    {
      "inputs": [],
      "stateMutability": "nonpayable",
      "type": "constructor"
    },
    {
      "inputs": [],
      "name": "Election_NotAdmin",
      "type": "error"
    },
    {
      "inputs": [],
      "name": "Election_VoterNotVerified",
      "type": "error"
    },
    {
      "anonymous": false,
      "inputs": [
        {
          "indexed": true,
          "internalType": "string",
          "name": "name",
          "type": "string"
        },
        {
          "indexed": false,
          "internalType": "string",
          "name": "partyName",
          "type": "string"
        },
        {
          "indexed": false,
          "internalType": "string",
          "name": "slogan",
          "type": "string"
        }
      ],
      "name": "CandidateAdded",
      "type": "event"
    },
    {
      "anonymous": false,
      "inputs": [
        {
          "indexed": true,
          "internalType": "address",
          "name": "voter",
          "type": "address"
        },
        {
          "indexed": false,
          "internalType": "string",
          "name": "data",
          "type": "string"
        },
        {
          "indexed": false,
          "internalType": "string",
          "name": "phoneNo",
          "type": "string"
        }
      ],
      "name": "VoterRegistered",
      "type": "event"
    },
    {
      "anonymous": false,
      "inputs": [
        {
          "indexed": true,
          "internalType": "string",
          "name": "adminName",
          "type": "string"
        },
        {
          "indexed": true,
          "internalType": "string",
          "name": "electionTitle",
          "type": "string"
        },
        {
          "indexed": false,
          "internalType": "string",
          "name": "adminPosition",
          "type": "string"
        },
        {
          "indexed": false,
          "internalType": "string",
          "name": "organizationTitle",
          "type": "string"
        }
      ],
      "name": "electionAdded",
      "type": "event"
    },
    {
      "inputs": [
        {
          "internalType": "uint256",
          "name": "_candidateId",
          "type": "uint256"
        }
      ],
      "name": "Vote",
      "outputs": [],
      "stateMutability": "nonpayable",
      "type": "function"
    },
    {
      "inputs": [
        {
          "internalType": "string",
          "name": "_name",
          "type": "string"
        },
        {
          "internalType": "string",
          "name": "_partyName",
          "type": "string"
        },
        {
          "internalType": "string",
          "name": "_slogan",
          "type": "string"
        }
      ],
      "name": "addCandidate",
      "outputs": [],
      "stateMutability": "nonpayable",
      "type": "function"
    },
    {
      "inputs": [],
      "name": "getAdmin",
      "outputs": [
        {
          "internalType": "address",
          "name": "",
          "type": "address"
        }
      ],
      "stateMutability": "view",
      "type": "function"
    },
    {
      "inputs": [],
      "name": "getCandidate",
      "outputs": [
        {
          "components": [
            {
              "internalType": "string",
              "name": "name",
              "type": "string"
            },
            {
              "internalType": "string",
              "name": "partyName",
              "type": "string"
            },
            {
              "internalType": "string",
              "name": "slogan",
              "type": "string"
            },
            {
              "internalType": "uint256",
              "name": "votes",
              "type": "uint256"
            }
          ],
          "internalType": "struct Election.Candidate[]",
          "name": "",
          "type": "tuple[]"
        }
      ],
      "stateMutability": "view",
      "type": "function"
    },
    {
      "inputs": [],
      "name": "getCandidateCount",
      "outputs": [
        {
          "internalType": "uint256",
          "name": "",
          "type": "uint256"
        }
      ],
      "stateMutability": "view",
      "type": "function"
    },
    {
      "inputs": [
        {
          "internalType": "uint256",
          "name": "_candidateID",
          "type": "uint256"
        }
      ],
      "name": "getCandidateDetails",
      "outputs": [
        {
          "components": [
            {
              "internalType": "string",
              "name": "name",
              "type": "string"
            },
            {
              "internalType": "string",
              "name": "partyName",
              "type": "string"
            },
            {
              "internalType": "string",
              "name": "slogan",
              "type": "string"
            },
            {
              "internalType": "uint256",
              "name": "votes",
              "type": "uint256"
            }
          ],
          "internalType": "struct Election.Candidate",
          "name": "",
          "type": "tuple"
        }
      ],
      "stateMutability": "view",
      "type": "function"
    },
    {
      "inputs": [],
      "name": "getElectionDetails",
      "outputs": [
        {
          "components": [
            {
              "internalType": "string",
              "name": "adminName",
              "type": "string"
            },
            {
              "internalType": "string",
              "name": "adminPosition",
              "type": "string"
            },
            {
              "internalType": "string",
              "name": "electionTitle",
              "type": "string"
            },
            {
              "internalType": "string",
              "name": "organizationTitle",
              "type": "string"
            }
          ],
          "internalType": "struct Election.ElectionDetails",
          "name": "",
          "type": "tuple"
        }
      ],
      "stateMutability": "view",
      "type": "function"
    },
    {
      "inputs": [],
      "name": "getEndTime",
      "outputs": [
        {
          "internalType": "uint256",
          "name": "",
          "type": "uint256"
        }
      ],
      "stateMutability": "view",
      "type": "function"
    },
    {
      "inputs": [],
      "name": "getStartTime",
      "outputs": [
        {
          "internalType": "uint256",
          "name": "",
          "type": "uint256"
        }
      ],
      "stateMutability": "view",
      "type": "function"
    },
    {
      "inputs": [
        {
          "internalType": "address",
          "name": "_voter",
          "type": "address"
        }
      ],
      "name": "getVoterDetails",
      "outputs": [
        {
          "components": [
            {
              "internalType": "address",
              "name": "voter",
              "type": "address"
            },
            {
              "internalType": "bytes32",
              "name": "dataHash",
              "type": "bytes32"
            },
            {
              "internalType": "bool",
              "name": "isRegistered",
              "type": "bool"
            },
            {
              "internalType": "bool",
              "name": "isVerified",
              "type": "bool"
            },
            {
              "internalType": "bool",
              "name": "hasVoted",
              "type": "bool"
            }
          ],
          "internalType": "struct Election.Voter",
          "name": "",
          "type": "tuple"
        }
      ],
      "stateMutability": "view",
      "type": "function"
    },
    {
      "inputs": [],
      "name": "initiateElection",
      "outputs": [],
      "stateMutability": "nonpayable",
      "type": "function"
    },
    {
      "inputs": [
        {
          "internalType": "string",
          "name": "_aadhar",
          "type": "string"
        },
        {
          "internalType": "string",
          "name": "_phoneNo",
          "type": "string"
        }
      ],
      "name": "registerVoter",
      "outputs": [],
      "stateMutability": "nonpayable",
      "type": "function"
    },
    {
      "inputs": [
        {
          "internalType": "string",
          "name": "_adminName",
          "type": "string"
        },
        {
          "internalType": "string",
          "name": "_adminPosition",
          "type": "string"
        },
        {
          "internalType": "string",
          "name": "_electionTitle",
          "type": "string"
        },
        {
          "internalType": "string",
          "name": "_organizationTitle",
          "type": "string"
        }
      ],
      "name": "setElectionDetails",
      "outputs": [],
      "stateMutability": "nonpayable",
      "type": "function"
    },
    {
      "inputs": [
        {
          "internalType": "address",
          "name": "_voter",
          "type": "address"
        },
        {
          "internalType": "bool",
          "name": "_hasVerified",
          "type": "bool"
        }
      ],
      "name": "verifyVoter",
      "outputs": [],
      "stateMutability": "nonpayable",
      "type": "function"
    }
  ],
  "bytecode": "0x60a060405234801561001057600080fd5b503373ffffffffffffffffffffffffffffffffffffffff1660808173ffffffffffffffffffffffffffffffffffffffff168152505060016000819055506080516123646100846000396000818161029b015281816103de0152818161069001528181610a9c0152610d2601526123646000f3fe608060405234801561001057600080fd5b50600436106100ea5760003560e01c80638a4c88471161008c578063ba71bef011610066578063ba71bef014610211578063c828371e14610241578063dcd6a5cd1461025f578063ed836bc31461027b576100ea565b80638a4c8847146101bd578063a8e546f2146101d9578063ad71f8dc146101f5576100ea565b806330a56347116100c857806330a5634714610145578063439f5ac2146101635780636e9960c31461018157806370218b851461019f576100ea565b806302c9846d146100ef5780630ff9e2591461010b57806327f9fd5014610115575b600080fd5b6101096004803603810190610104919061164a565b610299565b005b6101136103dc565b005b61012f600480360381019061012a91906116c0565b61047d565b60405161013c91906117fd565b60405180910390f35b61014d610679565b60405161015a919061182e565b60405180910390f35b61016b610682565b604051610178919061182e565b60405180910390f35b61018961068c565b6040516101969190611858565b60405180910390f35b6101a76106b4565b6040516101b491906119a6565b60405180910390f35b6101d760048036038101906101d29190611a2d565b6108d3565b005b6101f360048036038101906101ee9190611aae565b610a9a565b005b61020f600480360381019061020a9190611b97565b610d24565b005b61022b60048036038101906102269190611c4b565b610f84565b6040516102389190611d17565b60405180910390f35b61024961108e565b604051610256919061182e565b60405180910390f35b610279600480360381019061027491906116c0565b611098565b005b6102836112aa565b6040516102909190611daa565b60405180910390f35b7f000000000000000000000000000000000000000000000000000000000000000073ffffffffffffffffffffffffffffffffffffffff163373ffffffffffffffffffffffffffffffffffffffff161461031e576040517f921ba71100000000000000000000000000000000000000000000000000000000815260040160405180910390fd5b60011515600960008473ffffffffffffffffffffffffffffffffffffffff1673ffffffffffffffffffffffffffffffffffffffff16815260200190815260200160002060020160019054906101000a900460ff1615150361037e57600080fd5b80600960008473ffffffffffffffffffffffffffffffffffffffff1673ffffffffffffffffffffffffffffffffffffffff16815260200190815260200160002060020160016101000a81548160ff0219169083151502179055505050565b7f000000000000000000000000000000000000000000000000000000000000000073ffffffffffffffffffffffffffffffffffffffff163373ffffffffffffffffffffffffffffffffffffffff1614610461576040517f921ba71100000000000000000000000000000000000000000000000000000000815260040160405180910390fd5b42600181905550603c426104759190611dfb565b600281905550565b61048561150c565b6008828154811061049957610498611e2f565b5b90600052602060002090600402016040518060800160405290816000820180546104c290611e8d565b80601f01602080910402602001604051908101604052809291908181526020018280546104ee90611e8d565b801561053b5780601f106105105761010080835404028352916020019161053b565b820191906000526020600020905b81548152906001019060200180831161051e57829003601f168201915b5050505050815260200160018201805461055490611e8d565b80601f016020809104026020016040519081016040528092919081815260200182805461058090611e8d565b80156105cd5780601f106105a2576101008083540402835291602001916105cd565b820191906000526020600020905b8154815290600101906020018083116105b057829003601f168201915b505050505081526020016002820180546105e690611e8d565b80601f016020809104026020016040519081016040528092919081815260200182805461061290611e8d565b801561065f5780601f106106345761010080835404028352916020019161065f565b820191906000526020600020905b81548152906001019060200180831161064257829003601f168201915b505050505081526020016003820154815250509050919050565b60008054905090565b6000600254905090565b60007f0000000000000000000000000000000000000000000000000000000000000000905090565b60606008805480602002602001604051908101604052809291908181526020016000905b828210156108ca578382906000526020600020906004020160405180608001604052908160008201805461070b90611e8d565b80601f016020809104026020016040519081016040528092919081815260200182805461073790611e8d565b80156107845780601f1061075957610100808354040283529160200191610784565b820191906000526020600020905b81548152906001019060200180831161076757829003601f168201915b5050505050815260200160018201805461079d90611e8d565b80601f01602080910402602001604051908101604052809291908181526020018280546107c990611e8d565b80156108165780601f106107eb57610100808354040283529160200191610816565b820191906000526020600020905b8154815290600101906020018083116107f957829003601f168201915b5050505050815260200160028201805461082f90611e8d565b80601f016020809104026020016040519081016040528092919081815260200182805461085b90611e8d565b80156108a85780601f1061087d576101008083540402835291602001916108a8565b820191906000526020600020905b81548152906001019060200180831161088b57829003601f168201915b50505050508152602001600382015481525050815260200190600101906106d8565b50505050905090565b600084848484336040516020016108ee959493929190611f45565b6040516020818303038152906040528051906020012090506040518060a001604052803373ffffffffffffffffffffffffffffffffffffffff16815260200182815260200160011515815260200160001515815260200160001515815250600960003373ffffffffffffffffffffffffffffffffffffffff1673ffffffffffffffffffffffffffffffffffffffff16815260200190815260200160002060008201518160000160006101000a81548173ffffffffffffffffffffffffffffffffffffffff021916908373ffffffffffffffffffffffffffffffffffffffff1602179055506020820151816001015560408201518160020160006101000a81548160ff02191690831515021790555060608201518160020160016101000a81548160ff02191690831515021790555060808201518160020160026101000a81548160ff0219169083151502179055509050503373ffffffffffffffffffffffffffffffffffffffff167f96ac7a421360a2bd773d747b2f64b40a916821c4906dbfdebf787c292e741f7d86868686604051610a8b9493929190611fbc565b60405180910390a25050505050565b7f000000000000000000000000000000000000000000000000000000000000000073ffffffffffffffffffffffffffffffffffffffff163373ffffffffffffffffffffffffffffffffffffffff1614610b1f576040517f921ba71100000000000000000000000000000000000000000000000000000000815260040160405180910390fd5b604051806080016040528089898080601f016020809104026020016040519081016040528093929190818152602001838380828437600081840152601f19601f82011690508083019250505050505050815260200187878080601f016020809104026020016040519081016040528093929190818152602001838380828437600081840152601f19601f82011690508083019250505050505050815260200185858080601f016020809104026020016040519081016040528093929190818152602001838380828437600081840152601f19601f82011690508083019250505050505050815260200183838080601f016020809104026020016040519081016040528093929190818152602001838380828437600081840152601f19601f8201169050808301925050505050505081525060036000820151816000019081610c6791906121d2565b506020820151816001019081610c7d91906121d2565b506040820151816002019081610c9391906121d2565b506060820151816003019081610ca991906121d2565b509050508585604051610cbd9291906122a4565b60405180910390208888604051610cd59291906122a4565b60405180910390207f7c935ef8ac1ff13d70515c002e0f97e28f0e6bf078fc5a48ef58c6f71033b99586868686604051610d129493929190611fbc565b60405180910390a35050505050505050565b7f000000000000000000000000000000000000000000000000000000000000000073ffffffffffffffffffffffffffffffffffffffff163373ffffffffffffffffffffffffffffffffffffffff1614610da9576040517f921ba71100000000000000000000000000000000000000000000000000000000815260040160405180910390fd5b6008604051806080016040528088888080601f016020809104026020016040519081016040528093929190818152602001838380828437600081840152601f19601f82011690508083019250505050505050815260200186868080601f016020809104026020016040519081016040528093929190818152602001838380828437600081840152601f19601f82011690508083019250505050505050815260200184848080601f016020809104026020016040519081016040528093929190818152602001838380828437600081840152601f19601f820116905080830192505050505050508152602001600081525090806001815401808255809150506001900390600052602060002090600402016000909190919091506000820151816000019081610ed791906121d2565b506020820151816001019081610eed91906121d2565b506040820151816002019081610f0391906121d2565b50606082015181600301555050600080815480929190610f22906122bd565b91905055508585604051610f379291906122a4565b60405180910390207fa620e116e8168f7281127a47ac04518b6fbd8b07cd150397e6e3e56127ce48cf85858585604051610f749493929190611fbc565b60405180910390a2505050505050565b610f8c611534565b600960008373ffffffffffffffffffffffffffffffffffffffff1673ffffffffffffffffffffffffffffffffffffffff1681526020019081526020016000206040518060a00160405290816000820160009054906101000a900473ffffffffffffffffffffffffffffffffffffffff1673ffffffffffffffffffffffffffffffffffffffff1673ffffffffffffffffffffffffffffffffffffffff168152602001600182015481526020016002820160009054906101000a900460ff161515151581526020016002820160019054906101000a900460ff161515151581526020016002820160029054906101000a900460ff1615151515815250509050919050565b6000600154905090565b600960003373ffffffffffffffffffffffffffffffffffffffff1673ffffffffffffffffffffffffffffffffffffffff16815260200190815260200160002060020160019054906101000a900460ff1661111e576040517f9cf5120e00000000000000000000000000000000000000000000000000000000815260040160405180910390fd5b600960003373ffffffffffffffffffffffffffffffffffffffff1673ffffffffffffffffffffffffffffffffffffffff16815260200190815260200160002060020160029054906101000a900460ff16156111f4576000600b60003373ffffffffffffffffffffffffffffffffffffffff1673ffffffffffffffffffffffffffffffffffffffff168152602001908152602001600020549050600881815481106111cb576111ca611e2f565b5b906000526020600020906004020160030160008154809291906111ed90612305565b9190505550505b600154421015801561120857506002544211155b61121157600080fd5b6008818154811061122557611224611e2f565b5b90600052602060002090600402016003016000815480929190611247906122bd565b91905055506001600960003373ffffffffffffffffffffffffffffffffffffffff1673ffffffffffffffffffffffffffffffffffffffff16815260200190815260200160002060020160026101000a81548160ff02191690831515021790555050565b6112b2611582565b60036040518060800160405290816000820180546112cf90611e8d565b80601f01602080910402602001604051908101604052809291908181526020018280546112fb90611e8d565b80156113485780601f1061131d57610100808354040283529160200191611348565b820191906000526020600020905b81548152906001019060200180831161132b57829003601f168201915b5050505050815260200160018201805461136190611e8d565b80601f016020809104026020016040519081016040528092919081815260200182805461138d90611e8d565b80156113da5780601f106113af576101008083540402835291602001916113da565b820191906000526020600020905b8154815290600101906020018083116113bd57829003601f168201915b505050505081526020016002820180546113f390611e8d565b80601f016020809104026020016040519081016040528092919081815260200182805461141f90611e8d565b801561146c5780601f106114415761010080835404028352916020019161146c565b820191906000526020600020905b81548152906001019060200180831161144f57829003601f168201915b5050505050815260200160038201805461148590611e8d565b80601f01602080910402602001604051908101604052809291908181526020018280546114b190611e8d565b80156114fe5780601f106114d3576101008083540402835291602001916114fe565b820191906000526020600020905b8154815290600101906020018083116114e157829003601f168201915b505050505081525050905090565b6040518060800160405280606081526020016060815260200160608152602001600081525090565b6040518060a00160405280600073ffffffffffffffffffffffffffffffffffffffff168152602001600080191681526020016000151581526020016000151581526020016000151581525090565b6040518060800160405280606081526020016060815260200160608152602001606081525090565b600080fd5b600080fd5b600073ffffffffffffffffffffffffffffffffffffffff82169050919050565b60006115df826115b4565b9050919050565b6115ef816115d4565b81146115fa57600080fd5b50565b60008135905061160c816115e6565b92915050565b60008115159050919050565b61162781611612565b811461163257600080fd5b50565b6000813590506116448161161e565b92915050565b60008060408385031215611661576116606115aa565b5b600061166f858286016115fd565b925050602061168085828601611635565b9150509250929050565b6000819050919050565b61169d8161168a565b81146116a857600080fd5b50565b6000813590506116ba81611694565b92915050565b6000602082840312156116d6576116d56115aa565b5b60006116e4848285016116ab565b91505092915050565b600081519050919050565b600082825260208201905092915050565b60005b8381101561172757808201518184015260208101905061170c565b60008484015250505050565b6000601f19601f8301169050919050565b600061174f826116ed565b61175981856116f8565b9350611769818560208601611709565b61177281611733565b840191505092915050565b6117868161168a565b82525050565b600060808301600083015184820360008601526117a98282611744565b915050602083015184820360208601526117c38282611744565b915050604083015184820360408601526117dd8282611744565b91505060608301516117f2606086018261177d565b508091505092915050565b60006020820190508181036000830152611817818461178c565b905092915050565b6118288161168a565b82525050565b6000602082019050611843600083018461181f565b92915050565b611852816115d4565b82525050565b600060208201905061186d6000830184611849565b92915050565b600081519050919050565b600082825260208201905092915050565b6000819050602082019050919050565b600060808301600083015184820360008601526118bc8282611744565b915050602083015184820360208601526118d68282611744565b915050604083015184820360408601526118f08282611744565b9150506060830151611905606086018261177d565b508091505092915050565b600061191c838361189f565b905092915050565b6000602082019050919050565b600061193c82611873565b611946818561187e565b9350836020820285016119588561188f565b8060005b8581101561199457848403895281516119758582611910565b945061198083611924565b925060208a0199505060018101905061195c565b50829750879550505050505092915050565b600060208201905081810360008301526119c08184611931565b905092915050565b600080fd5b600080fd5b600080fd5b60008083601f8401126119ed576119ec6119c8565b5b8235905067ffffffffffffffff811115611a0a57611a096119cd565b5b602083019150836001820283011115611a2657611a256119d2565b5b9250929050565b60008060008060408587031215611a4757611a466115aa565b5b600085013567ffffffffffffffff811115611a6557611a646115af565b5b611a71878288016119d7565b9450945050602085013567ffffffffffffffff811115611a9457611a936115af565b5b611aa0878288016119d7565b925092505092959194509250565b6000806000806000806000806080898b031215611ace57611acd6115aa565b5b600089013567ffffffffffffffff811115611aec57611aeb6115af565b5b611af88b828c016119d7565b9850985050602089013567ffffffffffffffff811115611b1b57611b1a6115af565b5b611b278b828c016119d7565b9650965050604089013567ffffffffffffffff811115611b4a57611b496115af565b5b611b568b828c016119d7565b9450945050606089013567ffffffffffffffff811115611b7957611b786115af565b5b611b858b828c016119d7565b92509250509295985092959890939650565b60008060008060008060608789031215611bb457611bb36115aa565b5b600087013567ffffffffffffffff811115611bd257611bd16115af565b5b611bde89828a016119d7565b9650965050602087013567ffffffffffffffff811115611c0157611c006115af565b5b611c0d89828a016119d7565b9450945050604087013567ffffffffffffffff811115611c3057611c2f6115af565b5b611c3c89828a016119d7565b92509250509295509295509295565b600060208284031215611c6157611c606115aa565b5b6000611c6f848285016115fd565b91505092915050565b611c81816115d4565b82525050565b6000819050919050565b611c9a81611c87565b82525050565b611ca981611612565b82525050565b60a082016000820151611cc56000850182611c78565b506020820151611cd86020850182611c91565b506040820151611ceb6040850182611ca0565b506060820151611cfe6060850182611ca0565b506080820151611d116080850182611ca0565b50505050565b600060a082019050611d2c6000830184611caf565b92915050565b60006080830160008301518482036000860152611d4f8282611744565b91505060208301518482036020860152611d698282611744565b91505060408301518482036040860152611d838282611744565b91505060608301518482036060860152611d9d8282611744565b9150508091505092915050565b60006020820190508181036000830152611dc48184611d32565b905092915050565b7f4e487b7100000000000000000000000000000000000000000000000000000000600052601160045260246000fd5b6000611e068261168a565b9150611e118361168a565b9250828201905080821115611e2957611e28611dcc565b5b92915050565b7f4e487b7100000000000000000000000000000000000000000000000000000000600052603260045260246000fd5b7f4e487b7100000000000000000000000000000000000000000000000000000000600052602260045260246000fd5b60006002820490506001821680611ea557607f821691505b602082108103611eb857611eb7611e5e565b5b50919050565b600081905092915050565b82818337600083830152505050565b6000611ee48385611ebe565b9350611ef1838584611ec9565b82840190509392505050565b60008160601b9050919050565b6000611f1582611efd565b9050919050565b6000611f2782611f0a565b9050919050565b611f3f611f3a826115d4565b611f1c565b82525050565b6000611f52828789611ed8565b9150611f5f828587611ed8565b9150611f6b8284611f2e565b6014820191508190509695505050505050565b600082825260208201905092915050565b6000611f9b8385611f7e565b9350611fa8838584611ec9565b611fb183611733565b840190509392505050565b60006040820190508181036000830152611fd7818688611f8f565b90508181036020830152611fec818486611f8f565b905095945050505050565b7f4e487b7100000000000000000000000000000000000000000000000000000000600052604160045260246000fd5b60008190508160005260206000209050919050565b60006020601f8301049050919050565b600082821b905092915050565b6000600883026120887fffffffffffffffffffffffffffffffffffffffffffffffffffffffffffffffff8261204b565b612092868361204b565b95508019841693508086168417925050509392505050565b6000819050919050565b60006120cf6120ca6120c58461168a565b6120aa565b61168a565b9050919050565b6000819050919050565b6120e9836120b4565b6120fd6120f5826120d6565b848454612058565b825550505050565b600090565b612112612105565b61211d8184846120e0565b505050565b5b818110156121415761213660008261210a565b600181019050612123565b5050565b601f8211156121865761215781612026565b6121608461203b565b8101602085101561216f578190505b61218361217b8561203b565b830182612122565b50505b505050565b600082821c905092915050565b60006121a96000198460080261218b565b1980831691505092915050565b60006121c28383612198565b9150826002028217905092915050565b6121db826116ed565b67ffffffffffffffff8111156121f4576121f3611ff7565b5b6121fe8254611e8d565b612209828285612145565b600060209050601f83116001811461223c576000841561222a578287015190505b61223485826121b6565b86555061229c565b601f19841661224a86612026565b60005b828110156122725784890151825560018201915060208501945060208101905061224d565b8683101561228f578489015161228b601f891682612198565b8355505b6001600288020188555050505b505050505050565b60006122b1828486611ed8565b91508190509392505050565b60006122c88261168a565b91507fffffffffffffffffffffffffffffffffffffffffffffffffffffffffffffffff82036122fa576122f9611dcc565b5b600182019050919050565b60006123108261168a565b91506000820361232357612322611dcc565b5b60018203905091905056fea264697066735822122031e92a3f4660cb311c78a6e8faccaa771337e7491e2e19296e018888b0f6f3d864736f6c63430008120033",
  "linkReferences": {},
  "deployedLinkReferences": {}
}