{"contracts/Election.sol":{"Election":{"abi":[{"inputs":[],"stateMutability":"nonpayable","type":"constructor"},{"inputs":[],"name":"Election_NotAdmin","type":"error"},{"inputs":[],"name":"Election_VoterNotVerified","type":"error"},{"anonymous":false,"inputs":[{"indexed":true,"internalType":"string","name":"name","type":"string"},{"indexed":false,"internalType":"string","name":"partyName","type":"string"},{"indexed":false,"internalType":"string","name":"slogan","type":"string"}],"name":"CandidateAdded","type":"event"},{"anonymous":false,"inputs":[{"indexed":true,"internalType":"address","name":"voter","type":"address"},{"indexed":false,"internalType":"string","name":"data","type":"string"},{"indexed":false,"internalType":"string","name":"phoneNo","type":"string"}],"name":"VoterRegistered","type":"event"},{"anonymous":false,"inputs":[{"indexed":true,"internalType":"string","name":"adminName","type":"string"},{"indexed":true,"internalType":"string","name":"electionTitle","type":"string"},{"indexed":false,"internalType":"string","name":"adminPosition","type":"string"},{"indexed":false,"internalType":"string","name":"organizationTitle","type":"string"}],"name":"electionAdded","type":"event"},{"inputs":[{"internalType":"uint256","name":"_candidateId","type":"uint256"}],"name":"Vote","outputs":[],"stateMutability":"nonpayable","type":"function"},{"inputs":[{"internalType":"string","name":"_name","type":"string"},{"internalType":"string","name":"_partyName","type":"string"},{"internalType":"string","name":"_slogan","type":"string"}],"name":"addCandidate","outputs":[],"stateMutability":"nonpayable","type":"function"},{"inputs":[],"name":"getAdmin","outputs":[{"internalType":"address","name":"","type":"address"}],"stateMutability":"view","type":"function"},{"inputs":[],"name":"getCandidate","outputs":[{"components":[{"internalType":"string","name":"name","type":"string"},{"internalType":"string","name":"partyName","type":"string"},{"internalType":"string","name":"slogan","type":"string"},{"internalType":"uint256","name":"votes","type":"uint256"}],"internalType":"struct Election.Candidate[]","name":"","type":"tuple[]"}],"stateMutability":"view","type":"function"},{"inputs":[],"name":"getCandidateCount","outputs":[{"internalType":"uint256","name":"","type":"uint256"}],"stateMutability":"view","type":"function"},{"inputs":[],"name":"getElectionDetails","outputs":[{"components":[{"internalType":"string","name":"adminName","type":"string"},{"internalType":"string","name":"adminPosition","type":"string"},{"internalType":"string","name":"electionTitle","type":"string"},{"internalType":"string","name":"organizationTitle","type":"string"}],"internalType":"struct Election.ElectionDetails","name":"","type":"tuple"}],"stateMutability":"view","type":"function"},{"inputs":[],"name":"getEndTime","outputs":[{"internalType":"uint256","name":"","type":"uint256"}],"stateMutability":"view","type":"function"},{"inputs":[],"name":"getStartTime","outputs":[{"internalType":"uint256","name":"","type":"uint256"}],"stateMutability":"view","type":"function"},{"inputs":[],"name":"getVoterDetails","outputs":[{"components":[{"internalType":"address","name":"voter","type":"address"},{"internalType":"bytes32","name":"dataHash","type":"bytes32"},{"internalType":"bool","name":"isRegistered","type":"bool"},{"internalType":"bool","name":"isVerified","type":"bool"},{"internalType":"bool","name":"hasVoted","type":"bool"}],"internalType":"struct Election.Voter","name":"","type":"tuple"}],"stateMutability":"view","type":"function"},{"inputs":[{"internalType":"uint256","name":"_endTime","type":"uint256"}],"name":"initiateElection","outputs":[],"stateMutability":"nonpayable","type":"function"},{"inputs":[{"internalType":"string","name":"_aadhar","type":"string"},{"internalType":"string","name":"_phoneNo","type":"string"}],"name":"registerVoter","outputs":[],"stateMutability":"nonpayable","type":"function"},{"inputs":[{"internalType":"string","name":"_adminName","type":"string"},{"internalType":"string","name":"_adminPosition","type":"string"},{"internalType":"string","name":"_electionTitle","type":"string"},{"internalType":"string","name":"_organizationTitle","type":"string"}],"name":"setElectionDetails","outputs":[],"stateMutability":"nonpayable","type":"function"},{"inputs":[{"internalType":"address","name":"_voter","type":"address"},{"internalType":"bool","name":"_hasVerified","type":"bool"}],"name":"verifyVoter","outputs":[],"stateMutability":"nonpayable","type":"function"}],"devdoc":{"kind":"dev","methods":{},"version":1},"evm":{"bytecode":{"linkReferences":{},"object":"60a060405234801561001057600080fd5b503373ffffffffffffffffffffffffffffffffffffffff1660808173ffffffffffffffffffffffffffffffffffffffff1681525050600160008190555060805161211b61008460003960008181610250015281816103a8015281816107be015281816108540152610ade015261211b6000f3fe608060405234801561001057600080fd5b50600436106100cf5760003560e01c80638a4c88471161008c578063ad71f8dc11610066578063ad71f8dc146101da578063c828371e146101f6578063dcd6a5cd14610214578063ed836bc314610230576100cf565b80638a4c8847146101865780639c302f35146101a2578063a8e546f2146101be576100cf565b806302c9846d146100d457806330a56347146100f0578063439f5ac21461010e5780636e9960c31461012c57806370218b851461014a5780637d24c21014610168575b600080fd5b6100ee60048036038101906100e99190611374565b61024e565b005b6100f8610391565b60405161010591906113cd565b60405180910390f35b61011661039a565b60405161012391906113cd565b60405180910390f35b6101346103a4565b60405161014191906113f7565b60405180910390f35b6101526103cc565b60405161015f91906115e4565b60405180910390f35b6101706105eb565b60405161017d91906116a5565b60405180910390f35b6101a0600480360381019061019b91906117f5565b6105f6565b005b6101bc60048036038101906101b79190611899565b6107bc565b005b6101d860048036038101906101d39190611926565b610852565b005b6101f460048036038101906101ef9190611a0f565b610adc565b005b6101fe610d3c565b60405161020b91906113cd565b60405180910390f35b61022e60048036038101906102299190611899565b610d46565b005b610238610f38565b6040516102459190611b3b565b60405180910390f35b7f000000000000000000000000000000000000000000000000000000000000000073ffffffffffffffffffffffffffffffffffffffff163373ffffffffffffffffffffffffffffffffffffffff16146102d3576040517f921ba71100000000000000000000000000000000000000000000000000000000815260040160405180910390fd5b60011515600960008473ffffffffffffffffffffffffffffffffffffffff1673ffffffffffffffffffffffffffffffffffffffff16815260200190815260200160002060020160019054906101000a900460ff1615150361033357600080fd5b80600960008473ffffffffffffffffffffffffffffffffffffffff1673ffffffffffffffffffffffffffffffffffffffff16815260200190815260200160002060020160016101000a81548160ff0219169083151502179055505050565b60008054905090565b6000600254905090565b60007f0000000000000000000000000000000000000000000000000000000000000000905090565b60606008805480602002602001604051908101604052809291908181526020016000905b828210156105e2578382906000526020600020906004020160405180608001604052908160008201805461042390611b8c565b80601f016020809104026020016040519081016040528092919081815260200182805461044f90611b8c565b801561049c5780601f106104715761010080835404028352916020019161049c565b820191906000526020600020905b81548152906001019060200180831161047f57829003601f168201915b505050505081526020016001820180546104b590611b8c565b80601f01602080910402602001604051908101604052809291908181526020018280546104e190611b8c565b801561052e5780601f106105035761010080835404028352916020019161052e565b820191906000526020600020905b81548152906001019060200180831161051157829003601f168201915b5050505050815260200160028201805461054790611b8c565b80601f016020809104026020016040519081016040528092919081815260200182805461057390611b8c565b80156105c05780601f10610595576101008083540402835291602001916105c0565b820191906000526020600020905b8154815290600101906020018083116105a357829003601f168201915b50505050508152602001600382015481525050815260200190600101906103f0565b50505050905090565b6105f3611254565b90565b600082823360405160200161060d93929190611c41565b6040516020818303038152906040528051906020012090506040518060a001604052803373ffffffffffffffffffffffffffffffffffffffff16815260200182815260200160011515815260200160001515815260200160001515815250600960003373ffffffffffffffffffffffffffffffffffffffff1673ffffffffffffffffffffffffffffffffffffffff16815260200190815260200160002060008201518160000160006101000a81548173ffffffffffffffffffffffffffffffffffffffff021916908373ffffffffffffffffffffffffffffffffffffffff1602179055506020820151816001015560408201518160020160006101000a81548160ff02191690831515021790555060608201518160020160016101000a81548160ff02191690831515021790555060808201518160020160026101000a81548160ff0219169083151502179055509050506107678161119a565b3373ffffffffffffffffffffffffffffffffffffffff167f96ac7a421360a2bd773d747b2f64b40a916821c4906dbfdebf787c292e741f7d84846040516107af929190611cc0565b60405180910390a2505050565b7f000000000000000000000000000000000000000000000000000000000000000073ffffffffffffffffffffffffffffffffffffffff163373ffffffffffffffffffffffffffffffffffffffff1614610841576040517f921ba71100000000000000000000000000000000000000000000000000000000815260040160405180910390fd5b426001819055508060028190555050565b7f000000000000000000000000000000000000000000000000000000000000000073ffffffffffffffffffffffffffffffffffffffff163373ffffffffffffffffffffffffffffffffffffffff16146108d7576040517f921ba71100000000000000000000000000000000000000000000000000000000815260040160405180910390fd5b604051806080016040528089898080601f016020809104026020016040519081016040528093929190818152602001838380828437600081840152601f19601f82011690508083019250505050505050815260200187878080601f016020809104026020016040519081016040528093929190818152602001838380828437600081840152601f19601f82011690508083019250505050505050815260200185858080601f016020809104026020016040519081016040528093929190818152602001838380828437600081840152601f19601f82011690508083019250505050505050815260200183838080601f016020809104026020016040519081016040528093929190818152602001838380828437600081840152601f19601f8201169050808301925050505050505081525060036000820151816000019081610a1f9190611ea3565b506020820151816001019081610a359190611ea3565b506040820151816002019081610a4b9190611ea3565b506060820151816003019081610a619190611ea3565b509050508585604051610a75929190611f9a565b60405180910390208888604051610a8d929190611f9a565b60405180910390207f7c935ef8ac1ff13d70515c002e0f97e28f0e6bf078fc5a48ef58c6f71033b99586868686604051610aca9493929190611fe0565b60405180910390a35050505050505050565b7f000000000000000000000000000000000000000000000000000000000000000073ffffffffffffffffffffffffffffffffffffffff163373ffffffffffffffffffffffffffffffffffffffff1614610b61576040517f921ba71100000000000000000000000000000000000000000000000000000000815260040160405180910390fd5b6008604051806080016040528088888080601f016020809104026020016040519081016040528093929190818152602001838380828437600081840152601f19601f82011690508083019250505050505050815260200186868080601f016020809104026020016040519081016040528093929190818152602001838380828437600081840152601f19601f82011690508083019250505050505050815260200184848080601f016020809104026020016040519081016040528093929190818152602001838380828437600081840152601f19601f820116905080830192505050505050508152602001600081525090806001815401808255809150506001900390600052602060002090600402016000909190919091506000820151816000019081610c8f9190611ea3565b506020820151816001019081610ca59190611ea3565b506040820151816002019081610cbb9190611ea3565b50606082015181600301555050600080815480929190610cda9061204a565b91905055508585604051610cef929190611f9a565b60405180910390207fa620e116e8168f7281127a47ac04518b6fbd8b07cd150397e6e3e56127ce48cf85858585604051610d2c9493929190611fe0565b60405180910390a2505050505050565b6000600154905090565b600960003373ffffffffffffffffffffffffffffffffffffffff1673ffffffffffffffffffffffffffffffffffffffff16815260200190815260200160002060020160019054906101000a900460ff16610dcc576040517f9cf5120e00000000000000000000000000000000000000000000000000000000815260040160405180910390fd5b600960003373ffffffffffffffffffffffffffffffffffffffff1673ffffffffffffffffffffffffffffffffffffffff16815260200190815260200160002060020160029054906101000a900460ff1615610e93576000600b60003373ffffffffffffffffffffffffffffffffffffffff1673ffffffffffffffffffffffffffffffffffffffff168152602001908152602001600020549050600a60008281526020019081526020016000206003016000815480929190610e8c90612092565b9190505550505b60015442118015610ea5575060025442105b610eae57600080fd5b600a60008281526020019081526020016000206003016000815480929190610ed59061204a565b91905055506001600960003373ffffffffffffffffffffffffffffffffffffffff1673ffffffffffffffffffffffffffffffffffffffff16815260200190815260200160002060020160026101000a81548160ff02191690831515021790555050565b610f406112a2565b6003604051806080016040529081600082018054610f5d90611b8c565b80601f0160208091040260200160405190810160405280929190818152602001828054610f8990611b8c565b8015610fd65780601f10610fab57610100808354040283529160200191610fd6565b820191906000526020600020905b815481529060010190602001808311610fb957829003601f168201915b50505050508152602001600182018054610fef90611b8c565b80601f016020809104026020016040519081016040528092919081815260200182805461101b90611b8c565b80156110685780601f1061103d57610100808354040283529160200191611068565b820191906000526020600020905b81548152906001019060200180831161104b57829003601f168201915b5050505050815260200160028201805461108190611b8c565b80601f01602080910402602001604051908101604052809291908181526020018280546110ad90611b8c565b80156110fa5780601f106110cf576101008083540402835291602001916110fa565b820191906000526020600020905b8154815290600101906020018083116110dd57829003601f168201915b5050505050815260200160038201805461111390611b8c565b80601f016020809104026020016040519081016040528092919081815260200182805461113f90611b8c565b801561118c5780601f106111615761010080835404028352916020019161118c565b820191906000526020600020905b81548152906001019060200180831161116f57829003601f168201915b505050505081525050905090565b611230816040516024016111ae91906120ca565b6040516020818303038152906040527f27b7cf85000000000000000000000000000000000000000000000000000000007bffffffffffffffffffffffffffffffffffffffffffffffffffffffff19166020820180517bffffffffffffffffffffffffffffffffffffffffffffffffffffffff8381831617835250505050611233565b50565b60006a636f6e736f6c652e6c6f679050600080835160208501845afa505050565b6040518060a00160405280600073ffffffffffffffffffffffffffffffffffffffff168152602001600080191681526020016000151581526020016000151581526020016000151581525090565b6040518060800160405280606081526020016060815260200160608152602001606081525090565b6000604051905090565b600080fd5b600080fd5b600073ffffffffffffffffffffffffffffffffffffffff82169050919050565b6000611309826112de565b9050919050565b611319816112fe565b811461132457600080fd5b50565b60008135905061133681611310565b92915050565b60008115159050919050565b6113518161133c565b811461135c57600080fd5b50565b60008135905061136e81611348565b92915050565b6000806040838503121561138b5761138a6112d4565b5b600061139985828601611327565b92505060206113aa8582860161135f565b9150509250929050565b6000819050919050565b6113c7816113b4565b82525050565b60006020820190506113e260008301846113be565b92915050565b6113f1816112fe565b82525050565b600060208201905061140c60008301846113e8565b92915050565b600081519050919050565b600082825260208201905092915050565b6000819050602082019050919050565b600081519050919050565b600082825260208201905092915050565b60005b8381101561147857808201518184015260208101905061145d565b60008484015250505050565b6000601f19601f8301169050919050565b60006114a08261143e565b6114aa8185611449565b93506114ba81856020860161145a565b6114c381611484565b840191505092915050565b6114d7816113b4565b82525050565b600060808301600083015184820360008601526114fa8282611495565b915050602083015184820360208601526115148282611495565b9150506040830151848203604086015261152e8282611495565b915050606083015161154360608601826114ce565b508091505092915050565b600061155a83836114dd565b905092915050565b6000602082019050919050565b600061157a82611412565b611584818561141d565b9350836020820285016115968561142e565b8060005b858110156115d257848403895281516115b3858261154e565b94506115be83611562565b925060208a0199505060018101905061159a565b50829750879550505050505092915050565b600060208201905081810360008301526115fe818461156f565b905092915050565b61160f816112fe565b82525050565b6000819050919050565b61162881611615565b82525050565b6116378161133c565b82525050565b60a0820160008201516116536000850182611606565b506020820151611666602085018261161f565b506040820151611679604085018261162e565b50606082015161168c606085018261162e565b50608082015161169f608085018261162e565b50505050565b600060a0820190506116ba600083018461163d565b92915050565b600080fd5b600080fd5b7f4e487b7100000000000000000000000000000000000000000000000000000000600052604160045260246000fd5b61170282611484565b810181811067ffffffffffffffff82111715611721576117206116ca565b5b80604052505050565b60006117346112ca565b905061174082826116f9565b919050565b600067ffffffffffffffff8211156117605761175f6116ca565b5b61176982611484565b9050602081019050919050565b82818337600083830152505050565b600061179861179384611745565b61172a565b9050828152602081018484840111156117b4576117b36116c5565b5b6117bf848285611776565b509392505050565b600082601f8301126117dc576117db6116c0565b5b81356117ec848260208601611785565b91505092915050565b6000806040838503121561180c5761180b6112d4565b5b600083013567ffffffffffffffff81111561182a576118296112d9565b5b611836858286016117c7565b925050602083013567ffffffffffffffff811115611857576118566112d9565b5b611863858286016117c7565b9150509250929050565b611876816113b4565b811461188157600080fd5b50565b6000813590506118938161186d565b92915050565b6000602082840312156118af576118ae6112d4565b5b60006118bd84828501611884565b91505092915050565b600080fd5b600080fd5b60008083601f8401126118e6576118e56116c0565b5b8235905067ffffffffffffffff811115611903576119026118c6565b5b60208301915083600182028301111561191f5761191e6118cb565b5b9250929050565b6000806000806000806000806080898b031215611946576119456112d4565b5b600089013567ffffffffffffffff811115611964576119636112d9565b5b6119708b828c016118d0565b9850985050602089013567ffffffffffffffff811115611993576119926112d9565b5b61199f8b828c016118d0565b9650965050604089013567ffffffffffffffff8111156119c2576119c16112d9565b5b6119ce8b828c016118d0565b9450945050606089013567ffffffffffffffff8111156119f1576119f06112d9565b5b6119fd8b828c016118d0565b92509250509295985092959890939650565b60008060008060008060608789031215611a2c57611a2b6112d4565b5b600087013567ffffffffffffffff811115611a4a57611a496112d9565b5b611a5689828a016118d0565b9650965050602087013567ffffffffffffffff811115611a7957611a786112d9565b5b611a8589828a016118d0565b9450945050604087013567ffffffffffffffff811115611aa857611aa76112d9565b5b611ab489828a016118d0565b92509250509295509295509295565b60006080830160008301518482036000860152611ae08282611495565b91505060208301518482036020860152611afa8282611495565b91505060408301518482036040860152611b148282611495565b91505060608301518482036060860152611b2e8282611495565b9150508091505092915050565b60006020820190508181036000830152611b558184611ac3565b905092915050565b7f4e487b7100000000000000000000000000000000000000000000000000000000600052602260045260246000fd5b60006002820490506001821680611ba457607f821691505b602082108103611bb757611bb6611b5d565b5b50919050565b600081905092915050565b6000611bd38261143e565b611bdd8185611bbd565b9350611bed81856020860161145a565b80840191505092915050565b60008160601b9050919050565b6000611c1182611bf9565b9050919050565b6000611c2382611c06565b9050919050565b611c3b611c36826112fe565b611c18565b82525050565b6000611c4d8286611bc8565b9150611c598285611bc8565b9150611c658284611c2a565b601482019150819050949350505050565b600082825260208201905092915050565b6000611c928261143e565b611c9c8185611c76565b9350611cac81856020860161145a565b611cb581611484565b840191505092915050565b60006040820190508181036000830152611cda8185611c87565b90508181036020830152611cee8184611c87565b90509392505050565b60008190508160005260206000209050919050565b60006020601f8301049050919050565b600082821b905092915050565b600060088302611d597fffffffffffffffffffffffffffffffffffffffffffffffffffffffffffffffff82611d1c565b611d638683611d1c565b95508019841693508086168417925050509392505050565b6000819050919050565b6000611da0611d9b611d96846113b4565b611d7b565b6113b4565b9050919050565b6000819050919050565b611dba83611d85565b611dce611dc682611da7565b848454611d29565b825550505050565b600090565b611de3611dd6565b611dee818484611db1565b505050565b5b81811015611e1257611e07600082611ddb565b600181019050611df4565b5050565b601f821115611e5757611e2881611cf7565b611e3184611d0c565b81016020851015611e40578190505b611e54611e4c85611d0c565b830182611df3565b50505b505050565b600082821c905092915050565b6000611e7a60001984600802611e5c565b1980831691505092915050565b6000611e938383611e69565b9150826002028217905092915050565b611eac8261143e565b67ffffffffffffffff811115611ec557611ec46116ca565b5b611ecf8254611b8c565b611eda828285611e16565b600060209050601f831160018114611f0d5760008415611efb578287015190505b611f058582611e87565b865550611f6d565b601f198416611f1b86611cf7565b60005b82811015611f4357848901518255600182019150602085019450602081019050611f1e565b86831015611f605784890151611f5c601f891682611e69565b8355505b6001600288020188555050505b505050505050565b6000611f818385611bbd565b9350611f8e838584611776565b82840190509392505050565b6000611fa7828486611f75565b91508190509392505050565b6000611fbf8385611c76565b9350611fcc838584611776565b611fd583611484565b840190509392505050565b60006040820190508181036000830152611ffb818688611fb3565b90508181036020830152612010818486611fb3565b905095945050505050565b7f4e487b7100000000000000000000000000000000000000000000000000000000600052601160045260246000fd5b6000612055826113b4565b91507fffffffffffffffffffffffffffffffffffffffffffffffffffffffffffffffff82036120875761208661201b565b5b600182019050919050565b600061209d826113b4565b9150600082036120b0576120af61201b565b5b600182039050919050565b6120c481611615565b82525050565b60006020820190506120df60008301846120bb565b9291505056fea2646970667358221220adf1145035d4319140d9ccad4884aa20bb996742c07b61ebaa216794fc4765d964736f6c63430008120033","opcodes":"PUSH1 0xA0 PUSH1 0x40 MSTORE CALLVALUE DUP1 ISZERO PUSH2 0x10 JUMPI PUSH1 0x0 DUP1 REVERT JUMPDEST POP CALLER PUSH20 0xFFFFFFFFFFFFFFFFFFFFFFFFFFFFFFFFFFFFFFFF AND PUSH1 0x80 DUP2 PUSH20 0xFFFFFFFFFFFFFFFFFFFFFFFFFFFFFFFFFFFFFFFF AND DUP2 MSTORE POP POP PUSH1 0x1 PUSH1 0x0 DUP2 SWAP1 SSTORE POP PUSH1 0x80 MLOAD PUSH2 0x211B PUSH2 0x84 PUSH1 0x0 CODECOPY PUSH1 0x0 DUP2 DUP2 PUSH2 0x250 ADD MSTORE DUP2 DUP2 PUSH2 0x3A8 ADD MSTORE DUP2 DUP2 PUSH2 0x7BE ADD MSTORE DUP2 DUP2 PUSH2 0x854 ADD MSTORE PUSH2 0xADE ADD MSTORE PUSH2 0x211B PUSH1 0x0 RETURN INVALID PUSH1 0x80 PUSH1 0x40 MSTORE CALLVALUE DUP1 ISZERO PUSH2 0x10 JUMPI PUSH1 0x0 DUP1 REVERT JUMPDEST POP PUSH1 0x4 CALLDATASIZE LT PUSH2 0xCF JUMPI PUSH1 0x0 CALLDATALOAD PUSH1 0xE0 SHR DUP1 PUSH4 0x8A4C8847 GT PUSH2 0x8C JUMPI DUP1 PUSH4 0xAD71F8DC GT PUSH2 0x66 JUMPI DUP1 PUSH4 0xAD71F8DC EQ PUSH2 0x1DA JUMPI DUP1 PUSH4 0xC828371E EQ PUSH2 0x1F6 JUMPI DUP1 PUSH4 0xDCD6A5CD EQ PUSH2 0x214 JUMPI DUP1 PUSH4 0xED836BC3 EQ PUSH2 0x230 JUMPI PUSH2 0xCF JUMP JUMPDEST DUP1 PUSH4 0x8A4C8847 EQ PUSH2 0x186 JUMPI DUP1 PUSH4 0x9C302F35 EQ PUSH2 0x1A2 JUMPI DUP1 PUSH4 0xA8E546F2 EQ PUSH2 0x1BE JUMPI PUSH2 0xCF JUMP JUMPDEST DUP1 PUSH4 0x2C9846D EQ PUSH2 0xD4 JUMPI DUP1 PUSH4 0x30A56347 EQ PUSH2 0xF0 JUMPI DUP1 PUSH4 0x439F5AC2 EQ PUSH2 0x10E JUMPI DUP1 PUSH4 0x6E9960C3 EQ PUSH2 0x12C JUMPI DUP1 PUSH4 0x70218B85 EQ PUSH2 0x14A JUMPI DUP1 PUSH4 0x7D24C210 EQ PUSH2 0x168 JUMPI JUMPDEST PUSH1 0x0 DUP1 REVERT JUMPDEST PUSH2 0xEE PUSH1 0x4 DUP1 CALLDATASIZE SUB DUP2 ADD SWAP1 PUSH2 0xE9 SWAP2 SWAP1 PUSH2 0x1374 JUMP JUMPDEST PUSH2 0x24E JUMP JUMPDEST STOP JUMPDEST PUSH2 0xF8 PUSH2 0x391 JUMP JUMPDEST PUSH1 0x40 MLOAD PUSH2 0x105 SWAP2 SWAP1 PUSH2 0x13CD JUMP JUMPDEST PUSH1 0x40 MLOAD DUP1 SWAP2 SUB SWAP1 RETURN JUMPDEST PUSH2 0x116 PUSH2 0x39A JUMP JUMPDEST PUSH1 0x40 MLOAD PUSH2 0x123 SWAP2 SWAP1 PUSH2 0x13CD JUMP JUMPDEST PUSH1 0x40 MLOAD DUP1 SWAP2 SUB SWAP1 RETURN JUMPDEST PUSH2 0x134 PUSH2 0x3A4 JUMP JUMPDEST PUSH1 0x40 MLOAD PUSH2 0x141 SWAP2 SWAP1 PUSH2 0x13F7 JUMP JUMPDEST PUSH1 0x40 MLOAD DUP1 SWAP2 SUB SWAP1 RETURN JUMPDEST PUSH2 0x152 PUSH2 0x3CC JUMP JUMPDEST PUSH1 0x40 MLOAD PUSH2 0x15F SWAP2 SWAP1 PUSH2 0x15E4 JUMP JUMPDEST PUSH1 0x40 MLOAD DUP1 SWAP2 SUB SWAP1 RETURN JUMPDEST PUSH2 0x170 PUSH2 0x5EB JUMP JUMPDEST PUSH1 0x40 MLOAD PUSH2 0x17D SWAP2 SWAP1 PUSH2 0x16A5 JUMP JUMPDEST PUSH1 0x40 MLOAD DUP1 SWAP2 SUB SWAP1 RETURN JUMPDEST PUSH2 0x1A0 PUSH1 0x4 DUP1 CALLDATASIZE SUB DUP2 ADD SWAP1 PUSH2 0x19B SWAP2 SWAP1 PUSH2 0x17F5 JUMP JUMPDEST PUSH2 0x5F6 JUMP JUMPDEST STOP JUMPDEST PUSH2 0x1BC PUSH1 0x4 DUP1 CALLDATASIZE SUB DUP2 ADD SWAP1 PUSH2 0x1B7 SWAP2 SWAP1 PUSH2 0x1899 JUMP JUMPDEST PUSH2 0x7BC JUMP JUMPDEST STOP JUMPDEST PUSH2 0x1D8 PUSH1 0x4 DUP1 CALLDATASIZE SUB DUP2 ADD SWAP1 PUSH2 0x1D3 SWAP2 SWAP1 PUSH2 0x1926 JUMP JUMPDEST PUSH2 0x852 JUMP JUMPDEST STOP JUMPDEST PUSH2 0x1F4 PUSH1 0x4 DUP1 CALLDATASIZE SUB DUP2 ADD SWAP1 PUSH2 0x1EF SWAP2 SWAP1 PUSH2 0x1A0F JUMP JUMPDEST PUSH2 0xADC JUMP JUMPDEST STOP JUMPDEST PUSH2 0x1FE PUSH2 0xD3C JUMP JUMPDEST PUSH1 0x40 MLOAD PUSH2 0x20B SWAP2 SWAP1 PUSH2 0x13CD JUMP JUMPDEST PUSH1 0x40 MLOAD DUP1 SWAP2 SUB SWAP1 RETURN JUMPDEST PUSH2 0x22E PUSH1 0x4 DUP1 CALLDATASIZE SUB DUP2 ADD SWAP1 PUSH2 0x229 SWAP2 SWAP1 PUSH2 0x1899 JUMP JUMPDEST PUSH2 0xD46 JUMP JUMPDEST STOP JUMPDEST PUSH2 0x238 PUSH2 0xF38 JUMP JUMPDEST PUSH1 0x40 MLOAD PUSH2 0x245 SWAP2 SWAP1 PUSH2 0x1B3B JUMP JUMPDEST PUSH1 0x40 MLOAD DUP1 SWAP2 SUB SWAP1 RETURN JUMPDEST PUSH32 0x0 PUSH20 0xFFFFFFFFFFFFFFFFFFFFFFFFFFFFFFFFFFFFFFFF AND CALLER PUSH20 0xFFFFFFFFFFFFFFFFFFFFFFFFFFFFFFFFFFFFFFFF AND EQ PUSH2 0x2D3 JUMPI PUSH1 0x40 MLOAD PUSH32 0x921BA71100000000000000000000000000000000000000000000000000000000 DUP2 MSTORE PUSH1 0x4 ADD PUSH1 0x40 MLOAD DUP1 SWAP2 SUB SWAP1 REVERT JUMPDEST PUSH1 0x1 ISZERO ISZERO PUSH1 0x9 PUSH1 0x0 DUP5 PUSH20 0xFFFFFFFFFFFFFFFFFFFFFFFFFFFFFFFFFFFFFFFF AND PUSH20 0xFFFFFFFFFFFFFFFFFFFFFFFFFFFFFFFFFFFFFFFF AND DUP2 MSTORE PUSH1 0x20 ADD SWAP1 DUP2 MSTORE PUSH1 0x20 ADD PUSH1 0x0 KECCAK256 PUSH1 0x2 ADD PUSH1 0x1 SWAP1 SLOAD SWAP1 PUSH2 0x100 EXP SWAP1 DIV PUSH1 0xFF AND ISZERO ISZERO SUB PUSH2 0x333 JUMPI PUSH1 0x0 DUP1 REVERT JUMPDEST DUP1 PUSH1 0x9 PUSH1 0x0 DUP5 PUSH20 0xFFFFFFFFFFFFFFFFFFFFFFFFFFFFFFFFFFFFFFFF AND PUSH20 0xFFFFFFFFFFFFFFFFFFFFFFFFFFFFFFFFFFFFFFFF AND DUP2 MSTORE PUSH1 0x20 ADD SWAP1 DUP2 MSTORE PUSH1 0x20 ADD PUSH1 0x0 KECCAK256 PUSH1 0x2 ADD PUSH1 0x1 PUSH2 0x100 EXP DUP2 SLOAD DUP2 PUSH1 0xFF MUL NOT AND SWAP1 DUP4 ISZERO ISZERO MUL OR SWAP1 SSTORE POP POP POP JUMP JUMPDEST PUSH1 0x0 DUP1 SLOAD SWAP1 POP SWAP1 JUMP JUMPDEST PUSH1 0x0 PUSH1 0x2 SLOAD SWAP1 POP SWAP1 JUMP JUMPDEST PUSH1 0x0 PUSH32 0x0 SWAP1 POP SWAP1 JUMP JUMPDEST PUSH1 0x60 PUSH1 0x8 DUP1 SLOAD DUP1 PUSH1 0x20 MUL PUSH1 0x20 ADD PUSH1 0x40 MLOAD SWAP1 DUP2 ADD PUSH1 0x40 MSTORE DUP1 SWAP3 SWAP2 SWAP1 DUP2 DUP2 MSTORE PUSH1 0x20 ADD PUSH1 0x0 SWAP1 JUMPDEST DUP3 DUP3 LT ISZERO PUSH2 0x5E2 JUMPI DUP4 DUP3 SWAP1 PUSH1 0x0 MSTORE PUSH1 0x20 PUSH1 0x0 KECCAK256 SWAP1 PUSH1 0x4 MUL ADD PUSH1 0x40 MLOAD DUP1 PUSH1 0x80 ADD PUSH1 0x40 MSTORE SWAP1 DUP2 PUSH1 0x0 DUP3 ADD DUP1 SLOAD PUSH2 0x423 SWAP1 PUSH2 0x1B8C JUMP JUMPDEST DUP1 PUSH1 0x1F ADD PUSH1 0x20 DUP1 SWAP2 DIV MUL PUSH1 0x20 ADD PUSH1 0x40 MLOAD SWAP1 DUP2 ADD PUSH1 0x40 MSTORE DUP1 SWAP3 SWAP2 SWAP1 DUP2 DUP2 MSTORE PUSH1 0x20 ADD DUP3 DUP1 SLOAD PUSH2 0x44F SWAP1 PUSH2 0x1B8C JUMP JUMPDEST DUP1 ISZERO PUSH2 0x49C JUMPI DUP1 PUSH1 0x1F LT PUSH2 0x471 JUMPI PUSH2 0x100 DUP1 DUP4 SLOAD DIV MUL DUP4 MSTORE SWAP2 PUSH1 0x20 ADD SWAP2 PUSH2 0x49C JUMP JUMPDEST DUP3 ADD SWAP2 SWAP1 PUSH1 0x0 MSTORE PUSH1 0x20 PUSH1 0x0 KECCAK256 SWAP1 JUMPDEST DUP2 SLOAD DUP2 MSTORE SWAP1 PUSH1 0x1 ADD SWAP1 PUSH1 0x20 ADD DUP1 DUP4 GT PUSH2 0x47F JUMPI DUP3 SWAP1 SUB PUSH1 0x1F AND DUP3 ADD SWAP2 JUMPDEST POP POP POP POP POP DUP2 MSTORE PUSH1 0x20 ADD PUSH1 0x1 DUP3 ADD DUP1 SLOAD PUSH2 0x4B5 SWAP1 PUSH2 0x1B8C JUMP JUMPDEST DUP1 PUSH1 0x1F ADD PUSH1 0x20 DUP1 SWAP2 DIV MUL PUSH1 0x20 ADD PUSH1 0x40 MLOAD SWAP1 DUP2 ADD PUSH1 0x40 MSTORE DUP1 SWAP3 SWAP2 SWAP1 DUP2 DUP2 MSTORE PUSH1 0x20 ADD DUP3 DUP1 SLOAD PUSH2 0x4E1 SWAP1 PUSH2 0x1B8C JUMP JUMPDEST DUP1 ISZERO PUSH2 0x52E JUMPI DUP1 PUSH1 0x1F LT PUSH2 0x503 JUMPI PUSH2 0x100 DUP1 DUP4 SLOAD DIV MUL DUP4 MSTORE SWAP2 PUSH1 0x20 ADD SWAP2 PUSH2 0x52E JUMP JUMPDEST DUP3 ADD SWAP2 SWAP1 PUSH1 0x0 MSTORE PUSH1 0x20 PUSH1 0x0 KECCAK256 SWAP1 JUMPDEST DUP2 SLOAD DUP2 MSTORE SWAP1 PUSH1 0x1 ADD SWAP1 PUSH1 0x20 ADD DUP1 DUP4 GT PUSH2 0x511 JUMPI DUP3 SWAP1 SUB PUSH1 0x1F AND DUP3 ADD SWAP2 JUMPDEST POP POP POP POP POP DUP2 MSTORE PUSH1 0x20 ADD PUSH1 0x2 DUP3 ADD DUP1 SLOAD PUSH2 0x547 SWAP1 PUSH2 0x1B8C JUMP JUMPDEST DUP1 PUSH1 0x1F ADD PUSH1 0x20 DUP1 SWAP2 DIV MUL PUSH1 0x20 ADD PUSH1 0x40 MLOAD SWAP1 DUP2 ADD PUSH1 0x40 MSTORE DUP1 SWAP3 SWAP2 SWAP1 DUP2 DUP2 MSTORE PUSH1 0x20 ADD DUP3 DUP1 SLOAD PUSH2 0x573 SWAP1 PUSH2 0x1B8C JUMP JUMPDEST DUP1 ISZERO PUSH2 0x5C0 JUMPI DUP1 PUSH1 0x1F LT PUSH2 0x595 JUMPI PUSH2 0x100 DUP1 DUP4 SLOAD DIV MUL DUP4 MSTORE SWAP2 PUSH1 0x20 ADD SWAP2 PUSH2 0x5C0 JUMP JUMPDEST DUP3 ADD SWAP2 SWAP1 PUSH1 0x0 MSTORE PUSH1 0x20 PUSH1 0x0 KECCAK256 SWAP1 JUMPDEST DUP2 SLOAD DUP2 MSTORE SWAP1 PUSH1 0x1 ADD SWAP1 PUSH1 0x20 ADD DUP1 DUP4 GT PUSH2 0x5A3 JUMPI DUP3 SWAP1 SUB PUSH1 0x1F AND DUP3 ADD SWAP2 JUMPDEST POP POP POP POP POP DUP2 MSTORE PUSH1 0x20 ADD PUSH1 0x3 DUP3 ADD SLOAD DUP2 MSTORE POP POP DUP2 MSTORE PUSH1 0x20 ADD SWAP1 PUSH1 0x1 ADD SWAP1 PUSH2 0x3F0 JUMP JUMPDEST POP POP POP POP SWAP1 POP SWAP1 JUMP JUMPDEST PUSH2 0x5F3 PUSH2 0x1254 JUMP JUMPDEST SWAP1 JUMP JUMPDEST PUSH1 0x0 DUP3 DUP3 CALLER PUSH1 0x40 MLOAD PUSH1 0x20 ADD PUSH2 0x60D SWAP4 SWAP3 SWAP2 SWAP1 PUSH2 0x1C41 JUMP JUMPDEST PUSH1 0x40 MLOAD PUSH1 0x20 DUP2 DUP4 SUB SUB DUP2 MSTORE SWAP1 PUSH1 0x40 MSTORE DUP1 MLOAD SWAP1 PUSH1 0x20 ADD KECCAK256 SWAP1 POP PUSH1 0x40 MLOAD DUP1 PUSH1 0xA0 ADD PUSH1 0x40 MSTORE DUP1 CALLER PUSH20 0xFFFFFFFFFFFFFFFFFFFFFFFFFFFFFFFFFFFFFFFF AND DUP2 MSTORE PUSH1 0x20 ADD DUP3 DUP2 MSTORE PUSH1 0x20 ADD PUSH1 0x1 ISZERO ISZERO DUP2 MSTORE PUSH1 0x20 ADD PUSH1 0x0 ISZERO ISZERO DUP2 MSTORE PUSH1 0x20 ADD PUSH1 0x0 ISZERO ISZERO DUP2 MSTORE POP PUSH1 0x9 PUSH1 0x0 CALLER PUSH20 0xFFFFFFFFFFFFFFFFFFFFFFFFFFFFFFFFFFFFFFFF AND PUSH20 0xFFFFFFFFFFFFFFFFFFFFFFFFFFFFFFFFFFFFFFFF AND DUP2 MSTORE PUSH1 0x20 ADD SWAP1 DUP2 MSTORE PUSH1 0x20 ADD PUSH1 0x0 KECCAK256 PUSH1 0x0 DUP3 ADD MLOAD DUP2 PUSH1 0x0 ADD PUSH1 0x0 PUSH2 0x100 EXP DUP2 SLOAD DUP2 PUSH20 0xFFFFFFFFFFFFFFFFFFFFFFFFFFFFFFFFFFFFFFFF MUL NOT AND SWAP1 DUP4 PUSH20 0xFFFFFFFFFFFFFFFFFFFFFFFFFFFFFFFFFFFFFFFF AND MUL OR SWAP1 SSTORE POP PUSH1 0x20 DUP3 ADD MLOAD DUP2 PUSH1 0x1 ADD SSTORE PUSH1 0x40 DUP3 ADD MLOAD DUP2 PUSH1 0x2 ADD PUSH1 0x0 PUSH2 0x100 EXP DUP2 SLOAD DUP2 PUSH1 0xFF MUL NOT AND SWAP1 DUP4 ISZERO ISZERO MUL OR SWAP1 SSTORE POP PUSH1 0x60 DUP3 ADD MLOAD DUP2 PUSH1 0x2 ADD PUSH1 0x1 PUSH2 0x100 EXP DUP2 SLOAD DUP2 PUSH1 0xFF MUL NOT AND SWAP1 DUP4 ISZERO ISZERO MUL OR SWAP1 SSTORE POP PUSH1 0x80 DUP3 ADD MLOAD DUP2 PUSH1 0x2 ADD PUSH1 0x2 PUSH2 0x100 EXP DUP2 SLOAD DUP2 PUSH1 0xFF MUL NOT AND SWAP1 DUP4 ISZERO ISZERO MUL OR SWAP1 SSTORE POP SWAP1 POP POP PUSH2 0x767 DUP2 PUSH2 0x119A JUMP JUMPDEST CALLER PUSH20 0xFFFFFFFFFFFFFFFFFFFFFFFFFFFFFFFFFFFFFFFF AND PUSH32 0x96AC7A421360A2BD773D747B2F64B40A916821C4906DBFDEBF787C292E741F7D DUP5 DUP5 PUSH1 0x40 MLOAD PUSH2 0x7AF SWAP3 SWAP2 SWAP1 PUSH2 0x1CC0 JUMP JUMPDEST PUSH1 0x40 MLOAD DUP1 SWAP2 SUB SWAP1 LOG2 POP POP POP JUMP JUMPDEST PUSH32 0x0 PUSH20 0xFFFFFFFFFFFFFFFFFFFFFFFFFFFFFFFFFFFFFFFF AND CALLER PUSH20 0xFFFFFFFFFFFFFFFFFFFFFFFFFFFFFFFFFFFFFFFF AND EQ PUSH2 0x841 JUMPI PUSH1 0x40 MLOAD PUSH32 0x921BA71100000000000000000000000000000000000000000000000000000000 DUP2 MSTORE PUSH1 0x4 ADD PUSH1 0x40 MLOAD DUP1 SWAP2 SUB SWAP1 REVERT JUMPDEST TIMESTAMP PUSH1 0x1 DUP2 SWAP1 SSTORE POP DUP1 PUSH1 0x2 DUP2 SWAP1 SSTORE POP POP JUMP JUMPDEST PUSH32 0x0 PUSH20 0xFFFFFFFFFFFFFFFFFFFFFFFFFFFFFFFFFFFFFFFF AND CALLER PUSH20 0xFFFFFFFFFFFFFFFFFFFFFFFFFFFFFFFFFFFFFFFF AND EQ PUSH2 0x8D7 JUMPI PUSH1 0x40 MLOAD PUSH32 0x921BA71100000000000000000000000000000000000000000000000000000000 DUP2 MSTORE PUSH1 0x4 ADD PUSH1 0x40 MLOAD DUP1 SWAP2 SUB SWAP1 REVERT JUMPDEST PUSH1 0x40 MLOAD DUP1 PUSH1 0x80 ADD PUSH1 0x40 MSTORE DUP1 DUP10 DUP10 DUP1 DUP1 PUSH1 0x1F ADD PUSH1 0x20 DUP1 SWAP2 DIV MUL PUSH1 0x20 ADD PUSH1 0x40 MLOAD SWAP1 DUP2 ADD PUSH1 0x40 MSTORE DUP1 SWAP4 SWAP3 SWAP2 SWAP1 DUP2 DUP2 MSTORE PUSH1 0x20 ADD DUP4 DUP4 DUP1 DUP3 DUP5 CALLDATACOPY PUSH1 0x0 DUP2 DUP5 ADD MSTORE PUSH1 0x1F NOT PUSH1 0x1F DUP3 ADD AND SWAP1 POP DUP1 DUP4 ADD SWAP3 POP POP POP POP POP POP POP DUP2 MSTORE PUSH1 0x20 ADD DUP8 DUP8 DUP1 DUP1 PUSH1 0x1F ADD PUSH1 0x20 DUP1 SWAP2 DIV MUL PUSH1 0x20 ADD PUSH1 0x40 MLOAD SWAP1 DUP2 ADD PUSH1 0x40 MSTORE DUP1 SWAP4 SWAP3 SWAP2 SWAP1 DUP2 DUP2 MSTORE PUSH1 0x20 ADD DUP4 DUP4 DUP1 DUP3 DUP5 CALLDATACOPY PUSH1 0x0 DUP2 DUP5 ADD MSTORE PUSH1 0x1F NOT PUSH1 0x1F DUP3 ADD AND SWAP1 POP DUP1 DUP4 ADD SWAP3 POP POP POP POP POP POP POP DUP2 MSTORE PUSH1 0x20 ADD DUP6 DUP6 DUP1 DUP1 PUSH1 0x1F ADD PUSH1 0x20 DUP1 SWAP2 DIV MUL PUSH1 0x20 ADD PUSH1 0x40 MLOAD SWAP1 DUP2 ADD PUSH1 0x40 MSTORE DUP1 SWAP4 SWAP3 SWAP2 SWAP1 DUP2 DUP2 MSTORE PUSH1 0x20 ADD DUP4 DUP4 DUP1 DUP3 DUP5 CALLDATACOPY PUSH1 0x0 DUP2 DUP5 ADD MSTORE PUSH1 0x1F NOT PUSH1 0x1F DUP3 ADD AND SWAP1 POP DUP1 DUP4 ADD SWAP3 POP POP POP POP POP POP POP DUP2 MSTORE PUSH1 0x20 ADD DUP4 DUP4 DUP1 DUP1 PUSH1 0x1F ADD PUSH1 0x20 DUP1 SWAP2 DIV MUL PUSH1 0x20 ADD PUSH1 0x40 MLOAD SWAP1 DUP2 ADD PUSH1 0x40 MSTORE DUP1 SWAP4 SWAP3 SWAP2 SWAP1 DUP2 DUP2 MSTORE PUSH1 0x20 ADD DUP4 DUP4 DUP1 DUP3 DUP5 CALLDATACOPY PUSH1 0x0 DUP2 DUP5 ADD MSTORE PUSH1 0x1F NOT PUSH1 0x1F DUP3 ADD AND SWAP1 POP DUP1 DUP4 ADD SWAP3 POP POP POP POP POP POP POP DUP2 MSTORE POP PUSH1 0x3 PUSH1 0x0 DUP3 ADD MLOAD DUP2 PUSH1 0x0 ADD SWAP1 DUP2 PUSH2 0xA1F SWAP2 SWAP1 PUSH2 0x1EA3 JUMP JUMPDEST POP PUSH1 0x20 DUP3 ADD MLOAD DUP2 PUSH1 0x1 ADD SWAP1 DUP2 PUSH2 0xA35 SWAP2 SWAP1 PUSH2 0x1EA3 JUMP JUMPDEST POP PUSH1 0x40 DUP3 ADD MLOAD DUP2 PUSH1 0x2 ADD SWAP1 DUP2 PUSH2 0xA4B SWAP2 SWAP1 PUSH2 0x1EA3 JUMP JUMPDEST POP PUSH1 0x60 DUP3 ADD MLOAD DUP2 PUSH1 0x3 ADD SWAP1 DUP2 PUSH2 0xA61 SWAP2 SWAP1 PUSH2 0x1EA3 JUMP JUMPDEST POP SWAP1 POP POP DUP6 DUP6 PUSH1 0x40 MLOAD PUSH2 0xA75 SWAP3 SWAP2 SWAP1 PUSH2 0x1F9A JUMP JUMPDEST PUSH1 0x40 MLOAD DUP1 SWAP2 SUB SWAP1 KECCAK256 DUP9 DUP9 PUSH1 0x40 MLOAD PUSH2 0xA8D SWAP3 SWAP2 SWAP1 PUSH2 0x1F9A JUMP JUMPDEST PUSH1 0x40 MLOAD DUP1 SWAP2 SUB SWAP1 KECCAK256 PUSH32 0x7C935EF8AC1FF13D70515C002E0F97E28F0E6BF078FC5A48EF58C6F71033B995 DUP7 DUP7 DUP7 DUP7 PUSH1 0x40 MLOAD PUSH2 0xACA SWAP5 SWAP4 SWAP3 SWAP2 SWAP1 PUSH2 0x1FE0 JUMP JUMPDEST PUSH1 0x40 MLOAD DUP1 SWAP2 SUB SWAP1 LOG3 POP POP POP POP POP POP POP POP JUMP JUMPDEST PUSH32 0x0 PUSH20 0xFFFFFFFFFFFFFFFFFFFFFFFFFFFFFFFFFFFFFFFF AND CALLER PUSH20 0xFFFFFFFFFFFFFFFFFFFFFFFFFFFFFFFFFFFFFFFF AND EQ PUSH2 0xB61 JUMPI PUSH1 0x40 MLOAD PUSH32 0x921BA71100000000000000000000000000000000000000000000000000000000 DUP2 MSTORE PUSH1 0x4 ADD PUSH1 0x40 MLOAD DUP1 SWAP2 SUB SWAP1 REVERT JUMPDEST PUSH1 0x8 PUSH1 0x40 MLOAD DUP1 PUSH1 0x80 ADD PUSH1 0x40 MSTORE DUP1 DUP9 DUP9 DUP1 DUP1 PUSH1 0x1F ADD PUSH1 0x20 DUP1 SWAP2 DIV MUL PUSH1 0x20 ADD PUSH1 0x40 MLOAD SWAP1 DUP2 ADD PUSH1 0x40 MSTORE DUP1 SWAP4 SWAP3 SWAP2 SWAP1 DUP2 DUP2 MSTORE PUSH1 0x20 ADD DUP4 DUP4 DUP1 DUP3 DUP5 CALLDATACOPY PUSH1 0x0 DUP2 DUP5 ADD MSTORE PUSH1 0x1F NOT PUSH1 0x1F DUP3 ADD AND SWAP1 POP DUP1 DUP4 ADD SWAP3 POP POP POP POP POP POP POP DUP2 MSTORE PUSH1 0x20 ADD DUP7 DUP7 DUP1 DUP1 PUSH1 0x1F ADD PUSH1 0x20 DUP1 SWAP2 DIV MUL PUSH1 0x20 ADD PUSH1 0x40 MLOAD SWAP1 DUP2 ADD PUSH1 0x40 MSTORE DUP1 SWAP4 SWAP3 SWAP2 SWAP1 DUP2 DUP2 MSTORE PUSH1 0x20 ADD DUP4 DUP4 DUP1 DUP3 DUP5 CALLDATACOPY PUSH1 0x0 DUP2 DUP5 ADD MSTORE PUSH1 0x1F NOT PUSH1 0x1F DUP3 ADD AND SWAP1 POP DUP1 DUP4 ADD SWAP3 POP POP POP POP POP POP POP DUP2 MSTORE PUSH1 0x20 ADD DUP5 DUP5 DUP1 DUP1 PUSH1 0x1F ADD PUSH1 0x20 DUP1 SWAP2 DIV MUL PUSH1 0x20 ADD PUSH1 0x40 MLOAD SWAP1 DUP2 ADD PUSH1 0x40 MSTORE DUP1 SWAP4 SWAP3 SWAP2 SWAP1 DUP2 DUP2 MSTORE PUSH1 0x20 ADD DUP4 DUP4 DUP1 DUP3 DUP5 CALLDATACOPY PUSH1 0x0 DUP2 DUP5 ADD MSTORE PUSH1 0x1F NOT PUSH1 0x1F DUP3 ADD AND SWAP1 POP DUP1 DUP4 ADD SWAP3 POP POP POP POP POP POP POP DUP2 MSTORE PUSH1 0x20 ADD PUSH1 0x0 DUP2 MSTORE POP SWAP1 DUP1 PUSH1 0x1 DUP2 SLOAD ADD DUP1 DUP3 SSTORE DUP1 SWAP2 POP POP PUSH1 0x1 SWAP1 SUB SWAP1 PUSH1 0x0 MSTORE PUSH1 0x20 PUSH1 0x0 KECCAK256 SWAP1 PUSH1 0x4 MUL ADD PUSH1 0x0 SWAP1 SWAP2 SWAP1 SWAP2 SWAP1 SWAP2 POP PUSH1 0x0 DUP3 ADD MLOAD DUP2 PUSH1 0x0 ADD SWAP1 DUP2 PUSH2 0xC8F SWAP2 SWAP1 PUSH2 0x1EA3 JUMP JUMPDEST POP PUSH1 0x20 DUP3 ADD MLOAD DUP2 PUSH1 0x1 ADD SWAP1 DUP2 PUSH2 0xCA5 SWAP2 SWAP1 PUSH2 0x1EA3 JUMP JUMPDEST POP PUSH1 0x40 DUP3 ADD MLOAD DUP2 PUSH1 0x2 ADD SWAP1 DUP2 PUSH2 0xCBB SWAP2 SWAP1 PUSH2 0x1EA3 JUMP JUMPDEST POP PUSH1 0x60 DUP3 ADD MLOAD DUP2 PUSH1 0x3 ADD SSTORE POP POP PUSH1 0x0 DUP1 DUP2 SLOAD DUP1 SWAP3 SWAP2 SWAP1 PUSH2 0xCDA SWAP1 PUSH2 0x204A JUMP JUMPDEST SWAP2 SWAP1 POP SSTORE POP DUP6 DUP6 PUSH1 0x40 MLOAD PUSH2 0xCEF SWAP3 SWAP2 SWAP1 PUSH2 0x1F9A JUMP JUMPDEST PUSH1 0x40 MLOAD DUP1 SWAP2 SUB SWAP1 KECCAK256 PUSH32 0xA620E116E8168F7281127A47AC04518B6FBD8B07CD150397E6E3E56127CE48CF DUP6 DUP6 DUP6 DUP6 PUSH1 0x40 MLOAD PUSH2 0xD2C SWAP5 SWAP4 SWAP3 SWAP2 SWAP1 PUSH2 0x1FE0 JUMP JUMPDEST PUSH1 0x40 MLOAD DUP1 SWAP2 SUB SWAP1 LOG2 POP POP POP POP POP POP JUMP JUMPDEST PUSH1 0x0 PUSH1 0x1 SLOAD SWAP1 POP SWAP1 JUMP JUMPDEST PUSH1 0x9 PUSH1 0x0 CALLER PUSH20 0xFFFFFFFFFFFFFFFFFFFFFFFFFFFFFFFFFFFFFFFF AND PUSH20 0xFFFFFFFFFFFFFFFFFFFFFFFFFFFFFFFFFFFFFFFF AND DUP2 MSTORE PUSH1 0x20 ADD SWAP1 DUP2 MSTORE PUSH1 0x20 ADD PUSH1 0x0 KECCAK256 PUSH1 0x2 ADD PUSH1 0x1 SWAP1 SLOAD SWAP1 PUSH2 0x100 EXP SWAP1 DIV PUSH1 0xFF AND PUSH2 0xDCC JUMPI PUSH1 0x40 MLOAD PUSH32 0x9CF5120E00000000000000000000000000000000000000000000000000000000 DUP2 MSTORE PUSH1 0x4 ADD PUSH1 0x40 MLOAD DUP1 SWAP2 SUB SWAP1 REVERT JUMPDEST PUSH1 0x9 PUSH1 0x0 CALLER PUSH20 0xFFFFFFFFFFFFFFFFFFFFFFFFFFFFFFFFFFFFFFFF AND PUSH20 0xFFFFFFFFFFFFFFFFFFFFFFFFFFFFFFFFFFFFFFFF AND DUP2 MSTORE PUSH1 0x20 ADD SWAP1 DUP2 MSTORE PUSH1 0x20 ADD PUSH1 0x0 KECCAK256 PUSH1 0x2 ADD PUSH1 0x2 SWAP1 SLOAD SWAP1 PUSH2 0x100 EXP SWAP1 DIV PUSH1 0xFF AND ISZERO PUSH2 0xE93 JUMPI PUSH1 0x0 PUSH1 0xB PUSH1 0x0 CALLER PUSH20 0xFFFFFFFFFFFFFFFFFFFFFFFFFFFFFFFFFFFFFFFF AND PUSH20 0xFFFFFFFFFFFFFFFFFFFFFFFFFFFFFFFFFFFFFFFF AND DUP2 MSTORE PUSH1 0x20 ADD SWAP1 DUP2 MSTORE PUSH1 0x20 ADD PUSH1 0x0 KECCAK256 SLOAD SWAP1 POP PUSH1 0xA PUSH1 0x0 DUP3 DUP2 MSTORE PUSH1 0x20 ADD SWAP1 DUP2 MSTORE PUSH1 0x20 ADD PUSH1 0x0 KECCAK256 PUSH1 0x3 ADD PUSH1 0x0 DUP2 SLOAD DUP1 SWAP3 SWAP2 SWAP1 PUSH2 0xE8C SWAP1 PUSH2 0x2092 JUMP JUMPDEST SWAP2 SWAP1 POP SSTORE POP POP JUMPDEST PUSH1 0x1 SLOAD TIMESTAMP GT DUP1 ISZERO PUSH2 0xEA5 JUMPI POP PUSH1 0x2 SLOAD TIMESTAMP LT JUMPDEST PUSH2 0xEAE JUMPI PUSH1 0x0 DUP1 REVERT JUMPDEST PUSH1 0xA PUSH1 0x0 DUP3 DUP2 MSTORE PUSH1 0x20 ADD SWAP1 DUP2 MSTORE PUSH1 0x20 ADD PUSH1 0x0 KECCAK256 PUSH1 0x3 ADD PUSH1 0x0 DUP2 SLOAD DUP1 SWAP3 SWAP2 SWAP1 PUSH2 0xED5 SWAP1 PUSH2 0x204A JUMP JUMPDEST SWAP2 SWAP1 POP SSTORE POP PUSH1 0x1 PUSH1 0x9 PUSH1 0x0 CALLER PUSH20 0xFFFFFFFFFFFFFFFFFFFFFFFFFFFFFFFFFFFFFFFF AND PUSH20 0xFFFFFFFFFFFFFFFFFFFFFFFFFFFFFFFFFFFFFFFF AND DUP2 MSTORE PUSH1 0x20 ADD SWAP1 DUP2 MSTORE PUSH1 0x20 ADD PUSH1 0x0 KECCAK256 PUSH1 0x2 ADD PUSH1 0x2 PUSH2 0x100 EXP DUP2 SLOAD DUP2 PUSH1 0xFF MUL NOT AND SWAP1 DUP4 ISZERO ISZERO MUL OR SWAP1 SSTORE POP POP JUMP JUMPDEST PUSH2 0xF40 PUSH2 0x12A2 JUMP JUMPDEST PUSH1 0x3 PUSH1 0x40 MLOAD DUP1 PUSH1 0x80 ADD PUSH1 0x40 MSTORE SWAP1 DUP2 PUSH1 0x0 DUP3 ADD DUP1 SLOAD PUSH2 0xF5D SWAP1 PUSH2 0x1B8C JUMP JUMPDEST DUP1 PUSH1 0x1F ADD PUSH1 0x20 DUP1 SWAP2 DIV MUL PUSH1 0x20 ADD PUSH1 0x40 MLOAD SWAP1 DUP2 ADD PUSH1 0x40 MSTORE DUP1 SWAP3 SWAP2 SWAP1 DUP2 DUP2 MSTORE PUSH1 0x20 ADD DUP3 DUP1 SLOAD PUSH2 0xF89 SWAP1 PUSH2 0x1B8C JUMP JUMPDEST DUP1 ISZERO PUSH2 0xFD6 JUMPI DUP1 PUSH1 0x1F LT PUSH2 0xFAB JUMPI PUSH2 0x100 DUP1 DUP4 SLOAD DIV MUL DUP4 MSTORE SWAP2 PUSH1 0x20 ADD SWAP2 PUSH2 0xFD6 JUMP JUMPDEST DUP3 ADD SWAP2 SWAP1 PUSH1 0x0 MSTORE PUSH1 0x20 PUSH1 0x0 KECCAK256 SWAP1 JUMPDEST DUP2 SLOAD DUP2 MSTORE SWAP1 PUSH1 0x1 ADD SWAP1 PUSH1 0x20 ADD DUP1 DUP4 GT PUSH2 0xFB9 JUMPI DUP3 SWAP1 SUB PUSH1 0x1F AND DUP3 ADD SWAP2 JUMPDEST POP POP POP POP POP DUP2 MSTORE PUSH1 0x20 ADD PUSH1 0x1 DUP3 ADD DUP1 SLOAD PUSH2 0xFEF SWAP1 PUSH2 0x1B8C JUMP JUMPDEST DUP1 PUSH1 0x1F ADD PUSH1 0x20 DUP1 SWAP2 DIV MUL PUSH1 0x20 ADD PUSH1 0x40 MLOAD SWAP1 DUP2 ADD PUSH1 0x40 MSTORE DUP1 SWAP3 SWAP2 SWAP1 DUP2 DUP2 MSTORE PUSH1 0x20 ADD DUP3 DUP1 SLOAD PUSH2 0x101B SWAP1 PUSH2 0x1B8C JUMP JUMPDEST DUP1 ISZERO PUSH2 0x1068 JUMPI DUP1 PUSH1 0x1F LT PUSH2 0x103D JUMPI PUSH2 0x100 DUP1 DUP4 SLOAD DIV MUL DUP4 MSTORE SWAP2 PUSH1 0x20 ADD SWAP2 PUSH2 0x1068 JUMP JUMPDEST DUP3 ADD SWAP2 SWAP1 PUSH1 0x0 MSTORE PUSH1 0x20 PUSH1 0x0 KECCAK256 SWAP1 JUMPDEST DUP2 SLOAD DUP2 MSTORE SWAP1 PUSH1 0x1 ADD SWAP1 PUSH1 0x20 ADD DUP1 DUP4 GT PUSH2 0x104B JUMPI DUP3 SWAP1 SUB PUSH1 0x1F AND DUP3 ADD SWAP2 JUMPDEST POP POP POP POP POP DUP2 MSTORE PUSH1 0x20 ADD PUSH1 0x2 DUP3 ADD DUP1 SLOAD PUSH2 0x1081 SWAP1 PUSH2 0x1B8C JUMP JUMPDEST DUP1 PUSH1 0x1F ADD PUSH1 0x20 DUP1 SWAP2 DIV MUL PUSH1 0x20 ADD PUSH1 0x40 MLOAD SWAP1 DUP2 ADD PUSH1 0x40 MSTORE DUP1 SWAP3 SWAP2 SWAP1 DUP2 DUP2 MSTORE PUSH1 0x20 ADD DUP3 DUP1 SLOAD PUSH2 0x10AD SWAP1 PUSH2 0x1B8C JUMP JUMPDEST DUP1 ISZERO PUSH2 0x10FA JUMPI DUP1 PUSH1 0x1F LT PUSH2 0x10CF JUMPI PUSH2 0x100 DUP1 DUP4 SLOAD DIV MUL DUP4 MSTORE SWAP2 PUSH1 0x20 ADD SWAP2 PUSH2 0x10FA JUMP JUMPDEST DUP3 ADD SWAP2 SWAP1 PUSH1 0x0 MSTORE PUSH1 0x20 PUSH1 0x0 KECCAK256 SWAP1 JUMPDEST DUP2 SLOAD DUP2 MSTORE SWAP1 PUSH1 0x1 ADD SWAP1 PUSH1 0x20 ADD DUP1 DUP4 GT PUSH2 0x10DD JUMPI DUP3 SWAP1 SUB PUSH1 0x1F AND DUP3 ADD SWAP2 JUMPDEST POP POP POP POP POP DUP2 MSTORE PUSH1 0x20 ADD PUSH1 0x3 DUP3 ADD DUP1 SLOAD PUSH2 0x1113 SWAP1 PUSH2 0x1B8C JUMP JUMPDEST DUP1 PUSH1 0x1F ADD PUSH1 0x20 DUP1 SWAP2 DIV MUL PUSH1 0x20 ADD PUSH1 0x40 MLOAD SWAP1 DUP2 ADD PUSH1 0x40 MSTORE DUP1 SWAP3 SWAP2 SWAP1 DUP2 DUP2 MSTORE PUSH1 0x20 ADD DUP3 DUP1 SLOAD PUSH2 0x113F SWAP1 PUSH2 0x1B8C JUMP JUMPDEST DUP1 ISZERO PUSH2 0x118C JUMPI DUP1 PUSH1 0x1F LT PUSH2 0x1161 JUMPI PUSH2 0x100 DUP1 DUP4 SLOAD DIV MUL DUP4 MSTORE SWAP2 PUSH1 0x20 ADD SWAP2 PUSH2 0x118C JUMP JUMPDEST DUP3 ADD SWAP2 SWAP1 PUSH1 0x0 MSTORE PUSH1 0x20 PUSH1 0x0 KECCAK256 SWAP1 JUMPDEST DUP2 SLOAD DUP2 MSTORE SWAP1 PUSH1 0x1 ADD SWAP1 PUSH1 0x20 ADD DUP1 DUP4 GT PUSH2 0x116F JUMPI DUP3 SWAP1 SUB PUSH1 0x1F AND DUP3 ADD SWAP2 JUMPDEST POP POP POP POP POP DUP2 MSTORE POP POP SWAP1 POP SWAP1 JUMP JUMPDEST PUSH2 0x1230 DUP2 PUSH1 0x40 MLOAD PUSH1 0x24 ADD PUSH2 0x11AE SWAP2 SWAP1 PUSH2 0x20CA JUMP JUMPDEST PUSH1 0x40 MLOAD PUSH1 0x20 DUP2 DUP4 SUB SUB DUP2 MSTORE SWAP1 PUSH1 0x40 MSTORE PUSH32 0x27B7CF8500000000000000000000000000000000000000000000000000000000 PUSH28 0xFFFFFFFFFFFFFFFFFFFFFFFFFFFFFFFFFFFFFFFFFFFFFFFFFFFFFFFF NOT AND PUSH1 0x20 DUP3 ADD DUP1 MLOAD PUSH28 0xFFFFFFFFFFFFFFFFFFFFFFFFFFFFFFFFFFFFFFFFFFFFFFFFFFFFFFFF DUP4 DUP2 DUP4 AND OR DUP4 MSTORE POP POP POP POP PUSH2 0x1233 JUMP JUMPDEST POP JUMP JUMPDEST PUSH1 0x0 PUSH11 0x636F6E736F6C652E6C6F67 SWAP1 POP PUSH1 0x0 DUP1 DUP4 MLOAD PUSH1 0x20 DUP6 ADD DUP5 GAS STATICCALL POP POP POP JUMP JUMPDEST PUSH1 0x40 MLOAD DUP1 PUSH1 0xA0 ADD PUSH1 0x40 MSTORE DUP1 PUSH1 0x0 PUSH20 0xFFFFFFFFFFFFFFFFFFFFFFFFFFFFFFFFFFFFFFFF AND DUP2 MSTORE PUSH1 0x20 ADD PUSH1 0x0 DUP1 NOT AND DUP2 MSTORE PUSH1 0x20 ADD PUSH1 0x0 ISZERO ISZERO DUP2 MSTORE PUSH1 0x20 ADD PUSH1 0x0 ISZERO ISZERO DUP2 MSTORE PUSH1 0x20 ADD PUSH1 0x0 ISZERO ISZERO DUP2 MSTORE POP SWAP1 JUMP JUMPDEST PUSH1 0x40 MLOAD DUP1 PUSH1 0x80 ADD PUSH1 0x40 MSTORE DUP1 PUSH1 0x60 DUP2 MSTORE PUSH1 0x20 ADD PUSH1 0x60 DUP2 MSTORE PUSH1 0x20 ADD PUSH1 0x60 DUP2 MSTORE PUSH1 0x20 ADD PUSH1 0x60 DUP2 MSTORE POP SWAP1 JUMP JUMPDEST PUSH1 0x0 PUSH1 0x40 MLOAD SWAP1 POP SWAP1 JUMP JUMPDEST PUSH1 0x0 DUP1 REVERT JUMPDEST PUSH1 0x0 DUP1 REVERT JUMPDEST PUSH1 0x0 PUSH20 0xFFFFFFFFFFFFFFFFFFFFFFFFFFFFFFFFFFFFFFFF DUP3 AND SWAP1 POP SWAP2 SWAP1 POP JUMP JUMPDEST PUSH1 0x0 PUSH2 0x1309 DUP3 PUSH2 0x12DE JUMP JUMPDEST SWAP1 POP SWAP2 SWAP1 POP JUMP JUMPDEST PUSH2 0x1319 DUP2 PUSH2 0x12FE JUMP JUMPDEST DUP2 EQ PUSH2 0x1324 JUMPI PUSH1 0x0 DUP1 REVERT JUMPDEST POP JUMP JUMPDEST PUSH1 0x0 DUP2 CALLDATALOAD SWAP1 POP PUSH2 0x1336 DUP2 PUSH2 0x1310 JUMP JUMPDEST SWAP3 SWAP2 POP POP JUMP JUMPDEST PUSH1 0x0 DUP2 ISZERO ISZERO SWAP1 POP SWAP2 SWAP1 POP JUMP JUMPDEST PUSH2 0x1351 DUP2 PUSH2 0x133C JUMP JUMPDEST DUP2 EQ PUSH2 0x135C JUMPI PUSH1 0x0 DUP1 REVERT JUMPDEST POP JUMP JUMPDEST PUSH1 0x0 DUP2 CALLDATALOAD SWAP1 POP PUSH2 0x136E DUP2 PUSH2 0x1348 JUMP JUMPDEST SWAP3 SWAP2 POP POP JUMP JUMPDEST PUSH1 0x0 DUP1 PUSH1 0x40 DUP4 DUP6 SUB SLT ISZERO PUSH2 0x138B JUMPI PUSH2 0x138A PUSH2 0x12D4 JUMP JUMPDEST JUMPDEST PUSH1 0x0 PUSH2 0x1399 DUP6 DUP3 DUP7 ADD PUSH2 0x1327 JUMP JUMPDEST SWAP3 POP POP PUSH1 0x20 PUSH2 0x13AA DUP6 DUP3 DUP7 ADD PUSH2 0x135F JUMP JUMPDEST SWAP2 POP POP SWAP3 POP SWAP3 SWAP1 POP JUMP JUMPDEST PUSH1 0x0 DUP2 SWAP1 POP SWAP2 SWAP1 POP JUMP JUMPDEST PUSH2 0x13C7 DUP2 PUSH2 0x13B4 JUMP JUMPDEST DUP3 MSTORE POP POP JUMP JUMPDEST PUSH1 0x0 PUSH1 0x20 DUP3 ADD SWAP1 POP PUSH2 0x13E2 PUSH1 0x0 DUP4 ADD DUP5 PUSH2 0x13BE JUMP JUMPDEST SWAP3 SWAP2 POP POP JUMP JUMPDEST PUSH2 0x13F1 DUP2 PUSH2 0x12FE JUMP JUMPDEST DUP3 MSTORE POP POP JUMP JUMPDEST PUSH1 0x0 PUSH1 0x20 DUP3 ADD SWAP1 POP PUSH2 0x140C PUSH1 0x0 DUP4 ADD DUP5 PUSH2 0x13E8 JUMP JUMPDEST SWAP3 SWAP2 POP POP JUMP JUMPDEST PUSH1 0x0 DUP2 MLOAD SWAP1 POP SWAP2 SWAP1 POP JUMP JUMPDEST PUSH1 0x0 DUP3 DUP3 MSTORE PUSH1 0x20 DUP3 ADD SWAP1 POP SWAP3 SWAP2 POP POP JUMP JUMPDEST PUSH1 0x0 DUP2 SWAP1 POP PUSH1 0x20 DUP3 ADD SWAP1 POP SWAP2 SWAP1 POP JUMP JUMPDEST PUSH1 0x0 DUP2 MLOAD SWAP1 POP SWAP2 SWAP1 POP JUMP JUMPDEST PUSH1 0x0 DUP3 DUP3 MSTORE PUSH1 0x20 DUP3 ADD SWAP1 POP SWAP3 SWAP2 POP POP JUMP JUMPDEST PUSH1 0x0 JUMPDEST DUP4 DUP2 LT ISZERO PUSH2 0x1478 JUMPI DUP1 DUP3 ADD MLOAD DUP2 DUP5 ADD MSTORE PUSH1 0x20 DUP2 ADD SWAP1 POP PUSH2 0x145D JUMP JUMPDEST PUSH1 0x0 DUP5 DUP5 ADD MSTORE POP POP POP POP JUMP JUMPDEST PUSH1 0x0 PUSH1 0x1F NOT PUSH1 0x1F DUP4 ADD AND SWAP1 POP SWAP2 SWAP1 POP JUMP JUMPDEST PUSH1 0x0 PUSH2 0x14A0 DUP3 PUSH2 0x143E JUMP JUMPDEST PUSH2 0x14AA DUP2 DUP6 PUSH2 0x1449 JUMP JUMPDEST SWAP4 POP PUSH2 0x14BA DUP2 DUP6 PUSH1 0x20 DUP7 ADD PUSH2 0x145A JUMP JUMPDEST PUSH2 0x14C3 DUP2 PUSH2 0x1484 JUMP JUMPDEST DUP5 ADD SWAP2 POP POP SWAP3 SWAP2 POP POP JUMP JUMPDEST PUSH2 0x14D7 DUP2 PUSH2 0x13B4 JUMP JUMPDEST DUP3 MSTORE POP POP JUMP JUMPDEST PUSH1 0x0 PUSH1 0x80 DUP4 ADD PUSH1 0x0 DUP4 ADD MLOAD DUP5 DUP3 SUB PUSH1 0x0 DUP7 ADD MSTORE PUSH2 0x14FA DUP3 DUP3 PUSH2 0x1495 JUMP JUMPDEST SWAP2 POP POP PUSH1 0x20 DUP4 ADD MLOAD DUP5 DUP3 SUB PUSH1 0x20 DUP7 ADD MSTORE PUSH2 0x1514 DUP3 DUP3 PUSH2 0x1495 JUMP JUMPDEST SWAP2 POP POP PUSH1 0x40 DUP4 ADD MLOAD DUP5 DUP3 SUB PUSH1 0x40 DUP7 ADD MSTORE PUSH2 0x152E DUP3 DUP3 PUSH2 0x1495 JUMP JUMPDEST SWAP2 POP POP PUSH1 0x60 DUP4 ADD MLOAD PUSH2 0x1543 PUSH1 0x60 DUP7 ADD DUP3 PUSH2 0x14CE JUMP JUMPDEST POP DUP1 SWAP2 POP POP SWAP3 SWAP2 POP POP JUMP JUMPDEST PUSH1 0x0 PUSH2 0x155A DUP4 DUP4 PUSH2 0x14DD JUMP JUMPDEST SWAP1 POP SWAP3 SWAP2 POP POP JUMP JUMPDEST PUSH1 0x0 PUSH1 0x20 DUP3 ADD SWAP1 POP SWAP2 SWAP1 POP JUMP JUMPDEST PUSH1 0x0 PUSH2 0x157A DUP3 PUSH2 0x1412 JUMP JUMPDEST PUSH2 0x1584 DUP2 DUP6 PUSH2 0x141D JUMP JUMPDEST SWAP4 POP DUP4 PUSH1 0x20 DUP3 MUL DUP6 ADD PUSH2 0x1596 DUP6 PUSH2 0x142E JUMP JUMPDEST DUP1 PUSH1 0x0 JUMPDEST DUP6 DUP2 LT ISZERO PUSH2 0x15D2 JUMPI DUP5 DUP5 SUB DUP10 MSTORE DUP2 MLOAD PUSH2 0x15B3 DUP6 DUP3 PUSH2 0x154E JUMP JUMPDEST SWAP5 POP PUSH2 0x15BE DUP4 PUSH2 0x1562 JUMP JUMPDEST SWAP3 POP PUSH1 0x20 DUP11 ADD SWAP10 POP POP PUSH1 0x1 DUP2 ADD SWAP1 POP PUSH2 0x159A JUMP JUMPDEST POP DUP3 SWAP8 POP DUP8 SWAP6 POP POP POP POP POP POP SWAP3 SWAP2 POP POP JUMP JUMPDEST PUSH1 0x0 PUSH1 0x20 DUP3 ADD SWAP1 POP DUP2 DUP2 SUB PUSH1 0x0 DUP4 ADD MSTORE PUSH2 0x15FE DUP2 DUP5 PUSH2 0x156F JUMP JUMPDEST SWAP1 POP SWAP3 SWAP2 POP POP JUMP JUMPDEST PUSH2 0x160F DUP2 PUSH2 0x12FE JUMP JUMPDEST DUP3 MSTORE POP POP JUMP JUMPDEST PUSH1 0x0 DUP2 SWAP1 POP SWAP2 SWAP1 POP JUMP JUMPDEST PUSH2 0x1628 DUP2 PUSH2 0x1615 JUMP JUMPDEST DUP3 MSTORE POP POP JUMP JUMPDEST PUSH2 0x1637 DUP2 PUSH2 0x133C JUMP JUMPDEST DUP3 MSTORE POP POP JUMP JUMPDEST PUSH1 0xA0 DUP3 ADD PUSH1 0x0 DUP3 ADD MLOAD PUSH2 0x1653 PUSH1 0x0 DUP6 ADD DUP3 PUSH2 0x1606 JUMP JUMPDEST POP PUSH1 0x20 DUP3 ADD MLOAD PUSH2 0x1666 PUSH1 0x20 DUP6 ADD DUP3 PUSH2 0x161F JUMP JUMPDEST POP PUSH1 0x40 DUP3 ADD MLOAD PUSH2 0x1679 PUSH1 0x40 DUP6 ADD DUP3 PUSH2 0x162E JUMP JUMPDEST POP PUSH1 0x60 DUP3 ADD MLOAD PUSH2 0x168C PUSH1 0x60 DUP6 ADD DUP3 PUSH2 0x162E JUMP JUMPDEST POP PUSH1 0x80 DUP3 ADD MLOAD PUSH2 0x169F PUSH1 0x80 DUP6 ADD DUP3 PUSH2 0x162E JUMP JUMPDEST POP POP POP POP JUMP JUMPDEST PUSH1 0x0 PUSH1 0xA0 DUP3 ADD SWAP1 POP PUSH2 0x16BA PUSH1 0x0 DUP4 ADD DUP5 PUSH2 0x163D JUMP JUMPDEST SWAP3 SWAP2 POP POP JUMP JUMPDEST PUSH1 0x0 DUP1 REVERT JUMPDEST PUSH1 0x0 DUP1 REVERT JUMPDEST PUSH32 0x4E487B7100000000000000000000000000000000000000000000000000000000 PUSH1 0x0 MSTORE PUSH1 0x41 PUSH1 0x4 MSTORE PUSH1 0x24 PUSH1 0x0 REVERT JUMPDEST PUSH2 0x1702 DUP3 PUSH2 0x1484 JUMP JUMPDEST DUP2 ADD DUP2 DUP2 LT PUSH8 0xFFFFFFFFFFFFFFFF DUP3 GT OR ISZERO PUSH2 0x1721 JUMPI PUSH2 0x1720 PUSH2 0x16CA JUMP JUMPDEST JUMPDEST DUP1 PUSH1 0x40 MSTORE POP POP POP JUMP JUMPDEST PUSH1 0x0 PUSH2 0x1734 PUSH2 0x12CA JUMP JUMPDEST SWAP1 POP PUSH2 0x1740 DUP3 DUP3 PUSH2 0x16F9 JUMP JUMPDEST SWAP2 SWAP1 POP JUMP JUMPDEST PUSH1 0x0 PUSH8 0xFFFFFFFFFFFFFFFF DUP3 GT ISZERO PUSH2 0x1760 JUMPI PUSH2 0x175F PUSH2 0x16CA JUMP JUMPDEST JUMPDEST PUSH2 0x1769 DUP3 PUSH2 0x1484 JUMP JUMPDEST SWAP1 POP PUSH1 0x20 DUP2 ADD SWAP1 POP SWAP2 SWAP1 POP JUMP JUMPDEST DUP3 DUP2 DUP4 CALLDATACOPY PUSH1 0x0 DUP4 DUP4 ADD MSTORE POP POP POP JUMP JUMPDEST PUSH1 0x0 PUSH2 0x1798 PUSH2 0x1793 DUP5 PUSH2 0x1745 JUMP JUMPDEST PUSH2 0x172A JUMP JUMPDEST SWAP1 POP DUP3 DUP2 MSTORE PUSH1 0x20 DUP2 ADD DUP5 DUP5 DUP5 ADD GT ISZERO PUSH2 0x17B4 JUMPI PUSH2 0x17B3 PUSH2 0x16C5 JUMP JUMPDEST JUMPDEST PUSH2 0x17BF DUP5 DUP3 DUP6 PUSH2 0x1776 JUMP JUMPDEST POP SWAP4 SWAP3 POP POP POP JUMP JUMPDEST PUSH1 0x0 DUP3 PUSH1 0x1F DUP4 ADD SLT PUSH2 0x17DC JUMPI PUSH2 0x17DB PUSH2 0x16C0 JUMP JUMPDEST JUMPDEST DUP2 CALLDATALOAD PUSH2 0x17EC DUP5 DUP3 PUSH1 0x20 DUP7 ADD PUSH2 0x1785 JUMP JUMPDEST SWAP2 POP POP SWAP3 SWAP2 POP POP JUMP JUMPDEST PUSH1 0x0 DUP1 PUSH1 0x40 DUP4 DUP6 SUB SLT ISZERO PUSH2 0x180C JUMPI PUSH2 0x180B PUSH2 0x12D4 JUMP JUMPDEST JUMPDEST PUSH1 0x0 DUP4 ADD CALLDATALOAD PUSH8 0xFFFFFFFFFFFFFFFF DUP2 GT ISZERO PUSH2 0x182A JUMPI PUSH2 0x1829 PUSH2 0x12D9 JUMP JUMPDEST JUMPDEST PUSH2 0x1836 DUP6 DUP3 DUP7 ADD PUSH2 0x17C7 JUMP JUMPDEST SWAP3 POP POP PUSH1 0x20 DUP4 ADD CALLDATALOAD PUSH8 0xFFFFFFFFFFFFFFFF DUP2 GT ISZERO PUSH2 0x1857 JUMPI PUSH2 0x1856 PUSH2 0x12D9 JUMP JUMPDEST JUMPDEST PUSH2 0x1863 DUP6 DUP3 DUP7 ADD PUSH2 0x17C7 JUMP JUMPDEST SWAP2 POP POP SWAP3 POP SWAP3 SWAP1 POP JUMP JUMPDEST PUSH2 0x1876 DUP2 PUSH2 0x13B4 JUMP JUMPDEST DUP2 EQ PUSH2 0x1881 JUMPI PUSH1 0x0 DUP1 REVERT JUMPDEST POP JUMP JUMPDEST PUSH1 0x0 DUP2 CALLDATALOAD SWAP1 POP PUSH2 0x1893 DUP2 PUSH2 0x186D JUMP JUMPDEST SWAP3 SWAP2 POP POP JUMP JUMPDEST PUSH1 0x0 PUSH1 0x20 DUP3 DUP5 SUB SLT ISZERO PUSH2 0x18AF JUMPI PUSH2 0x18AE PUSH2 0x12D4 JUMP JUMPDEST JUMPDEST PUSH1 0x0 PUSH2 0x18BD DUP5 DUP3 DUP6 ADD PUSH2 0x1884 JUMP JUMPDEST SWAP2 POP POP SWAP3 SWAP2 POP POP JUMP JUMPDEST PUSH1 0x0 DUP1 REVERT JUMPDEST PUSH1 0x0 DUP1 REVERT JUMPDEST PUSH1 0x0 DUP1 DUP4 PUSH1 0x1F DUP5 ADD SLT PUSH2 0x18E6 JUMPI PUSH2 0x18E5 PUSH2 0x16C0 JUMP JUMPDEST JUMPDEST DUP3 CALLDATALOAD SWAP1 POP PUSH8 0xFFFFFFFFFFFFFFFF DUP2 GT ISZERO PUSH2 0x1903 JUMPI PUSH2 0x1902 PUSH2 0x18C6 JUMP JUMPDEST JUMPDEST PUSH1 0x20 DUP4 ADD SWAP2 POP DUP4 PUSH1 0x1 DUP3 MUL DUP4 ADD GT ISZERO PUSH2 0x191F JUMPI PUSH2 0x191E PUSH2 0x18CB JUMP JUMPDEST JUMPDEST SWAP3 POP SWAP3 SWAP1 POP JUMP JUMPDEST PUSH1 0x0 DUP1 PUSH1 0x0 DUP1 PUSH1 0x0 DUP1 PUSH1 0x0 DUP1 PUSH1 0x80 DUP10 DUP12 SUB SLT ISZERO PUSH2 0x1946 JUMPI PUSH2 0x1945 PUSH2 0x12D4 JUMP JUMPDEST JUMPDEST PUSH1 0x0 DUP10 ADD CALLDATALOAD PUSH8 0xFFFFFFFFFFFFFFFF DUP2 GT ISZERO PUSH2 0x1964 JUMPI PUSH2 0x1963 PUSH2 0x12D9 JUMP JUMPDEST JUMPDEST PUSH2 0x1970 DUP12 DUP3 DUP13 ADD PUSH2 0x18D0 JUMP JUMPDEST SWAP9 POP SWAP9 POP POP PUSH1 0x20 DUP10 ADD CALLDATALOAD PUSH8 0xFFFFFFFFFFFFFFFF DUP2 GT ISZERO PUSH2 0x1993 JUMPI PUSH2 0x1992 PUSH2 0x12D9 JUMP JUMPDEST JUMPDEST PUSH2 0x199F DUP12 DUP3 DUP13 ADD PUSH2 0x18D0 JUMP JUMPDEST SWAP7 POP SWAP7 POP POP PUSH1 0x40 DUP10 ADD CALLDATALOAD PUSH8 0xFFFFFFFFFFFFFFFF DUP2 GT ISZERO PUSH2 0x19C2 JUMPI PUSH2 0x19C1 PUSH2 0x12D9 JUMP JUMPDEST JUMPDEST PUSH2 0x19CE DUP12 DUP3 DUP13 ADD PUSH2 0x18D0 JUMP JUMPDEST SWAP5 POP SWAP5 POP POP PUSH1 0x60 DUP10 ADD CALLDATALOAD PUSH8 0xFFFFFFFFFFFFFFFF DUP2 GT ISZERO PUSH2 0x19F1 JUMPI PUSH2 0x19F0 PUSH2 0x12D9 JUMP JUMPDEST JUMPDEST PUSH2 0x19FD DUP12 DUP3 DUP13 ADD PUSH2 0x18D0 JUMP JUMPDEST SWAP3 POP SWAP3 POP POP SWAP3 SWAP6 SWAP9 POP SWAP3 SWAP6 SWAP9 SWAP1 SWAP4 SWAP7 POP JUMP JUMPDEST PUSH1 0x0 DUP1 PUSH1 0x0 DUP1 PUSH1 0x0 DUP1 PUSH1 0x60 DUP8 DUP10 SUB SLT ISZERO PUSH2 0x1A2C JUMPI PUSH2 0x1A2B PUSH2 0x12D4 JUMP JUMPDEST JUMPDEST PUSH1 0x0 DUP8 ADD CALLDATALOAD PUSH8 0xFFFFFFFFFFFFFFFF DUP2 GT ISZERO PUSH2 0x1A4A JUMPI PUSH2 0x1A49 PUSH2 0x12D9 JUMP JUMPDEST JUMPDEST PUSH2 0x1A56 DUP10 DUP3 DUP11 ADD PUSH2 0x18D0 JUMP JUMPDEST SWAP7 POP SWAP7 POP POP PUSH1 0x20 DUP8 ADD CALLDATALOAD PUSH8 0xFFFFFFFFFFFFFFFF DUP2 GT ISZERO PUSH2 0x1A79 JUMPI PUSH2 0x1A78 PUSH2 0x12D9 JUMP JUMPDEST JUMPDEST PUSH2 0x1A85 DUP10 DUP3 DUP11 ADD PUSH2 0x18D0 JUMP JUMPDEST SWAP5 POP SWAP5 POP POP PUSH1 0x40 DUP8 ADD CALLDATALOAD PUSH8 0xFFFFFFFFFFFFFFFF DUP2 GT ISZERO PUSH2 0x1AA8 JUMPI PUSH2 0x1AA7 PUSH2 0x12D9 JUMP JUMPDEST JUMPDEST PUSH2 0x1AB4 DUP10 DUP3 DUP11 ADD PUSH2 0x18D0 JUMP JUMPDEST SWAP3 POP SWAP3 POP POP SWAP3 SWAP6 POP SWAP3 SWAP6 POP SWAP3 SWAP6 JUMP JUMPDEST PUSH1 0x0 PUSH1 0x80 DUP4 ADD PUSH1 0x0 DUP4 ADD MLOAD DUP5 DUP3 SUB PUSH1 0x0 DUP7 ADD MSTORE PUSH2 0x1AE0 DUP3 DUP3 PUSH2 0x1495 JUMP JUMPDEST SWAP2 POP POP PUSH1 0x20 DUP4 ADD MLOAD DUP5 DUP3 SUB PUSH1 0x20 DUP7 ADD MSTORE PUSH2 0x1AFA DUP3 DUP3 PUSH2 0x1495 JUMP JUMPDEST SWAP2 POP POP PUSH1 0x40 DUP4 ADD MLOAD DUP5 DUP3 SUB PUSH1 0x40 DUP7 ADD MSTORE PUSH2 0x1B14 DUP3 DUP3 PUSH2 0x1495 JUMP JUMPDEST SWAP2 POP POP PUSH1 0x60 DUP4 ADD MLOAD DUP5 DUP3 SUB PUSH1 0x60 DUP7 ADD MSTORE PUSH2 0x1B2E DUP3 DUP3 PUSH2 0x1495 JUMP JUMPDEST SWAP2 POP POP DUP1 SWAP2 POP POP SWAP3 SWAP2 POP POP JUMP JUMPDEST PUSH1 0x0 PUSH1 0x20 DUP3 ADD SWAP1 POP DUP2 DUP2 SUB PUSH1 0x0 DUP4 ADD MSTORE PUSH2 0x1B55 DUP2 DUP5 PUSH2 0x1AC3 JUMP JUMPDEST SWAP1 POP SWAP3 SWAP2 POP POP JUMP JUMPDEST PUSH32 0x4E487B7100000000000000000000000000000000000000000000000000000000 PUSH1 0x0 MSTORE PUSH1 0x22 PUSH1 0x4 MSTORE PUSH1 0x24 PUSH1 0x0 REVERT JUMPDEST PUSH1 0x0 PUSH1 0x2 DUP3 DIV SWAP1 POP PUSH1 0x1 DUP3 AND DUP1 PUSH2 0x1BA4 JUMPI PUSH1 0x7F DUP3 AND SWAP2 POP JUMPDEST PUSH1 0x20 DUP3 LT DUP2 SUB PUSH2 0x1BB7 JUMPI PUSH2 0x1BB6 PUSH2 0x1B5D JUMP JUMPDEST JUMPDEST POP SWAP2 SWAP1 POP JUMP JUMPDEST PUSH1 0x0 DUP2 SWAP1 POP SWAP3 SWAP2 POP POP JUMP JUMPDEST PUSH1 0x0 PUSH2 0x1BD3 DUP3 PUSH2 0x143E JUMP JUMPDEST PUSH2 0x1BDD DUP2 DUP6 PUSH2 0x1BBD JUMP JUMPDEST SWAP4 POP PUSH2 0x1BED DUP2 DUP6 PUSH1 0x20 DUP7 ADD PUSH2 0x145A JUMP JUMPDEST DUP1 DUP5 ADD SWAP2 POP POP SWAP3 SWAP2 POP POP JUMP JUMPDEST PUSH1 0x0 DUP2 PUSH1 0x60 SHL SWAP1 POP SWAP2 SWAP1 POP JUMP JUMPDEST PUSH1 0x0 PUSH2 0x1C11 DUP3 PUSH2 0x1BF9 JUMP JUMPDEST SWAP1 POP SWAP2 SWAP1 POP JUMP JUMPDEST PUSH1 0x0 PUSH2 0x1C23 DUP3 PUSH2 0x1C06 JUMP JUMPDEST SWAP1 POP SWAP2 SWAP1 POP JUMP JUMPDEST PUSH2 0x1C3B PUSH2 0x1C36 DUP3 PUSH2 0x12FE JUMP JUMPDEST PUSH2 0x1C18 JUMP JUMPDEST DUP3 MSTORE POP POP JUMP JUMPDEST PUSH1 0x0 PUSH2 0x1C4D DUP3 DUP7 PUSH2 0x1BC8 JUMP JUMPDEST SWAP2 POP PUSH2 0x1C59 DUP3 DUP6 PUSH2 0x1BC8 JUMP JUMPDEST SWAP2 POP PUSH2 0x1C65 DUP3 DUP5 PUSH2 0x1C2A JUMP JUMPDEST PUSH1 0x14 DUP3 ADD SWAP2 POP DUP2 SWAP1 POP SWAP5 SWAP4 POP POP POP POP JUMP JUMPDEST PUSH1 0x0 DUP3 DUP3 MSTORE PUSH1 0x20 DUP3 ADD SWAP1 POP SWAP3 SWAP2 POP POP JUMP JUMPDEST PUSH1 0x0 PUSH2 0x1C92 DUP3 PUSH2 0x143E JUMP JUMPDEST PUSH2 0x1C9C DUP2 DUP6 PUSH2 0x1C76 JUMP JUMPDEST SWAP4 POP PUSH2 0x1CAC DUP2 DUP6 PUSH1 0x20 DUP7 ADD PUSH2 0x145A JUMP JUMPDEST PUSH2 0x1CB5 DUP2 PUSH2 0x1484 JUMP JUMPDEST DUP5 ADD SWAP2 POP POP SWAP3 SWAP2 POP POP JUMP JUMPDEST PUSH1 0x0 PUSH1 0x40 DUP3 ADD SWAP1 POP DUP2 DUP2 SUB PUSH1 0x0 DUP4 ADD MSTORE PUSH2 0x1CDA DUP2 DUP6 PUSH2 0x1C87 JUMP JUMPDEST SWAP1 POP DUP2 DUP2 SUB PUSH1 0x20 DUP4 ADD MSTORE PUSH2 0x1CEE DUP2 DUP5 PUSH2 0x1C87 JUMP JUMPDEST SWAP1 POP SWAP4 SWAP3 POP POP POP JUMP JUMPDEST PUSH1 0x0 DUP2 SWAP1 POP DUP2 PUSH1 0x0 MSTORE PUSH1 0x20 PUSH1 0x0 KECCAK256 SWAP1 POP SWAP2 SWAP1 POP JUMP JUMPDEST PUSH1 0x0 PUSH1 0x20 PUSH1 0x1F DUP4 ADD DIV SWAP1 POP SWAP2 SWAP1 POP JUMP JUMPDEST PUSH1 0x0 DUP3 DUP3 SHL SWAP1 POP SWAP3 SWAP2 POP POP JUMP JUMPDEST PUSH1 0x0 PUSH1 0x8 DUP4 MUL PUSH2 0x1D59 PUSH32 0xFFFFFFFFFFFFFFFFFFFFFFFFFFFFFFFFFFFFFFFFFFFFFFFFFFFFFFFFFFFFFFFF DUP3 PUSH2 0x1D1C JUMP JUMPDEST PUSH2 0x1D63 DUP7 DUP4 PUSH2 0x1D1C JUMP JUMPDEST SWAP6 POP DUP1 NOT DUP5 AND SWAP4 POP DUP1 DUP7 AND DUP5 OR SWAP3 POP POP POP SWAP4 SWAP3 POP POP POP JUMP JUMPDEST PUSH1 0x0 DUP2 SWAP1 POP SWAP2 SWAP1 POP JUMP JUMPDEST PUSH1 0x0 PUSH2 0x1DA0 PUSH2 0x1D9B PUSH2 0x1D96 DUP5 PUSH2 0x13B4 JUMP JUMPDEST PUSH2 0x1D7B JUMP JUMPDEST PUSH2 0x13B4 JUMP JUMPDEST SWAP1 POP SWAP2 SWAP1 POP JUMP JUMPDEST PUSH1 0x0 DUP2 SWAP1 POP SWAP2 SWAP1 POP JUMP JUMPDEST PUSH2 0x1DBA DUP4 PUSH2 0x1D85 JUMP JUMPDEST PUSH2 0x1DCE PUSH2 0x1DC6 DUP3 PUSH2 0x1DA7 JUMP JUMPDEST DUP5 DUP5 SLOAD PUSH2 0x1D29 JUMP JUMPDEST DUP3 SSTORE POP POP POP POP JUMP JUMPDEST PUSH1 0x0 SWAP1 JUMP JUMPDEST PUSH2 0x1DE3 PUSH2 0x1DD6 JUMP JUMPDEST PUSH2 0x1DEE DUP2 DUP5 DUP5 PUSH2 0x1DB1 JUMP JUMPDEST POP POP POP JUMP JUMPDEST JUMPDEST DUP2 DUP2 LT ISZERO PUSH2 0x1E12 JUMPI PUSH2 0x1E07 PUSH1 0x0 DUP3 PUSH2 0x1DDB JUMP JUMPDEST PUSH1 0x1 DUP2 ADD SWAP1 POP PUSH2 0x1DF4 JUMP JUMPDEST POP POP JUMP JUMPDEST PUSH1 0x1F DUP3 GT ISZERO PUSH2 0x1E57 JUMPI PUSH2 0x1E28 DUP2 PUSH2 0x1CF7 JUMP JUMPDEST PUSH2 0x1E31 DUP5 PUSH2 0x1D0C JUMP JUMPDEST DUP2 ADD PUSH1 0x20 DUP6 LT ISZERO PUSH2 0x1E40 JUMPI DUP2 SWAP1 POP JUMPDEST PUSH2 0x1E54 PUSH2 0x1E4C DUP6 PUSH2 0x1D0C JUMP JUMPDEST DUP4 ADD DUP3 PUSH2 0x1DF3 JUMP JUMPDEST POP POP JUMPDEST POP POP POP JUMP JUMPDEST PUSH1 0x0 DUP3 DUP3 SHR SWAP1 POP SWAP3 SWAP2 POP POP JUMP JUMPDEST PUSH1 0x0 PUSH2 0x1E7A PUSH1 0x0 NOT DUP5 PUSH1 0x8 MUL PUSH2 0x1E5C JUMP JUMPDEST NOT DUP1 DUP4 AND SWAP2 POP POP SWAP3 SWAP2 POP POP JUMP JUMPDEST PUSH1 0x0 PUSH2 0x1E93 DUP4 DUP4 PUSH2 0x1E69 JUMP JUMPDEST SWAP2 POP DUP3 PUSH1 0x2 MUL DUP3 OR SWAP1 POP SWAP3 SWAP2 POP POP JUMP JUMPDEST PUSH2 0x1EAC DUP3 PUSH2 0x143E JUMP JUMPDEST PUSH8 0xFFFFFFFFFFFFFFFF DUP2 GT ISZERO PUSH2 0x1EC5 JUMPI PUSH2 0x1EC4 PUSH2 0x16CA JUMP JUMPDEST JUMPDEST PUSH2 0x1ECF DUP3 SLOAD PUSH2 0x1B8C JUMP JUMPDEST PUSH2 0x1EDA DUP3 DUP3 DUP6 PUSH2 0x1E16 JUMP JUMPDEST PUSH1 0x0 PUSH1 0x20 SWAP1 POP PUSH1 0x1F DUP4 GT PUSH1 0x1 DUP2 EQ PUSH2 0x1F0D JUMPI PUSH1 0x0 DUP5 ISZERO PUSH2 0x1EFB JUMPI DUP3 DUP8 ADD MLOAD SWAP1 POP JUMPDEST PUSH2 0x1F05 DUP6 DUP3 PUSH2 0x1E87 JUMP JUMPDEST DUP7 SSTORE POP PUSH2 0x1F6D JUMP JUMPDEST PUSH1 0x1F NOT DUP5 AND PUSH2 0x1F1B DUP7 PUSH2 0x1CF7 JUMP JUMPDEST PUSH1 0x0 JUMPDEST DUP3 DUP2 LT ISZERO PUSH2 0x1F43 JUMPI DUP5 DUP10 ADD MLOAD DUP3 SSTORE PUSH1 0x1 DUP3 ADD SWAP2 POP PUSH1 0x20 DUP6 ADD SWAP5 POP PUSH1 0x20 DUP2 ADD SWAP1 POP PUSH2 0x1F1E JUMP JUMPDEST DUP7 DUP4 LT ISZERO PUSH2 0x1F60 JUMPI DUP5 DUP10 ADD MLOAD PUSH2 0x1F5C PUSH1 0x1F DUP10 AND DUP3 PUSH2 0x1E69 JUMP JUMPDEST DUP4 SSTORE POP JUMPDEST PUSH1 0x1 PUSH1 0x2 DUP9 MUL ADD DUP9 SSTORE POP POP POP JUMPDEST POP POP POP POP POP POP JUMP JUMPDEST PUSH1 0x0 PUSH2 0x1F81 DUP4 DUP6 PUSH2 0x1BBD JUMP JUMPDEST SWAP4 POP PUSH2 0x1F8E DUP4 DUP6 DUP5 PUSH2 0x1776 JUMP JUMPDEST DUP3 DUP5 ADD SWAP1 POP SWAP4 SWAP3 POP POP POP JUMP JUMPDEST PUSH1 0x0 PUSH2 0x1FA7 DUP3 DUP5 DUP7 PUSH2 0x1F75 JUMP JUMPDEST SWAP2 POP DUP2 SWAP1 POP SWAP4 SWAP3 POP POP POP JUMP JUMPDEST PUSH1 0x0 PUSH2 0x1FBF DUP4 DUP6 PUSH2 0x1C76 JUMP JUMPDEST SWAP4 POP PUSH2 0x1FCC DUP4 DUP6 DUP5 PUSH2 0x1776 JUMP JUMPDEST PUSH2 0x1FD5 DUP4 PUSH2 0x1484 JUMP JUMPDEST DUP5 ADD SWAP1 POP SWAP4 SWAP3 POP POP POP JUMP JUMPDEST PUSH1 0x0 PUSH1 0x40 DUP3 ADD SWAP1 POP DUP2 DUP2 SUB PUSH1 0x0 DUP4 ADD MSTORE PUSH2 0x1FFB DUP2 DUP7 DUP9 PUSH2 0x1FB3 JUMP JUMPDEST SWAP1 POP DUP2 DUP2 SUB PUSH1 0x20 DUP4 ADD MSTORE PUSH2 0x2010 DUP2 DUP5 DUP7 PUSH2 0x1FB3 JUMP JUMPDEST SWAP1 POP SWAP6 SWAP5 POP POP POP POP POP JUMP JUMPDEST PUSH32 0x4E487B7100000000000000000000000000000000000000000000000000000000 PUSH1 0x0 MSTORE PUSH1 0x11 PUSH1 0x4 MSTORE PUSH1 0x24 PUSH1 0x0 REVERT JUMPDEST PUSH1 0x0 PUSH2 0x2055 DUP3 PUSH2 0x13B4 JUMP JUMPDEST SWAP2 POP PUSH32 0xFFFFFFFFFFFFFFFFFFFFFFFFFFFFFFFFFFFFFFFFFFFFFFFFFFFFFFFFFFFFFFFF DUP3 SUB PUSH2 0x2087 JUMPI PUSH2 0x2086 PUSH2 0x201B JUMP JUMPDEST JUMPDEST PUSH1 0x1 DUP3 ADD SWAP1 POP SWAP2 SWAP1 POP JUMP JUMPDEST PUSH1 0x0 PUSH2 0x209D DUP3 PUSH2 0x13B4 JUMP JUMPDEST SWAP2 POP PUSH1 0x0 DUP3 SUB PUSH2 0x20B0 JUMPI PUSH2 0x20AF PUSH2 0x201B JUMP JUMPDEST JUMPDEST PUSH1 0x1 DUP3 SUB SWAP1 POP SWAP2 SWAP1 POP JUMP JUMPDEST PUSH2 0x20C4 DUP2 PUSH2 0x1615 JUMP JUMPDEST DUP3 MSTORE POP POP JUMP JUMPDEST PUSH1 0x0 PUSH1 0x20 DUP3 ADD SWAP1 POP PUSH2 0x20DF PUSH1 0x0 DUP4 ADD DUP5 PUSH2 0x20BB JUMP JUMPDEST SWAP3 SWAP2 POP POP JUMP INVALID LOG2 PUSH5 0x6970667358 0x22 SLT KECCAK256 0xAD CALL EQ POP CALLDATALOAD 0xD4 BALANCE SWAP2 BLOCKHASH 0xD9 0xCC 0xAD BASEFEE DUP5 0xAA KECCAK256 0xBB SWAP10 PUSH8 0x42C07B61EBAA2167 SWAP5 0xFC SELFBALANCE PUSH6 0xD964736F6C63 NUMBER STOP ADDMOD SLT STOP CALLER "},"gasEstimates":{"creation":{"codeDepositCost":"1695000","executionCost":"infinite","totalCost":"infinite"},"external":{"Vote(uint256)":"infinite","addCandidate(string,string,string)":"infinite","getAdmin()":"infinite","getCandidate()":"infinite","getCandidateCount()":"2460","getElectionDetails()":"infinite","getEndTime()":"2482","getStartTime()":"2481","getVoterDetails()":"infinite","initiateElection(uint256)":"infinite","registerVoter(string,string)":"infinite","setElectionDetails(string,string,string,string)":"infinite","verifyVoter(address,bool)":"infinite"}},"methodIdentifiers":{"Vote(uint256)":"dcd6a5cd","addCandidate(string,string,string)":"ad71f8dc","getAdmin()":"6e9960c3","getCandidate()":"70218b85","getCandidateCount()":"30a56347","getElectionDetails()":"ed836bc3","getEndTime()":"439f5ac2","getStartTime()":"c828371e","getVoterDetails()":"7d24c210","initiateElection(uint256)":"9c302f35","registerVoter(string,string)":"8a4c8847","setElectionDetails(string,string,string,string)":"a8e546f2","verifyVoter(address,bool)":"02c9846d"}},"storageLayout":{"storage":[{"astId":10,"contract":"contracts/Election.sol:Election","label":"candidateCount","offset":0,"slot":"0","type":"t_uint256"},{"astId":12,"contract":"contracts/Election.sol:Election","label":"start","offset":0,"slot":"1","type":"t_uint256"},{"astId":14,"contract":"contracts/Election.sol:Election","label":"end","offset":0,"slot":"2","type":"t_uint256"},{"astId":46,"contract":"contracts/Election.sol:Election","label":"electionDetails","offset":0,"slot":"3","type":"t_struct(ElectionDetails)23_storage"},{"astId":49,"contract":"contracts/Election.sol:Election","label":"Voters","offset":0,"slot":"7","type":"t_array(t_address)dyn_storage"},{"astId":53,"contract":"contracts/Election.sol:Election","label":"Candidates","offset":0,"slot":"8","type":"t_array(t_struct(Candidate)32_storage)dyn_storage"},{"astId":58,"contract":"contracts/Election.sol:Election","label":"voterDetails","offset":0,"slot":"9","type":"t_mapping(t_address,t_struct(Voter)43_storage)"},{"astId":63,"contract":"contracts/Election.sol:Election","label":"candidateDetails","offset":0,"slot":"10","type":"t_mapping(t_uint256,t_struct(Candidate)32_storage)"},{"astId":67,"contract":"contracts/Election.sol:Election","label":"votedDetail","offset":0,"slot":"11","type":"t_mapping(t_address,t_uint256)"}],"types":{"t_address":{"encoding":"inplace","label":"address","numberOfBytes":"20"},"t_array(t_address)dyn_storage":{"base":"t_address","encoding":"dynamic_array","label":"address[]","numberOfBytes":"32"},"t_array(t_struct(Candidate)32_storage)dyn_storage":{"base":"t_struct(Candidate)32_storage","encoding":"dynamic_array","label":"struct Election.Candidate[]","numberOfBytes":"32"},"t_bool":{"encoding":"inplace","label":"bool","numberOfBytes":"1"},"t_bytes32":{"encoding":"inplace","label":"bytes32","numberOfBytes":"32"},"t_mapping(t_address,t_struct(Voter)43_storage)":{"encoding":"mapping","key":"t_address","label":"mapping(address => struct Election.Voter)","numberOfBytes":"32","value":"t_struct(Voter)43_storage"},"t_mapping(t_address,t_uint256)":{"encoding":"mapping","key":"t_address","label":"mapping(address => uint256)","numberOfBytes":"32","value":"t_uint256"},"t_mapping(t_uint256,t_struct(Candidate)32_storage)":{"encoding":"mapping","key":"t_uint256","label":"mapping(uint256 => struct Election.Candidate)","numberOfBytes":"32","value":"t_struct(Candidate)32_storage"},"t_string_storage":{"encoding":"bytes","label":"string","numberOfBytes":"32"},"t_struct(Candidate)32_storage":{"encoding":"inplace","label":"struct Election.Candidate","members":[{"astId":25,"contract":"contracts/Election.sol:Election","label":"name","offset":0,"slot":"0","type":"t_string_storage"},{"astId":27,"contract":"contracts/Election.sol:Election","label":"partyName","offset":0,"slot":"1","type":"t_string_storage"},{"astId":29,"contract":"contracts/Election.sol:Election","label":"slogan","offset":0,"slot":"2","type":"t_string_storage"},{"astId":31,"contract":"contracts/Election.sol:Election","label":"votes","offset":0,"slot":"3","type":"t_uint256"}],"numberOfBytes":"128"},"t_struct(ElectionDetails)23_storage":{"encoding":"inplace","label":"struct Election.ElectionDetails","members":[{"astId":16,"contract":"contracts/Election.sol:Election","label":"adminName","offset":0,"slot":"0","type":"t_string_storage"},{"astId":18,"contract":"contracts/Election.sol:Election","label":"adminPosition","offset":0,"slot":"1","type":"t_string_storage"},{"astId":20,"contract":"contracts/Election.sol:Election","label":"electionTitle","offset":0,"slot":"2","type":"t_string_storage"},{"astId":22,"contract":"contracts/Election.sol:Election","label":"organizationTitle","offset":0,"slot":"3","type":"t_string_storage"}],"numberOfBytes":"128"},"t_struct(Voter)43_storage":{"encoding":"inplace","label":"struct Election.Voter","members":[{"astId":34,"contract":"contracts/Election.sol:Election","label":"voter","offset":0,"slot":"0","type":"t_address"},{"astId":36,"contract":"contracts/Election.sol:Election","label":"dataHash","offset":0,"slot":"1","type":"t_bytes32"},{"astId":38,"contract":"contracts/Election.sol:Election","label":"isRegistered","offset":0,"slot":"2","type":"t_bool"},{"astId":40,"contract":"contracts/Election.sol:Election","label":"isVerified","offset":1,"slot":"2","type":"t_bool"},{"astId":42,"contract":"contracts/Election.sol:Election","label":"hasVoted","offset":2,"slot":"2","type":"t_bool"}],"numberOfBytes":"96"},"t_uint256":{"encoding":"inplace","label":"uint256","numberOfBytes":"32"}}},"userdoc":{"kind":"user","methods":{},"version":1}}}}