{"contracts/Election.sol":{"Election":{"abi":[{"inputs":[],"stateMutability":"nonpayable","type":"constructor"},{"inputs":[],"name":"Election_NotAdmin","type":"error"},{"inputs":[],"name":"Election_VoterNotVerified","type":"error"},{"anonymous":false,"inputs":[{"indexed":false,"internalType":"string","name":"","type":"string"},{"indexed":false,"internalType":"address","name":"","type":"address"},{"indexed":false,"internalType":"string","name":"","type":"string"},{"indexed":false,"internalType":"string","name":"","type":"string"}],"name":"CandidateAdded","type":"event"},{"anonymous":false,"inputs":[{"indexed":false,"internalType":"address","name":"voter","type":"address"},{"indexed":false,"internalType":"string","name":"data","type":"string"},{"indexed":false,"internalType":"string","name":"phoneNo","type":"string"}],"name":"VoterRegistered","type":"event"},{"inputs":[{"internalType":"uint256","name":"_candidateId","type":"uint256"}],"name":"Vote","outputs":[],"stateMutability":"nonpayable","type":"function"},{"inputs":[{"internalType":"string","name":"_name","type":"string"},{"internalType":"address","name":"_candidate","type":"address"},{"internalType":"string","name":"_partyName","type":"string"},{"internalType":"string","name":"_slogan","type":"string"}],"name":"addCandidate","outputs":[],"stateMutability":"nonpayable","type":"function"},{"inputs":[],"name":"getAdminDetails","outputs":[{"internalType":"address","name":"","type":"address"}],"stateMutability":"view","type":"function"},{"inputs":[{"internalType":"string","name":"_aadhar","type":"string"},{"internalType":"string","name":"_phoneNo","type":"string"}],"name":"registerVoter","outputs":[],"stateMutability":"nonpayable","type":"function"},{"inputs":[{"internalType":"address","name":"_voter","type":"address"}],"name":"verifyVoter","outputs":[],"stateMutability":"nonpayable","type":"function"}],"devdoc":{"kind":"dev","methods":{},"version":1},"evm":{"bytecode":{"linkReferences":{},"object":"60a060405234801561001057600080fd5b503373ffffffffffffffffffffffffffffffffffffffff1660808173ffffffffffffffffffffffffffffffffffffffff1681525050600160008190555060805161131c6100756000396000818160ec015281816102310152610408015261131c6000f3fe608060405234801561001057600080fd5b50600436106100575760003560e01c806309bd09501461005c57806317e6f02e146100785780638a4c884714610096578063d908095d146100b2578063dcd6a5cd146100ce575b600080fd5b6100766004803603810190610071919061095a565b6100ea565b005b61008061022d565b60405161008d9190610996565b60405180910390f35b6100b060048036038101906100ab9190610af7565b610255565b005b6100cc60048036038101906100c79190610bcf565b610406565b005b6100e860048036038101906100e39190610cce565b6106b2565b005b7f000000000000000000000000000000000000000000000000000000000000000073ffffffffffffffffffffffffffffffffffffffff163373ffffffffffffffffffffffffffffffffffffffff161461016f576040517f921ba71100000000000000000000000000000000000000000000000000000000815260040160405180910390fd5b60011515600360008373ffffffffffffffffffffffffffffffffffffffff1673ffffffffffffffffffffffffffffffffffffffff16815260200190815260200160002060020160019054906101000a900460ff161515036101cf57600080fd5b6001600360008373ffffffffffffffffffffffffffffffffffffffff1673ffffffffffffffffffffffffffffffffffffffff16815260200190815260200160002060020160016101000a81548160ff02191690831515021790555050565b60007f0000000000000000000000000000000000000000000000000000000000000000905090565b600082823360405160200161026c93929190610db4565b6040516020818303038152906040528051906020012090506040518060a001604052803373ffffffffffffffffffffffffffffffffffffffff16815260200182815260200160011515815260200160001515815260200160001515815250600360003373ffffffffffffffffffffffffffffffffffffffff1673ffffffffffffffffffffffffffffffffffffffff16815260200190815260200160002060008201518160000160006101000a81548173ffffffffffffffffffffffffffffffffffffffff021916908373ffffffffffffffffffffffffffffffffffffffff1602179055506020820151816001015560408201518160020160006101000a81548160ff02191690831515021790555060608201518160020160016101000a81548160ff02191690831515021790555060808201518160020160026101000a81548160ff0219169083151502179055509050506103c68161082e565b7f96ac7a421360a2bd773d747b2f64b40a916821c4906dbfdebf787c292e741f7d3384846040516103f993929190610e33565b60405180910390a1505050565b7f000000000000000000000000000000000000000000000000000000000000000073ffffffffffffffffffffffffffffffffffffffff163373ffffffffffffffffffffffffffffffffffffffff161461048b576040517f921ba71100000000000000000000000000000000000000000000000000000000815260040160405180910390fd5b6040518060a0016040528088888080601f016020809104026020016040519081016040528093929190818152602001838380828437600081840152601f19601f8201169050808301925050505050505081526020018673ffffffffffffffffffffffffffffffffffffffff16815260200185858080601f016020809104026020016040519081016040528093929190818152602001838380828437600081840152601f19601f82011690508083019250505050505050815260200183838080601f016020809104026020016040519081016040528093929190818152602001838380828437600081840152601f19601f82011690508083019250505050505050815260200160008152506002600054815481106105ab576105aa610e78565b5b906000526020600020906005020160008201518160000190816105ce91906110b3565b5060208201518160010160006101000a81548173ffffffffffffffffffffffffffffffffffffffff021916908373ffffffffffffffffffffffffffffffffffffffff160217905550604082015181600201908161062b91906110b3565b50606082015181600301908161064191906110b3565b5060808201518160040155905050600080815480929190610661906111b4565b91905055507f3e803cd24ee89cdeb21fdeb1abae02f3645470ee6d9dbde6d6a32e8d9a3d9bbf878787878787876040516106a19796959493929190611229565b60405180910390a150505050505050565b600360003373ffffffffffffffffffffffffffffffffffffffff1673ffffffffffffffffffffffffffffffffffffffff16815260200190815260200160002060020160019054906101000a900460ff16610738576040517f9cf5120e00000000000000000000000000000000000000000000000000000000815260040160405180910390fd5b600360003373ffffffffffffffffffffffffffffffffffffffff1673ffffffffffffffffffffffffffffffffffffffff16815260200190815260200160002060020160029054906101000a900460ff16156107ff576000600560003373ffffffffffffffffffffffffffffffffffffffff1673ffffffffffffffffffffffffffffffffffffffff1681526020019081526020016000205490506004600082815260200190815260200160002060040160008154809291906107f890611289565b9190505550505b600460008281526020019081526020016000206004016000815480929190610826906111b4565b919050555050565b6108c48160405160240161084291906112cb565b6040516020818303038152906040527f27b7cf85000000000000000000000000000000000000000000000000000000007bffffffffffffffffffffffffffffffffffffffffffffffffffffffff19166020820180517bffffffffffffffffffffffffffffffffffffffffffffffffffffffff83818316178352505050506108c7565b50565b60006a636f6e736f6c652e6c6f679050600080835160208501845afa505050565b6000604051905090565b600080fd5b600080fd5b600073ffffffffffffffffffffffffffffffffffffffff82169050919050565b6000610927826108fc565b9050919050565b6109378161091c565b811461094257600080fd5b50565b6000813590506109548161092e565b92915050565b6000602082840312156109705761096f6108f2565b5b600061097e84828501610945565b91505092915050565b6109908161091c565b82525050565b60006020820190506109ab6000830184610987565b92915050565b600080fd5b600080fd5b6000601f19601f8301169050919050565b7f4e487b7100000000000000000000000000000000000000000000000000000000600052604160045260246000fd5b610a04826109bb565b810181811067ffffffffffffffff82111715610a2357610a226109cc565b5b80604052505050565b6000610a366108e8565b9050610a4282826109fb565b919050565b600067ffffffffffffffff821115610a6257610a616109cc565b5b610a6b826109bb565b9050602081019050919050565b82818337600083830152505050565b6000610a9a610a9584610a47565b610a2c565b905082815260208101848484011115610ab657610ab56109b6565b5b610ac1848285610a78565b509392505050565b600082601f830112610ade57610add6109b1565b5b8135610aee848260208601610a87565b91505092915050565b60008060408385031215610b0e57610b0d6108f2565b5b600083013567ffffffffffffffff811115610b2c57610b2b6108f7565b5b610b3885828601610ac9565b925050602083013567ffffffffffffffff811115610b5957610b586108f7565b5b610b6585828601610ac9565b9150509250929050565b600080fd5b600080fd5b60008083601f840112610b8f57610b8e6109b1565b5b8235905067ffffffffffffffff811115610bac57610bab610b6f565b5b602083019150836001820283011115610bc857610bc7610b74565b5b9250929050565b60008060008060008060006080888a031215610bee57610bed6108f2565b5b600088013567ffffffffffffffff811115610c0c57610c0b6108f7565b5b610c188a828b01610b79565b97509750506020610c2b8a828b01610945565b955050604088013567ffffffffffffffff811115610c4c57610c4b6108f7565b5b610c588a828b01610b79565b9450945050606088013567ffffffffffffffff811115610c7b57610c7a6108f7565b5b610c878a828b01610b79565b925092505092959891949750929550565b6000819050919050565b610cab81610c98565b8114610cb657600080fd5b50565b600081359050610cc881610ca2565b92915050565b600060208284031215610ce457610ce36108f2565b5b6000610cf284828501610cb9565b91505092915050565b600081519050919050565b600081905092915050565b60005b83811015610d2f578082015181840152602081019050610d14565b60008484015250505050565b6000610d4682610cfb565b610d508185610d06565b9350610d60818560208601610d11565b80840191505092915050565b60008160601b9050919050565b6000610d8482610d6c565b9050919050565b6000610d9682610d79565b9050919050565b610dae610da98261091c565b610d8b565b82525050565b6000610dc08286610d3b565b9150610dcc8285610d3b565b9150610dd88284610d9d565b601482019150819050949350505050565b600082825260208201905092915050565b6000610e0582610cfb565b610e0f8185610de9565b9350610e1f818560208601610d11565b610e28816109bb565b840191505092915050565b6000606082019050610e486000830186610987565b8181036020830152610e5a8185610dfa565b90508181036040830152610e6e8184610dfa565b9050949350505050565b7f4e487b7100000000000000000000000000000000000000000000000000000000600052603260045260246000fd5b7f4e487b7100000000000000000000000000000000000000000000000000000000600052602260045260246000fd5b60006002820490506001821680610eee57607f821691505b602082108103610f0157610f00610ea7565b5b50919050565b60008190508160005260206000209050919050565b60006020601f8301049050919050565b600082821b905092915050565b600060088302610f697fffffffffffffffffffffffffffffffffffffffffffffffffffffffffffffffff82610f2c565b610f738683610f2c565b95508019841693508086168417925050509392505050565b6000819050919050565b6000610fb0610fab610fa684610c98565b610f8b565b610c98565b9050919050565b6000819050919050565b610fca83610f95565b610fde610fd682610fb7565b848454610f39565b825550505050565b600090565b610ff3610fe6565b610ffe818484610fc1565b505050565b5b8181101561102257611017600082610feb565b600181019050611004565b5050565b601f8211156110675761103881610f07565b61104184610f1c565b81016020851015611050578190505b61106461105c85610f1c565b830182611003565b50505b505050565b600082821c905092915050565b600061108a6000198460080261106c565b1980831691505092915050565b60006110a38383611079565b9150826002028217905092915050565b6110bc82610cfb565b67ffffffffffffffff8111156110d5576110d46109cc565b5b6110df8254610ed6565b6110ea828285611026565b600060209050601f83116001811461111d576000841561110b578287015190505b6111158582611097565b86555061117d565b601f19841661112b86610f07565b60005b828110156111535784890151825560018201915060208501945060208101905061112e565b86831015611170578489015161116c601f891682611079565b8355505b6001600288020188555050505b505050505050565b7f4e487b7100000000000000000000000000000000000000000000000000000000600052601160045260246000fd5b60006111bf82610c98565b91507fffffffffffffffffffffffffffffffffffffffffffffffffffffffffffffffff82036111f1576111f0611185565b5b600182019050919050565b60006112088385610de9565b9350611215838584610a78565b61121e836109bb565b840190509392505050565b6000608082019050818103600083015261124481898b6111fc565b90506112536020830188610987565b81810360408301526112668186886111fc565b9050818103606083015261127b8184866111fc565b905098975050505050505050565b600061129482610c98565b9150600082036112a7576112a6611185565b5b600182039050919050565b6000819050919050565b6112c5816112b2565b82525050565b60006020820190506112e060008301846112bc565b9291505056fea26469706673582212201043c655fd15ef4502d7219d55e5576be36fb2c9001417f6761de4fe5b33cfdb64736f6c63430008120033","opcodes":"PUSH1 0xA0 PUSH1 0x40 MSTORE CALLVALUE DUP1 ISZERO PUSH2 0x10 JUMPI PUSH1 0x0 DUP1 REVERT JUMPDEST POP CALLER PUSH20 0xFFFFFFFFFFFFFFFFFFFFFFFFFFFFFFFFFFFFFFFF AND PUSH1 0x80 DUP2 PUSH20 0xFFFFFFFFFFFFFFFFFFFFFFFFFFFFFFFFFFFFFFFF AND DUP2 MSTORE POP POP PUSH1 0x1 PUSH1 0x0 DUP2 SWAP1 SSTORE POP PUSH1 0x80 MLOAD PUSH2 0x131C PUSH2 0x75 PUSH1 0x0 CODECOPY PUSH1 0x0 DUP2 DUP2 PUSH1 0xEC ADD MSTORE DUP2 DUP2 PUSH2 0x231 ADD MSTORE PUSH2 0x408 ADD MSTORE PUSH2 0x131C PUSH1 0x0 RETURN INVALID PUSH1 0x80 PUSH1 0x40 MSTORE CALLVALUE DUP1 ISZERO PUSH2 0x10 JUMPI PUSH1 0x0 DUP1 REVERT JUMPDEST POP PUSH1 0x4 CALLDATASIZE LT PUSH2 0x57 JUMPI PUSH1 0x0 CALLDATALOAD PUSH1 0xE0 SHR DUP1 PUSH4 0x9BD0950 EQ PUSH2 0x5C JUMPI DUP1 PUSH4 0x17E6F02E EQ PUSH2 0x78 JUMPI DUP1 PUSH4 0x8A4C8847 EQ PUSH2 0x96 JUMPI DUP1 PUSH4 0xD908095D EQ PUSH2 0xB2 JUMPI DUP1 PUSH4 0xDCD6A5CD EQ PUSH2 0xCE JUMPI JUMPDEST PUSH1 0x0 DUP1 REVERT JUMPDEST PUSH2 0x76 PUSH1 0x4 DUP1 CALLDATASIZE SUB DUP2 ADD SWAP1 PUSH2 0x71 SWAP2 SWAP1 PUSH2 0x95A JUMP JUMPDEST PUSH2 0xEA JUMP JUMPDEST STOP JUMPDEST PUSH2 0x80 PUSH2 0x22D JUMP JUMPDEST PUSH1 0x40 MLOAD PUSH2 0x8D SWAP2 SWAP1 PUSH2 0x996 JUMP JUMPDEST PUSH1 0x40 MLOAD DUP1 SWAP2 SUB SWAP1 RETURN JUMPDEST PUSH2 0xB0 PUSH1 0x4 DUP1 CALLDATASIZE SUB DUP2 ADD SWAP1 PUSH2 0xAB SWAP2 SWAP1 PUSH2 0xAF7 JUMP JUMPDEST PUSH2 0x255 JUMP JUMPDEST STOP JUMPDEST PUSH2 0xCC PUSH1 0x4 DUP1 CALLDATASIZE SUB DUP2 ADD SWAP1 PUSH2 0xC7 SWAP2 SWAP1 PUSH2 0xBCF JUMP JUMPDEST PUSH2 0x406 JUMP JUMPDEST STOP JUMPDEST PUSH2 0xE8 PUSH1 0x4 DUP1 CALLDATASIZE SUB DUP2 ADD SWAP1 PUSH2 0xE3 SWAP2 SWAP1 PUSH2 0xCCE JUMP JUMPDEST PUSH2 0x6B2 JUMP JUMPDEST STOP JUMPDEST PUSH32 0x0 PUSH20 0xFFFFFFFFFFFFFFFFFFFFFFFFFFFFFFFFFFFFFFFF AND CALLER PUSH20 0xFFFFFFFFFFFFFFFFFFFFFFFFFFFFFFFFFFFFFFFF AND EQ PUSH2 0x16F JUMPI PUSH1 0x40 MLOAD PUSH32 0x921BA71100000000000000000000000000000000000000000000000000000000 DUP2 MSTORE PUSH1 0x4 ADD PUSH1 0x40 MLOAD DUP1 SWAP2 SUB SWAP1 REVERT JUMPDEST PUSH1 0x1 ISZERO ISZERO PUSH1 0x3 PUSH1 0x0 DUP4 PUSH20 0xFFFFFFFFFFFFFFFFFFFFFFFFFFFFFFFFFFFFFFFF AND PUSH20 0xFFFFFFFFFFFFFFFFFFFFFFFFFFFFFFFFFFFFFFFF AND DUP2 MSTORE PUSH1 0x20 ADD SWAP1 DUP2 MSTORE PUSH1 0x20 ADD PUSH1 0x0 KECCAK256 PUSH1 0x2 ADD PUSH1 0x1 SWAP1 SLOAD SWAP1 PUSH2 0x100 EXP SWAP1 DIV PUSH1 0xFF AND ISZERO ISZERO SUB PUSH2 0x1CF JUMPI PUSH1 0x0 DUP1 REVERT JUMPDEST PUSH1 0x1 PUSH1 0x3 PUSH1 0x0 DUP4 PUSH20 0xFFFFFFFFFFFFFFFFFFFFFFFFFFFFFFFFFFFFFFFF AND PUSH20 0xFFFFFFFFFFFFFFFFFFFFFFFFFFFFFFFFFFFFFFFF AND DUP2 MSTORE PUSH1 0x20 ADD SWAP1 DUP2 MSTORE PUSH1 0x20 ADD PUSH1 0x0 KECCAK256 PUSH1 0x2 ADD PUSH1 0x1 PUSH2 0x100 EXP DUP2 SLOAD DUP2 PUSH1 0xFF MUL NOT AND SWAP1 DUP4 ISZERO ISZERO MUL OR SWAP1 SSTORE POP POP JUMP JUMPDEST PUSH1 0x0 PUSH32 0x0 SWAP1 POP SWAP1 JUMP JUMPDEST PUSH1 0x0 DUP3 DUP3 CALLER PUSH1 0x40 MLOAD PUSH1 0x20 ADD PUSH2 0x26C SWAP4 SWAP3 SWAP2 SWAP1 PUSH2 0xDB4 JUMP JUMPDEST PUSH1 0x40 MLOAD PUSH1 0x20 DUP2 DUP4 SUB SUB DUP2 MSTORE SWAP1 PUSH1 0x40 MSTORE DUP1 MLOAD SWAP1 PUSH1 0x20 ADD KECCAK256 SWAP1 POP PUSH1 0x40 MLOAD DUP1 PUSH1 0xA0 ADD PUSH1 0x40 MSTORE DUP1 CALLER PUSH20 0xFFFFFFFFFFFFFFFFFFFFFFFFFFFFFFFFFFFFFFFF AND DUP2 MSTORE PUSH1 0x20 ADD DUP3 DUP2 MSTORE PUSH1 0x20 ADD PUSH1 0x1 ISZERO ISZERO DUP2 MSTORE PUSH1 0x20 ADD PUSH1 0x0 ISZERO ISZERO DUP2 MSTORE PUSH1 0x20 ADD PUSH1 0x0 ISZERO ISZERO DUP2 MSTORE POP PUSH1 0x3 PUSH1 0x0 CALLER PUSH20 0xFFFFFFFFFFFFFFFFFFFFFFFFFFFFFFFFFFFFFFFF AND PUSH20 0xFFFFFFFFFFFFFFFFFFFFFFFFFFFFFFFFFFFFFFFF AND DUP2 MSTORE PUSH1 0x20 ADD SWAP1 DUP2 MSTORE PUSH1 0x20 ADD PUSH1 0x0 KECCAK256 PUSH1 0x0 DUP3 ADD MLOAD DUP2 PUSH1 0x0 ADD PUSH1 0x0 PUSH2 0x100 EXP DUP2 SLOAD DUP2 PUSH20 0xFFFFFFFFFFFFFFFFFFFFFFFFFFFFFFFFFFFFFFFF MUL NOT AND SWAP1 DUP4 PUSH20 0xFFFFFFFFFFFFFFFFFFFFFFFFFFFFFFFFFFFFFFFF AND MUL OR SWAP1 SSTORE POP PUSH1 0x20 DUP3 ADD MLOAD DUP2 PUSH1 0x1 ADD SSTORE PUSH1 0x40 DUP3 ADD MLOAD DUP2 PUSH1 0x2 ADD PUSH1 0x0 PUSH2 0x100 EXP DUP2 SLOAD DUP2 PUSH1 0xFF MUL NOT AND SWAP1 DUP4 ISZERO ISZERO MUL OR SWAP1 SSTORE POP PUSH1 0x60 DUP3 ADD MLOAD DUP2 PUSH1 0x2 ADD PUSH1 0x1 PUSH2 0x100 EXP DUP2 SLOAD DUP2 PUSH1 0xFF MUL NOT AND SWAP1 DUP4 ISZERO ISZERO MUL OR SWAP1 SSTORE POP PUSH1 0x80 DUP3 ADD MLOAD DUP2 PUSH1 0x2 ADD PUSH1 0x2 PUSH2 0x100 EXP DUP2 SLOAD DUP2 PUSH1 0xFF MUL NOT AND SWAP1 DUP4 ISZERO ISZERO MUL OR SWAP1 SSTORE POP SWAP1 POP POP PUSH2 0x3C6 DUP2 PUSH2 0x82E JUMP JUMPDEST PUSH32 0x96AC7A421360A2BD773D747B2F64B40A916821C4906DBFDEBF787C292E741F7D CALLER DUP5 DUP5 PUSH1 0x40 MLOAD PUSH2 0x3F9 SWAP4 SWAP3 SWAP2 SWAP1 PUSH2 0xE33 JUMP JUMPDEST PUSH1 0x40 MLOAD DUP1 SWAP2 SUB SWAP1 LOG1 POP POP POP JUMP JUMPDEST PUSH32 0x0 PUSH20 0xFFFFFFFFFFFFFFFFFFFFFFFFFFFFFFFFFFFFFFFF AND CALLER PUSH20 0xFFFFFFFFFFFFFFFFFFFFFFFFFFFFFFFFFFFFFFFF AND EQ PUSH2 0x48B JUMPI PUSH1 0x40 MLOAD PUSH32 0x921BA71100000000000000000000000000000000000000000000000000000000 DUP2 MSTORE PUSH1 0x4 ADD PUSH1 0x40 MLOAD DUP1 SWAP2 SUB SWAP1 REVERT JUMPDEST PUSH1 0x40 MLOAD DUP1 PUSH1 0xA0 ADD PUSH1 0x40 MSTORE DUP1 DUP9 DUP9 DUP1 DUP1 PUSH1 0x1F ADD PUSH1 0x20 DUP1 SWAP2 DIV MUL PUSH1 0x20 ADD PUSH1 0x40 MLOAD SWAP1 DUP2 ADD PUSH1 0x40 MSTORE DUP1 SWAP4 SWAP3 SWAP2 SWAP1 DUP2 DUP2 MSTORE PUSH1 0x20 ADD DUP4 DUP4 DUP1 DUP3 DUP5 CALLDATACOPY PUSH1 0x0 DUP2 DUP5 ADD MSTORE PUSH1 0x1F NOT PUSH1 0x1F DUP3 ADD AND SWAP1 POP DUP1 DUP4 ADD SWAP3 POP POP POP POP POP POP POP DUP2 MSTORE PUSH1 0x20 ADD DUP7 PUSH20 0xFFFFFFFFFFFFFFFFFFFFFFFFFFFFFFFFFFFFFFFF AND DUP2 MSTORE PUSH1 0x20 ADD DUP6 DUP6 DUP1 DUP1 PUSH1 0x1F ADD PUSH1 0x20 DUP1 SWAP2 DIV MUL PUSH1 0x20 ADD PUSH1 0x40 MLOAD SWAP1 DUP2 ADD PUSH1 0x40 MSTORE DUP1 SWAP4 SWAP3 SWAP2 SWAP1 DUP2 DUP2 MSTORE PUSH1 0x20 ADD DUP4 DUP4 DUP1 DUP3 DUP5 CALLDATACOPY PUSH1 0x0 DUP2 DUP5 ADD MSTORE PUSH1 0x1F NOT PUSH1 0x1F DUP3 ADD AND SWAP1 POP DUP1 DUP4 ADD SWAP3 POP POP POP POP POP POP POP DUP2 MSTORE PUSH1 0x20 ADD DUP4 DUP4 DUP1 DUP1 PUSH1 0x1F ADD PUSH1 0x20 DUP1 SWAP2 DIV MUL PUSH1 0x20 ADD PUSH1 0x40 MLOAD SWAP1 DUP2 ADD PUSH1 0x40 MSTORE DUP1 SWAP4 SWAP3 SWAP2 SWAP1 DUP2 DUP2 MSTORE PUSH1 0x20 ADD DUP4 DUP4 DUP1 DUP3 DUP5 CALLDATACOPY PUSH1 0x0 DUP2 DUP5 ADD MSTORE PUSH1 0x1F NOT PUSH1 0x1F DUP3 ADD AND SWAP1 POP DUP1 DUP4 ADD SWAP3 POP POP POP POP POP POP POP DUP2 MSTORE PUSH1 0x20 ADD PUSH1 0x0 DUP2 MSTORE POP PUSH1 0x2 PUSH1 0x0 SLOAD DUP2 SLOAD DUP2 LT PUSH2 0x5AB JUMPI PUSH2 0x5AA PUSH2 0xE78 JUMP JUMPDEST JUMPDEST SWAP1 PUSH1 0x0 MSTORE PUSH1 0x20 PUSH1 0x0 KECCAK256 SWAP1 PUSH1 0x5 MUL ADD PUSH1 0x0 DUP3 ADD MLOAD DUP2 PUSH1 0x0 ADD SWAP1 DUP2 PUSH2 0x5CE SWAP2 SWAP1 PUSH2 0x10B3 JUMP JUMPDEST POP PUSH1 0x20 DUP3 ADD MLOAD DUP2 PUSH1 0x1 ADD PUSH1 0x0 PUSH2 0x100 EXP DUP2 SLOAD DUP2 PUSH20 0xFFFFFFFFFFFFFFFFFFFFFFFFFFFFFFFFFFFFFFFF MUL NOT AND SWAP1 DUP4 PUSH20 0xFFFFFFFFFFFFFFFFFFFFFFFFFFFFFFFFFFFFFFFF AND MUL OR SWAP1 SSTORE POP PUSH1 0x40 DUP3 ADD MLOAD DUP2 PUSH1 0x2 ADD SWAP1 DUP2 PUSH2 0x62B SWAP2 SWAP1 PUSH2 0x10B3 JUMP JUMPDEST POP PUSH1 0x60 DUP3 ADD MLOAD DUP2 PUSH1 0x3 ADD SWAP1 DUP2 PUSH2 0x641 SWAP2 SWAP1 PUSH2 0x10B3 JUMP JUMPDEST POP PUSH1 0x80 DUP3 ADD MLOAD DUP2 PUSH1 0x4 ADD SSTORE SWAP1 POP POP PUSH1 0x0 DUP1 DUP2 SLOAD DUP1 SWAP3 SWAP2 SWAP1 PUSH2 0x661 SWAP1 PUSH2 0x11B4 JUMP JUMPDEST SWAP2 SWAP1 POP SSTORE POP PUSH32 0x3E803CD24EE89CDEB21FDEB1ABAE02F3645470EE6D9DBDE6D6A32E8D9A3D9BBF DUP8 DUP8 DUP8 DUP8 DUP8 DUP8 DUP8 PUSH1 0x40 MLOAD PUSH2 0x6A1 SWAP8 SWAP7 SWAP6 SWAP5 SWAP4 SWAP3 SWAP2 SWAP1 PUSH2 0x1229 JUMP JUMPDEST PUSH1 0x40 MLOAD DUP1 SWAP2 SUB SWAP1 LOG1 POP POP POP POP POP POP POP JUMP JUMPDEST PUSH1 0x3 PUSH1 0x0 CALLER PUSH20 0xFFFFFFFFFFFFFFFFFFFFFFFFFFFFFFFFFFFFFFFF AND PUSH20 0xFFFFFFFFFFFFFFFFFFFFFFFFFFFFFFFFFFFFFFFF AND DUP2 MSTORE PUSH1 0x20 ADD SWAP1 DUP2 MSTORE PUSH1 0x20 ADD PUSH1 0x0 KECCAK256 PUSH1 0x2 ADD PUSH1 0x1 SWAP1 SLOAD SWAP1 PUSH2 0x100 EXP SWAP1 DIV PUSH1 0xFF AND PUSH2 0x738 JUMPI PUSH1 0x40 MLOAD PUSH32 0x9CF5120E00000000000000000000000000000000000000000000000000000000 DUP2 MSTORE PUSH1 0x4 ADD PUSH1 0x40 MLOAD DUP1 SWAP2 SUB SWAP1 REVERT JUMPDEST PUSH1 0x3 PUSH1 0x0 CALLER PUSH20 0xFFFFFFFFFFFFFFFFFFFFFFFFFFFFFFFFFFFFFFFF AND PUSH20 0xFFFFFFFFFFFFFFFFFFFFFFFFFFFFFFFFFFFFFFFF AND DUP2 MSTORE PUSH1 0x20 ADD SWAP1 DUP2 MSTORE PUSH1 0x20 ADD PUSH1 0x0 KECCAK256 PUSH1 0x2 ADD PUSH1 0x2 SWAP1 SLOAD SWAP1 PUSH2 0x100 EXP SWAP1 DIV PUSH1 0xFF AND ISZERO PUSH2 0x7FF JUMPI PUSH1 0x0 PUSH1 0x5 PUSH1 0x0 CALLER PUSH20 0xFFFFFFFFFFFFFFFFFFFFFFFFFFFFFFFFFFFFFFFF AND PUSH20 0xFFFFFFFFFFFFFFFFFFFFFFFFFFFFFFFFFFFFFFFF AND DUP2 MSTORE PUSH1 0x20 ADD SWAP1 DUP2 MSTORE PUSH1 0x20 ADD PUSH1 0x0 KECCAK256 SLOAD SWAP1 POP PUSH1 0x4 PUSH1 0x0 DUP3 DUP2 MSTORE PUSH1 0x20 ADD SWAP1 DUP2 MSTORE PUSH1 0x20 ADD PUSH1 0x0 KECCAK256 PUSH1 0x4 ADD PUSH1 0x0 DUP2 SLOAD DUP1 SWAP3 SWAP2 SWAP1 PUSH2 0x7F8 SWAP1 PUSH2 0x1289 JUMP JUMPDEST SWAP2 SWAP1 POP SSTORE POP POP JUMPDEST PUSH1 0x4 PUSH1 0x0 DUP3 DUP2 MSTORE PUSH1 0x20 ADD SWAP1 DUP2 MSTORE PUSH1 0x20 ADD PUSH1 0x0 KECCAK256 PUSH1 0x4 ADD PUSH1 0x0 DUP2 SLOAD DUP1 SWAP3 SWAP2 SWAP1 PUSH2 0x826 SWAP1 PUSH2 0x11B4 JUMP JUMPDEST SWAP2 SWAP1 POP SSTORE POP POP JUMP JUMPDEST PUSH2 0x8C4 DUP2 PUSH1 0x40 MLOAD PUSH1 0x24 ADD PUSH2 0x842 SWAP2 SWAP1 PUSH2 0x12CB JUMP JUMPDEST PUSH1 0x40 MLOAD PUSH1 0x20 DUP2 DUP4 SUB SUB DUP2 MSTORE SWAP1 PUSH1 0x40 MSTORE PUSH32 0x27B7CF8500000000000000000000000000000000000000000000000000000000 PUSH28 0xFFFFFFFFFFFFFFFFFFFFFFFFFFFFFFFFFFFFFFFFFFFFFFFFFFFFFFFF NOT AND PUSH1 0x20 DUP3 ADD DUP1 MLOAD PUSH28 0xFFFFFFFFFFFFFFFFFFFFFFFFFFFFFFFFFFFFFFFFFFFFFFFFFFFFFFFF DUP4 DUP2 DUP4 AND OR DUP4 MSTORE POP POP POP POP PUSH2 0x8C7 JUMP JUMPDEST POP JUMP JUMPDEST PUSH1 0x0 PUSH11 0x636F6E736F6C652E6C6F67 SWAP1 POP PUSH1 0x0 DUP1 DUP4 MLOAD PUSH1 0x20 DUP6 ADD DUP5 GAS STATICCALL POP POP POP JUMP JUMPDEST PUSH1 0x0 PUSH1 0x40 MLOAD SWAP1 POP SWAP1 JUMP JUMPDEST PUSH1 0x0 DUP1 REVERT JUMPDEST PUSH1 0x0 DUP1 REVERT JUMPDEST PUSH1 0x0 PUSH20 0xFFFFFFFFFFFFFFFFFFFFFFFFFFFFFFFFFFFFFFFF DUP3 AND SWAP1 POP SWAP2 SWAP1 POP JUMP JUMPDEST PUSH1 0x0 PUSH2 0x927 DUP3 PUSH2 0x8FC JUMP JUMPDEST SWAP1 POP SWAP2 SWAP1 POP JUMP JUMPDEST PUSH2 0x937 DUP2 PUSH2 0x91C JUMP JUMPDEST DUP2 EQ PUSH2 0x942 JUMPI PUSH1 0x0 DUP1 REVERT JUMPDEST POP JUMP JUMPDEST PUSH1 0x0 DUP2 CALLDATALOAD SWAP1 POP PUSH2 0x954 DUP2 PUSH2 0x92E JUMP JUMPDEST SWAP3 SWAP2 POP POP JUMP JUMPDEST PUSH1 0x0 PUSH1 0x20 DUP3 DUP5 SUB SLT ISZERO PUSH2 0x970 JUMPI PUSH2 0x96F PUSH2 0x8F2 JUMP JUMPDEST JUMPDEST PUSH1 0x0 PUSH2 0x97E DUP5 DUP3 DUP6 ADD PUSH2 0x945 JUMP JUMPDEST SWAP2 POP POP SWAP3 SWAP2 POP POP JUMP JUMPDEST PUSH2 0x990 DUP2 PUSH2 0x91C JUMP JUMPDEST DUP3 MSTORE POP POP JUMP JUMPDEST PUSH1 0x0 PUSH1 0x20 DUP3 ADD SWAP1 POP PUSH2 0x9AB PUSH1 0x0 DUP4 ADD DUP5 PUSH2 0x987 JUMP JUMPDEST SWAP3 SWAP2 POP POP JUMP JUMPDEST PUSH1 0x0 DUP1 REVERT JUMPDEST PUSH1 0x0 DUP1 REVERT JUMPDEST PUSH1 0x0 PUSH1 0x1F NOT PUSH1 0x1F DUP4 ADD AND SWAP1 POP SWAP2 SWAP1 POP JUMP JUMPDEST PUSH32 0x4E487B7100000000000000000000000000000000000000000000000000000000 PUSH1 0x0 MSTORE PUSH1 0x41 PUSH1 0x4 MSTORE PUSH1 0x24 PUSH1 0x0 REVERT JUMPDEST PUSH2 0xA04 DUP3 PUSH2 0x9BB JUMP JUMPDEST DUP2 ADD DUP2 DUP2 LT PUSH8 0xFFFFFFFFFFFFFFFF DUP3 GT OR ISZERO PUSH2 0xA23 JUMPI PUSH2 0xA22 PUSH2 0x9CC JUMP JUMPDEST JUMPDEST DUP1 PUSH1 0x40 MSTORE POP POP POP JUMP JUMPDEST PUSH1 0x0 PUSH2 0xA36 PUSH2 0x8E8 JUMP JUMPDEST SWAP1 POP PUSH2 0xA42 DUP3 DUP3 PUSH2 0x9FB JUMP JUMPDEST SWAP2 SWAP1 POP JUMP JUMPDEST PUSH1 0x0 PUSH8 0xFFFFFFFFFFFFFFFF DUP3 GT ISZERO PUSH2 0xA62 JUMPI PUSH2 0xA61 PUSH2 0x9CC JUMP JUMPDEST JUMPDEST PUSH2 0xA6B DUP3 PUSH2 0x9BB JUMP JUMPDEST SWAP1 POP PUSH1 0x20 DUP2 ADD SWAP1 POP SWAP2 SWAP1 POP JUMP JUMPDEST DUP3 DUP2 DUP4 CALLDATACOPY PUSH1 0x0 DUP4 DUP4 ADD MSTORE POP POP POP JUMP JUMPDEST PUSH1 0x0 PUSH2 0xA9A PUSH2 0xA95 DUP5 PUSH2 0xA47 JUMP JUMPDEST PUSH2 0xA2C JUMP JUMPDEST SWAP1 POP DUP3 DUP2 MSTORE PUSH1 0x20 DUP2 ADD DUP5 DUP5 DUP5 ADD GT ISZERO PUSH2 0xAB6 JUMPI PUSH2 0xAB5 PUSH2 0x9B6 JUMP JUMPDEST JUMPDEST PUSH2 0xAC1 DUP5 DUP3 DUP6 PUSH2 0xA78 JUMP JUMPDEST POP SWAP4 SWAP3 POP POP POP JUMP JUMPDEST PUSH1 0x0 DUP3 PUSH1 0x1F DUP4 ADD SLT PUSH2 0xADE JUMPI PUSH2 0xADD PUSH2 0x9B1 JUMP JUMPDEST JUMPDEST DUP2 CALLDATALOAD PUSH2 0xAEE DUP5 DUP3 PUSH1 0x20 DUP7 ADD PUSH2 0xA87 JUMP JUMPDEST SWAP2 POP POP SWAP3 SWAP2 POP POP JUMP JUMPDEST PUSH1 0x0 DUP1 PUSH1 0x40 DUP4 DUP6 SUB SLT ISZERO PUSH2 0xB0E JUMPI PUSH2 0xB0D PUSH2 0x8F2 JUMP JUMPDEST JUMPDEST PUSH1 0x0 DUP4 ADD CALLDATALOAD PUSH8 0xFFFFFFFFFFFFFFFF DUP2 GT ISZERO PUSH2 0xB2C JUMPI PUSH2 0xB2B PUSH2 0x8F7 JUMP JUMPDEST JUMPDEST PUSH2 0xB38 DUP6 DUP3 DUP7 ADD PUSH2 0xAC9 JUMP JUMPDEST SWAP3 POP POP PUSH1 0x20 DUP4 ADD CALLDATALOAD PUSH8 0xFFFFFFFFFFFFFFFF DUP2 GT ISZERO PUSH2 0xB59 JUMPI PUSH2 0xB58 PUSH2 0x8F7 JUMP JUMPDEST JUMPDEST PUSH2 0xB65 DUP6 DUP3 DUP7 ADD PUSH2 0xAC9 JUMP JUMPDEST SWAP2 POP POP SWAP3 POP SWAP3 SWAP1 POP JUMP JUMPDEST PUSH1 0x0 DUP1 REVERT JUMPDEST PUSH1 0x0 DUP1 REVERT JUMPDEST PUSH1 0x0 DUP1 DUP4 PUSH1 0x1F DUP5 ADD SLT PUSH2 0xB8F JUMPI PUSH2 0xB8E PUSH2 0x9B1 JUMP JUMPDEST JUMPDEST DUP3 CALLDATALOAD SWAP1 POP PUSH8 0xFFFFFFFFFFFFFFFF DUP2 GT ISZERO PUSH2 0xBAC JUMPI PUSH2 0xBAB PUSH2 0xB6F JUMP JUMPDEST JUMPDEST PUSH1 0x20 DUP4 ADD SWAP2 POP DUP4 PUSH1 0x1 DUP3 MUL DUP4 ADD GT ISZERO PUSH2 0xBC8 JUMPI PUSH2 0xBC7 PUSH2 0xB74 JUMP JUMPDEST JUMPDEST SWAP3 POP SWAP3 SWAP1 POP JUMP JUMPDEST PUSH1 0x0 DUP1 PUSH1 0x0 DUP1 PUSH1 0x0 DUP1 PUSH1 0x0 PUSH1 0x80 DUP9 DUP11 SUB SLT ISZERO PUSH2 0xBEE JUMPI PUSH2 0xBED PUSH2 0x8F2 JUMP JUMPDEST JUMPDEST PUSH1 0x0 DUP9 ADD CALLDATALOAD PUSH8 0xFFFFFFFFFFFFFFFF DUP2 GT ISZERO PUSH2 0xC0C JUMPI PUSH2 0xC0B PUSH2 0x8F7 JUMP JUMPDEST JUMPDEST PUSH2 0xC18 DUP11 DUP3 DUP12 ADD PUSH2 0xB79 JUMP JUMPDEST SWAP8 POP SWAP8 POP POP PUSH1 0x20 PUSH2 0xC2B DUP11 DUP3 DUP12 ADD PUSH2 0x945 JUMP JUMPDEST SWAP6 POP POP PUSH1 0x40 DUP9 ADD CALLDATALOAD PUSH8 0xFFFFFFFFFFFFFFFF DUP2 GT ISZERO PUSH2 0xC4C JUMPI PUSH2 0xC4B PUSH2 0x8F7 JUMP JUMPDEST JUMPDEST PUSH2 0xC58 DUP11 DUP3 DUP12 ADD PUSH2 0xB79 JUMP JUMPDEST SWAP5 POP SWAP5 POP POP PUSH1 0x60 DUP9 ADD CALLDATALOAD PUSH8 0xFFFFFFFFFFFFFFFF DUP2 GT ISZERO PUSH2 0xC7B JUMPI PUSH2 0xC7A PUSH2 0x8F7 JUMP JUMPDEST JUMPDEST PUSH2 0xC87 DUP11 DUP3 DUP12 ADD PUSH2 0xB79 JUMP JUMPDEST SWAP3 POP SWAP3 POP POP SWAP3 SWAP6 SWAP9 SWAP2 SWAP5 SWAP8 POP SWAP3 SWAP6 POP JUMP JUMPDEST PUSH1 0x0 DUP2 SWAP1 POP SWAP2 SWAP1 POP JUMP JUMPDEST PUSH2 0xCAB DUP2 PUSH2 0xC98 JUMP JUMPDEST DUP2 EQ PUSH2 0xCB6 JUMPI PUSH1 0x0 DUP1 REVERT JUMPDEST POP JUMP JUMPDEST PUSH1 0x0 DUP2 CALLDATALOAD SWAP1 POP PUSH2 0xCC8 DUP2 PUSH2 0xCA2 JUMP JUMPDEST SWAP3 SWAP2 POP POP JUMP JUMPDEST PUSH1 0x0 PUSH1 0x20 DUP3 DUP5 SUB SLT ISZERO PUSH2 0xCE4 JUMPI PUSH2 0xCE3 PUSH2 0x8F2 JUMP JUMPDEST JUMPDEST PUSH1 0x0 PUSH2 0xCF2 DUP5 DUP3 DUP6 ADD PUSH2 0xCB9 JUMP JUMPDEST SWAP2 POP POP SWAP3 SWAP2 POP POP JUMP JUMPDEST PUSH1 0x0 DUP2 MLOAD SWAP1 POP SWAP2 SWAP1 POP JUMP JUMPDEST PUSH1 0x0 DUP2 SWAP1 POP SWAP3 SWAP2 POP POP JUMP JUMPDEST PUSH1 0x0 JUMPDEST DUP4 DUP2 LT ISZERO PUSH2 0xD2F JUMPI DUP1 DUP3 ADD MLOAD DUP2 DUP5 ADD MSTORE PUSH1 0x20 DUP2 ADD SWAP1 POP PUSH2 0xD14 JUMP JUMPDEST PUSH1 0x0 DUP5 DUP5 ADD MSTORE POP POP POP POP JUMP JUMPDEST PUSH1 0x0 PUSH2 0xD46 DUP3 PUSH2 0xCFB JUMP JUMPDEST PUSH2 0xD50 DUP2 DUP6 PUSH2 0xD06 JUMP JUMPDEST SWAP4 POP PUSH2 0xD60 DUP2 DUP6 PUSH1 0x20 DUP7 ADD PUSH2 0xD11 JUMP JUMPDEST DUP1 DUP5 ADD SWAP2 POP POP SWAP3 SWAP2 POP POP JUMP JUMPDEST PUSH1 0x0 DUP2 PUSH1 0x60 SHL SWAP1 POP SWAP2 SWAP1 POP JUMP JUMPDEST PUSH1 0x0 PUSH2 0xD84 DUP3 PUSH2 0xD6C JUMP JUMPDEST SWAP1 POP SWAP2 SWAP1 POP JUMP JUMPDEST PUSH1 0x0 PUSH2 0xD96 DUP3 PUSH2 0xD79 JUMP JUMPDEST SWAP1 POP SWAP2 SWAP1 POP JUMP JUMPDEST PUSH2 0xDAE PUSH2 0xDA9 DUP3 PUSH2 0x91C JUMP JUMPDEST PUSH2 0xD8B JUMP JUMPDEST DUP3 MSTORE POP POP JUMP JUMPDEST PUSH1 0x0 PUSH2 0xDC0 DUP3 DUP7 PUSH2 0xD3B JUMP JUMPDEST SWAP2 POP PUSH2 0xDCC DUP3 DUP6 PUSH2 0xD3B JUMP JUMPDEST SWAP2 POP PUSH2 0xDD8 DUP3 DUP5 PUSH2 0xD9D JUMP JUMPDEST PUSH1 0x14 DUP3 ADD SWAP2 POP DUP2 SWAP1 POP SWAP5 SWAP4 POP POP POP POP JUMP JUMPDEST PUSH1 0x0 DUP3 DUP3 MSTORE PUSH1 0x20 DUP3 ADD SWAP1 POP SWAP3 SWAP2 POP POP JUMP JUMPDEST PUSH1 0x0 PUSH2 0xE05 DUP3 PUSH2 0xCFB JUMP JUMPDEST PUSH2 0xE0F DUP2 DUP6 PUSH2 0xDE9 JUMP JUMPDEST SWAP4 POP PUSH2 0xE1F DUP2 DUP6 PUSH1 0x20 DUP7 ADD PUSH2 0xD11 JUMP JUMPDEST PUSH2 0xE28 DUP2 PUSH2 0x9BB JUMP JUMPDEST DUP5 ADD SWAP2 POP POP SWAP3 SWAP2 POP POP JUMP JUMPDEST PUSH1 0x0 PUSH1 0x60 DUP3 ADD SWAP1 POP PUSH2 0xE48 PUSH1 0x0 DUP4 ADD DUP7 PUSH2 0x987 JUMP JUMPDEST DUP2 DUP2 SUB PUSH1 0x20 DUP4 ADD MSTORE PUSH2 0xE5A DUP2 DUP6 PUSH2 0xDFA JUMP JUMPDEST SWAP1 POP DUP2 DUP2 SUB PUSH1 0x40 DUP4 ADD MSTORE PUSH2 0xE6E DUP2 DUP5 PUSH2 0xDFA JUMP JUMPDEST SWAP1 POP SWAP5 SWAP4 POP POP POP POP JUMP JUMPDEST PUSH32 0x4E487B7100000000000000000000000000000000000000000000000000000000 PUSH1 0x0 MSTORE PUSH1 0x32 PUSH1 0x4 MSTORE PUSH1 0x24 PUSH1 0x0 REVERT JUMPDEST PUSH32 0x4E487B7100000000000000000000000000000000000000000000000000000000 PUSH1 0x0 MSTORE PUSH1 0x22 PUSH1 0x4 MSTORE PUSH1 0x24 PUSH1 0x0 REVERT JUMPDEST PUSH1 0x0 PUSH1 0x2 DUP3 DIV SWAP1 POP PUSH1 0x1 DUP3 AND DUP1 PUSH2 0xEEE JUMPI PUSH1 0x7F DUP3 AND SWAP2 POP JUMPDEST PUSH1 0x20 DUP3 LT DUP2 SUB PUSH2 0xF01 JUMPI PUSH2 0xF00 PUSH2 0xEA7 JUMP JUMPDEST JUMPDEST POP SWAP2 SWAP1 POP JUMP JUMPDEST PUSH1 0x0 DUP2 SWAP1 POP DUP2 PUSH1 0x0 MSTORE PUSH1 0x20 PUSH1 0x0 KECCAK256 SWAP1 POP SWAP2 SWAP1 POP JUMP JUMPDEST PUSH1 0x0 PUSH1 0x20 PUSH1 0x1F DUP4 ADD DIV SWAP1 POP SWAP2 SWAP1 POP JUMP JUMPDEST PUSH1 0x0 DUP3 DUP3 SHL SWAP1 POP SWAP3 SWAP2 POP POP JUMP JUMPDEST PUSH1 0x0 PUSH1 0x8 DUP4 MUL PUSH2 0xF69 PUSH32 0xFFFFFFFFFFFFFFFFFFFFFFFFFFFFFFFFFFFFFFFFFFFFFFFFFFFFFFFFFFFFFFFF DUP3 PUSH2 0xF2C JUMP JUMPDEST PUSH2 0xF73 DUP7 DUP4 PUSH2 0xF2C JUMP JUMPDEST SWAP6 POP DUP1 NOT DUP5 AND SWAP4 POP DUP1 DUP7 AND DUP5 OR SWAP3 POP POP POP SWAP4 SWAP3 POP POP POP JUMP JUMPDEST PUSH1 0x0 DUP2 SWAP1 POP SWAP2 SWAP1 POP JUMP JUMPDEST PUSH1 0x0 PUSH2 0xFB0 PUSH2 0xFAB PUSH2 0xFA6 DUP5 PUSH2 0xC98 JUMP JUMPDEST PUSH2 0xF8B JUMP JUMPDEST PUSH2 0xC98 JUMP JUMPDEST SWAP1 POP SWAP2 SWAP1 POP JUMP JUMPDEST PUSH1 0x0 DUP2 SWAP1 POP SWAP2 SWAP1 POP JUMP JUMPDEST PUSH2 0xFCA DUP4 PUSH2 0xF95 JUMP JUMPDEST PUSH2 0xFDE PUSH2 0xFD6 DUP3 PUSH2 0xFB7 JUMP JUMPDEST DUP5 DUP5 SLOAD PUSH2 0xF39 JUMP JUMPDEST DUP3 SSTORE POP POP POP POP JUMP JUMPDEST PUSH1 0x0 SWAP1 JUMP JUMPDEST PUSH2 0xFF3 PUSH2 0xFE6 JUMP JUMPDEST PUSH2 0xFFE DUP2 DUP5 DUP5 PUSH2 0xFC1 JUMP JUMPDEST POP POP POP JUMP JUMPDEST JUMPDEST DUP2 DUP2 LT ISZERO PUSH2 0x1022 JUMPI PUSH2 0x1017 PUSH1 0x0 DUP3 PUSH2 0xFEB JUMP JUMPDEST PUSH1 0x1 DUP2 ADD SWAP1 POP PUSH2 0x1004 JUMP JUMPDEST POP POP JUMP JUMPDEST PUSH1 0x1F DUP3 GT ISZERO PUSH2 0x1067 JUMPI PUSH2 0x1038 DUP2 PUSH2 0xF07 JUMP JUMPDEST PUSH2 0x1041 DUP5 PUSH2 0xF1C JUMP JUMPDEST DUP2 ADD PUSH1 0x20 DUP6 LT ISZERO PUSH2 0x1050 JUMPI DUP2 SWAP1 POP JUMPDEST PUSH2 0x1064 PUSH2 0x105C DUP6 PUSH2 0xF1C JUMP JUMPDEST DUP4 ADD DUP3 PUSH2 0x1003 JUMP JUMPDEST POP POP JUMPDEST POP POP POP JUMP JUMPDEST PUSH1 0x0 DUP3 DUP3 SHR SWAP1 POP SWAP3 SWAP2 POP POP JUMP JUMPDEST PUSH1 0x0 PUSH2 0x108A PUSH1 0x0 NOT DUP5 PUSH1 0x8 MUL PUSH2 0x106C JUMP JUMPDEST NOT DUP1 DUP4 AND SWAP2 POP POP SWAP3 SWAP2 POP POP JUMP JUMPDEST PUSH1 0x0 PUSH2 0x10A3 DUP4 DUP4 PUSH2 0x1079 JUMP JUMPDEST SWAP2 POP DUP3 PUSH1 0x2 MUL DUP3 OR SWAP1 POP SWAP3 SWAP2 POP POP JUMP JUMPDEST PUSH2 0x10BC DUP3 PUSH2 0xCFB JUMP JUMPDEST PUSH8 0xFFFFFFFFFFFFFFFF DUP2 GT ISZERO PUSH2 0x10D5 JUMPI PUSH2 0x10D4 PUSH2 0x9CC JUMP JUMPDEST JUMPDEST PUSH2 0x10DF DUP3 SLOAD PUSH2 0xED6 JUMP JUMPDEST PUSH2 0x10EA DUP3 DUP3 DUP6 PUSH2 0x1026 JUMP JUMPDEST PUSH1 0x0 PUSH1 0x20 SWAP1 POP PUSH1 0x1F DUP4 GT PUSH1 0x1 DUP2 EQ PUSH2 0x111D JUMPI PUSH1 0x0 DUP5 ISZERO PUSH2 0x110B JUMPI DUP3 DUP8 ADD MLOAD SWAP1 POP JUMPDEST PUSH2 0x1115 DUP6 DUP3 PUSH2 0x1097 JUMP JUMPDEST DUP7 SSTORE POP PUSH2 0x117D JUMP JUMPDEST PUSH1 0x1F NOT DUP5 AND PUSH2 0x112B DUP7 PUSH2 0xF07 JUMP JUMPDEST PUSH1 0x0 JUMPDEST DUP3 DUP2 LT ISZERO PUSH2 0x1153 JUMPI DUP5 DUP10 ADD MLOAD DUP3 SSTORE PUSH1 0x1 DUP3 ADD SWAP2 POP PUSH1 0x20 DUP6 ADD SWAP5 POP PUSH1 0x20 DUP2 ADD SWAP1 POP PUSH2 0x112E JUMP JUMPDEST DUP7 DUP4 LT ISZERO PUSH2 0x1170 JUMPI DUP5 DUP10 ADD MLOAD PUSH2 0x116C PUSH1 0x1F DUP10 AND DUP3 PUSH2 0x1079 JUMP JUMPDEST DUP4 SSTORE POP JUMPDEST PUSH1 0x1 PUSH1 0x2 DUP9 MUL ADD DUP9 SSTORE POP POP POP JUMPDEST POP POP POP POP POP POP JUMP JUMPDEST PUSH32 0x4E487B7100000000000000000000000000000000000000000000000000000000 PUSH1 0x0 MSTORE PUSH1 0x11 PUSH1 0x4 MSTORE PUSH1 0x24 PUSH1 0x0 REVERT JUMPDEST PUSH1 0x0 PUSH2 0x11BF DUP3 PUSH2 0xC98 JUMP JUMPDEST SWAP2 POP PUSH32 0xFFFFFFFFFFFFFFFFFFFFFFFFFFFFFFFFFFFFFFFFFFFFFFFFFFFFFFFFFFFFFFFF DUP3 SUB PUSH2 0x11F1 JUMPI PUSH2 0x11F0 PUSH2 0x1185 JUMP JUMPDEST JUMPDEST PUSH1 0x1 DUP3 ADD SWAP1 POP SWAP2 SWAP1 POP JUMP JUMPDEST PUSH1 0x0 PUSH2 0x1208 DUP4 DUP6 PUSH2 0xDE9 JUMP JUMPDEST SWAP4 POP PUSH2 0x1215 DUP4 DUP6 DUP5 PUSH2 0xA78 JUMP JUMPDEST PUSH2 0x121E DUP4 PUSH2 0x9BB JUMP JUMPDEST DUP5 ADD SWAP1 POP SWAP4 SWAP3 POP POP POP JUMP JUMPDEST PUSH1 0x0 PUSH1 0x80 DUP3 ADD SWAP1 POP DUP2 DUP2 SUB PUSH1 0x0 DUP4 ADD MSTORE PUSH2 0x1244 DUP2 DUP10 DUP12 PUSH2 0x11FC JUMP JUMPDEST SWAP1 POP PUSH2 0x1253 PUSH1 0x20 DUP4 ADD DUP9 PUSH2 0x987 JUMP JUMPDEST DUP2 DUP2 SUB PUSH1 0x40 DUP4 ADD MSTORE PUSH2 0x1266 DUP2 DUP7 DUP9 PUSH2 0x11FC JUMP JUMPDEST SWAP1 POP DUP2 DUP2 SUB PUSH1 0x60 DUP4 ADD MSTORE PUSH2 0x127B DUP2 DUP5 DUP7 PUSH2 0x11FC JUMP JUMPDEST SWAP1 POP SWAP9 SWAP8 POP POP POP POP POP POP POP POP JUMP JUMPDEST PUSH1 0x0 PUSH2 0x1294 DUP3 PUSH2 0xC98 JUMP JUMPDEST SWAP2 POP PUSH1 0x0 DUP3 SUB PUSH2 0x12A7 JUMPI PUSH2 0x12A6 PUSH2 0x1185 JUMP JUMPDEST JUMPDEST PUSH1 0x1 DUP3 SUB SWAP1 POP SWAP2 SWAP1 POP JUMP JUMPDEST PUSH1 0x0 DUP2 SWAP1 POP SWAP2 SWAP1 POP JUMP JUMPDEST PUSH2 0x12C5 DUP2 PUSH2 0x12B2 JUMP JUMPDEST DUP3 MSTORE POP POP JUMP JUMPDEST PUSH1 0x0 PUSH1 0x20 DUP3 ADD SWAP1 POP PUSH2 0x12E0 PUSH1 0x0 DUP4 ADD DUP5 PUSH2 0x12BC JUMP JUMPDEST SWAP3 SWAP2 POP POP JUMP INVALID LOG2 PUSH5 0x6970667358 0x22 SLT KECCAK256 LT NUMBER 0xC6 SSTORE REVERT ISZERO 0xEF GASLIMIT MUL 0xD7 0x21 SWAP14 SSTORE 0xE5 JUMPI PUSH12 0xE36FB2C9001417F6761DE4FE JUMPDEST CALLER 0xCF 0xDB PUSH5 0x736F6C6343 STOP ADDMOD SLT STOP CALLER "},"gasEstimates":{"creation":{"codeDepositCost":"978400","executionCost":"infinite","totalCost":"infinite"},"external":{"Vote(uint256)":"infinite","addCandidate(string,address,string,string)":"infinite","getAdminDetails()":"infinite","registerVoter(string,string)":"infinite","verifyVoter(address)":"infinite"}},"methodIdentifiers":{"Vote(uint256)":"dcd6a5cd","addCandidate(string,address,string,string)":"d908095d","getAdminDetails()":"17e6f02e","registerVoter(string,string)":"8a4c8847","verifyVoter(address)":"09bd0950"}},"storageLayout":{"storage":[{"astId":10,"contract":"contracts/Election.sol:Election","label":"candidateCount","offset":0,"slot":"0","type":"t_uint256"},{"astId":46,"contract":"contracts/Election.sol:Election","label":"Voters","offset":0,"slot":"1","type":"t_array(t_address)dyn_storage"},{"astId":50,"contract":"contracts/Election.sol:Election","label":"Candidates","offset":0,"slot":"2","type":"t_array(t_struct(Candidate)32_storage)dyn_storage"},{"astId":55,"contract":"contracts/Election.sol:Election","label":"voterDetails","offset":0,"slot":"3","type":"t_mapping(t_address,t_struct(Voter)43_storage)"},{"astId":60,"contract":"contracts/Election.sol:Election","label":"candidateDetails","offset":0,"slot":"4","type":"t_mapping(t_uint256,t_struct(Candidate)32_storage)"},{"astId":64,"contract":"contracts/Election.sol:Election","label":"votedDetail","offset":0,"slot":"5","type":"t_mapping(t_address,t_uint256)"}],"types":{"t_address":{"encoding":"inplace","label":"address","numberOfBytes":"20"},"t_array(t_address)dyn_storage":{"base":"t_address","encoding":"dynamic_array","label":"address[]","numberOfBytes":"32"},"t_array(t_struct(Candidate)32_storage)dyn_storage":{"base":"t_struct(Candidate)32_storage","encoding":"dynamic_array","label":"struct Election.Candidate[]","numberOfBytes":"32"},"t_bool":{"encoding":"inplace","label":"bool","numberOfBytes":"1"},"t_bytes32":{"encoding":"inplace","label":"bytes32","numberOfBytes":"32"},"t_mapping(t_address,t_struct(Voter)43_storage)":{"encoding":"mapping","key":"t_address","label":"mapping(address => struct Election.Voter)","numberOfBytes":"32","value":"t_struct(Voter)43_storage"},"t_mapping(t_address,t_uint256)":{"encoding":"mapping","key":"t_address","label":"mapping(address => uint256)","numberOfBytes":"32","value":"t_uint256"},"t_mapping(t_uint256,t_struct(Candidate)32_storage)":{"encoding":"mapping","key":"t_uint256","label":"mapping(uint256 => struct Election.Candidate)","numberOfBytes":"32","value":"t_struct(Candidate)32_storage"},"t_string_storage":{"encoding":"bytes","label":"string","numberOfBytes":"32"},"t_struct(Candidate)32_storage":{"encoding":"inplace","label":"struct Election.Candidate","members":[{"astId":23,"contract":"contracts/Election.sol:Election","label":"name","offset":0,"slot":"0","type":"t_string_storage"},{"astId":25,"contract":"contracts/Election.sol:Election","label":"candidate","offset":0,"slot":"1","type":"t_address"},{"astId":27,"contract":"contracts/Election.sol:Election","label":"partyName","offset":0,"slot":"2","type":"t_string_storage"},{"astId":29,"contract":"contracts/Election.sol:Election","label":"slogan","offset":0,"slot":"3","type":"t_string_storage"},{"astId":31,"contract":"contracts/Election.sol:Election","label":"votes","offset":0,"slot":"4","type":"t_uint256"}],"numberOfBytes":"160"},"t_struct(Voter)43_storage":{"encoding":"inplace","label":"struct Election.Voter","members":[{"astId":34,"contract":"contracts/Election.sol:Election","label":"voter","offset":0,"slot":"0","type":"t_address"},{"astId":36,"contract":"contracts/Election.sol:Election","label":"dataHash","offset":0,"slot":"1","type":"t_bytes32"},{"astId":38,"contract":"contracts/Election.sol:Election","label":"isRegistered","offset":0,"slot":"2","type":"t_bool"},{"astId":40,"contract":"contracts/Election.sol:Election","label":"isVerified","offset":1,"slot":"2","type":"t_bool"},{"astId":42,"contract":"contracts/Election.sol:Election","label":"hasVoted","offset":2,"slot":"2","type":"t_bool"}],"numberOfBytes":"96"},"t_uint256":{"encoding":"inplace","label":"uint256","numberOfBytes":"32"}}},"userdoc":{"kind":"user","methods":{},"version":1}}}}